:020000040800F2
:1000000040B6002495030008678E0090615200906E
:100010009D030008411B00906BDF00900000000072
:1000200000000000000000000000000045CC00902F
:10003000F51D009000000000BD040090FD210008A7
:10004000AB030008AB030008AB030008AB030008D8
:10005000AB030008AB030008311E0090AB0300089F
:10006000471E0090511E0090AB030008AB03000830
:10007000AB030008AB030008AB030008AB030008A8
:10008000AB030008AB030008AB030008AB03000898
:10009000AB030008AB030008AB030008AB03000888
:1000A000AB030008AB030008AB030008AB03000878
:1000B00049CC0090AB030008AB030008AB03000879
:1000C000AB030008AB030008AB030008AB03000858
:1000D000AB0300081D220008AB03000875220008CE
:1000E0003B1E0090AB03000800000000AB030008BB
:1000F000AB030008AB030008AB030008AB03000828
:10010000AB030008AB030008AB030008AB03000817
:10011000AB030008AB030008AB030008AB03000807
:10012000AB030008AB030008AB030008AB030008F7
:10013000AB030008F91D0090AB030008AB030008F7
:1001400000000000000000000000000000000000AF
:10015000AB030008AB030008AB030008AB030008C7
:10016000AB030008AB030008AB030008AB030008B7
:10017000AB030008AB030008AB030008AB030008A7
:10018000AB030008AB030008AB030008AB03000897
:10019000AB030008AB030008AB030008AB03000887
:1001A000AB030008AB030008AB030008AB03000877
:1001B000AB030008AB030008AB030008AB03000867
:1001C000AB030008AB030008AB030008AB03000857
:1001D000AB030008AB030008AB030008AB03000847
:1001E000AB030008AB030008AB030008AB03000837
:1001F000AB030008AB030008AB030008AB03000827
:10020000AB030008AB030008AB030008AB03000816
:10021000AB030008AB030008AB030008AB03000806
:10022000AB030008AB030008AB03000800000000AC
:10023000AB030008AB03000800000000AB0300089C
:10024000AB030008AB030008AB030008AB030008D6
:10025000AB030008AB030008AB030008AB030008C6
:10026000AB030008AB030008AB030008AB030008B6
:10027000AB030008AB030008AB030008000000005C
:10028000AB03000800000000AB0300080000000002
:1002900000000000AB03000800F002F800F06BF86B
:1002A0000AA090E8000C82448344AAF10107DA45D1
:1002B00001D100F060F8AFF2090EBAE80F0013F0B8
:1002C000010F18BFFB1A43F001031847582600001E
:1002D000782600000A444FF0000C10F8013B13F0A0
:1002E000070408BF10F8014B1D1108BF10F8015B8F
:1002F000641E05D010F8016B641E01F8016BF9D182
:1003000013F0080F1EBF10F8014BAD1C0C1B09D1D8
:100310006D1E58BF01F801CBFAD505E014F8016B4A
:1003200001F8016B6D1EF9D59142D6D370470000DC
:100330000023002400250026103A28BF78C1FBD8EE
:10034000520728BF30C148BF0B607047642900F0D6
:100350008B80752900F08880782900F0C18063299E
:1003600000F09C81732900F0A181002070471FB527
:100370001FBD10B510BD00F0B3F91146FFF7F7FF30
:1003800002F0BEF800F0D1F903B4FFF7F2FF03BCAE
:1003900001F0B8FF08480047FEE7FEE7FEE7FEE78A
:1003A000FEE7FEE7FEE7FEE7FEE7FEE70348044957
:1003B000024A044B704700009902000840AE002436
:1003C00040B6002440AE002470B50446856900683C
:1003D000C10601D5302600E02026C00707D070BD39
:1003E000D4E9012130469047206A401C20626D1EEE
:1003F000F6D570BD70B5044685690078C00707D191
:1004000070BDD4E9012120209047206A401C206261
:100410006D1EF6D570BD70B50C460546012A05D097
:100420002878800600D5EA69002302E0012305E070
:100430005B1C934202D2E05C0028F9D1A869E6185F
:10044000C01AA861286A184428622846FFF7BCFF32
:1004500004E0D5E9012114F8010B9047B442F8D328
:100460002846FFF7C7FF70BD2DE9F041064600247E
:1004700010687529314616A510D0AFF3008000280A
:1004800002DA404213A507E031688A0701D512A5B8
:1004900002E0490704D511A5012401E0AFF3008073
:1004A00000210A2206F1240709E0B0FBF2FCB0FBB0
:1004B000F2F302FB1C00303078541846491C002827
:1004C000F3D123462A463046BDE8F04100F06BB830
:1004D000000000002D0000002B00000020000000A4
:1004E00070B504460D4621461068AFF300802188A0
:1004F000090502D50F4A7A4402E00E4A7A440E32C8
:10050000002104F1240305E000F00F060009965DC8
:100510005E54491C0028F7D120780023000704D539
:10052000702D02D009B1022311322046BDE870407F
:1005300000F039B8022400004FF0013C50F8042BC1
:1005400051F8043B9A4215D1A2EB0C03934313EAF2
:10055000CC130BD150F8042B51F8043B9A4209D12B
:10056000A2EB0C03934313EACC13E7D04FF0000047
:10057000704700BFD01A01BAB1FA81F101F0180139
:1005800022FA01F0CB40C1F12001DBB2C0B2C01AA7
:100590002CFA01F3D11A914311EAC311E6D1704745
:1005A0007047704770472DE9F0470D4699469246CF
:1005B000044600F124080168880604D5E06921F0AA
:1005C0001001216000E00120A84201DD471B00E08E
:1005D0000027A1697A1902EB0900081AA0612078A6
:1005E000C00602D42046FFF7EFFE002608E0D4E95B
:1005F00001211AF806009047206A401C761C2062F0
:100600004E45F4DB2078C0060AD52046FFF7DCFE15
:1006100006E0D4E9012130209047206A401C206286
:10062000381EA7F10107F4DC07E0D4E9012118F82E
:1006300005009047206A401C2062281EA5F1010594
:10064000F3DC2046FFF7D6FE2078000602D5022014
:10065000BDE8F0870120FBE701694A1C02610878C8
:10066000704700B58FB0CDE90131002105910549F2
:100670007944CDE903101146684600F05FF80FB0E9
:1006800000BD0000E5FFFFFF10B5436913B1AFF3F4
:10069000008001E0FFF7BFFE012010BD127800F1DD
:1006A00024010A7000224A700122EDE711684FF020
:1006B000FF32E9E7074B70B50D467B44FFF7D1FFEA
:1006C0000446284600F03FF810B14FF0FF3070BDEF
:1006D000204670BD731D000000487047DCAD00244B
:1006E0007546FFF7F9FFAE4605006946534620F010
:1006F0000700854618B020B5FFF758FEBDE820403A
:100700004FF000064FF000074FF000084FF0000BCD
:1007100021F00701AC46ACE8C009ACE8C009ACE880
:10072000C009ACE8C0098D46704710B50446AFF368
:1007300000802046BDE81040FFF726BE40F2651C51
:10074000C9F2000C604740F2234CC9F2000C60472C
:1007500042F6E15CC9F2000C604743F2E91CC9F2C1
:10076000000C604740F62D4CC9F2010C604740F682
:10077000692CC9F2010C604740F6A51CC9F2010CB6
:10078000604740F6554CC9F2010C604740F6ED3C1D
:10079000C9F2010C604748F2B12CC9F2000C604765
:1007A00048F21D2CC9F2000C604740F23D1CC9F212
:1007B000000C604740F2ED2CC9F2000C604745F296
:1007C000991CC9F2000C60474AF2E53CC9F2000CE2
:1007D000604749F2110CC9F2000C60474AF2355CDF
:1007E000C9F2000C604749F23D0CC9F2000C6047A9
:1007F00044F6856CC9F2000C604744F6716CC9F28E
:10080000000C604745F2B90CC9F2000C604749F290
:10081000D15CC9F2000C604749F2A16CC9F2000C2E
:1008200060474AF2353CC9F2000C604745F2494C3A
:10083000C9F2000C604740F2251CC9F2000C604769
:100840004CF2BD4CC9F2000C604748F26D3CC9F255
:10085000000C60474CF61D1CC9F2000C604741F6C5
:100860005D6CC9F2000C60474CF6413CC9F2000CCB
:10087000604748F6735CC9F2000C604745F6050C0A
:10088000C9F2000C604740F2C90CC9F2010C604784
:100890004CF24D5CC9F2000C604741F6897CC9F20C
:1008A000000C60474CF6BD4CC9F2000C60474CF69A
:1008B000594CC9F2000C604748F6816CC9F2000C33
:1008C000604740F2090CC9F2000C604741F6794CD0
:1008D000C9F2000C604749F6B13CC9F2000C604710
:1008E00041F6AD4CC9F2000C604740F2110CC9F260
:1008F000000C604749F6ED0CC9F2000C604741F668
:10090000453CC9F2000C604749F69D2CC9F2000C29
:10091000604741F6214CC9F2000C604749F2356C42
:10092000C9F2000C60474BF6C14CC9F2000C60479D
:1009300045F2410CC9F2000C604740F2A91CC9F213
:10094000010C604710B501F09DFB01F04DFB034821
:10095000006840F004000149086010BD9CEF00E011
:100960000348006840F0010001490860704700003A
:100970002004005810B5044604480068204020B107
:10098000024804602046FFF7E3FE10BD88000058CF
:10099000F8B502460B460021002600240020824DB7
:1009A00000BFFCE0012707FA01F61F6807EA06040A
:1009B000B4427CD15F68022F02D05F68122F1AD137
:1009C0004FEAD10C02F1200757F82C004F074FEAED
:1009D000D76C0F2707FA0CF7B8434FEA417C4FEA70
:1009E000DC6C1F6907FA0CF738434FEAD10C02F1AF
:1009F000200747F82C0010684FEA410C032707FA3C
:100A00000CF7B8431F7907F003074FEA410C07FAC8
:100A10000CF7384310605F68012F08D05F68022F21
:100A200005D05F68112F02D05F68122F17D1906830
:100A30004FEA410C032707FA0CF7B8434FEA410C81
:100A4000DF6807FA0CF738439060506801278F4041
:100A5000B8431F79C7F300178F4038435060D06800
:100A60004FEA410C032707FA0CF7B8434FEA410C51
:100A70009F6807FA0CF73843D0605F6807F080572B
:100A8000B7F1805F95D100BF484F3F6847F002073C
:100A9000DFF818C1CCF8007067463F6807F002071E
:100AA000009700BF00BF424F4FEA910C00E075E095
:100AB00057F82C008F074FEA177C0F2707FA0CF71F
:100AC000B8433C4FBA4201D100272DE03A4FBA4219
:100AD00001D1012728E0394FBA4201D1022723E092
:100AE000374FBA4201D103271EE0364FBA4201D137
:100AF000042719E0344FBA4201D1052714E0334FDF
:100B0000BA4201D106270FE0314FBA4201D107277F
:100B10000AE0304FBA4201D1082705E02E4FBA4211
:100B200001D1092700E00A274FEA817C4FEA1C7CAB
:100B300007FA0CF738431E4F4FEA910C47F82C0088
:100B40002868A0435F6807F48037B7F5803F00D17D
:100B5000204328606868A0435F6807F40037B7F552
:100B6000003F00D1204368604FF0B0473868A04391
:100B70005F6807F48017B7F5801F00D120434FF05E
:100B8000B04738607868A0435F6807F40017B7F58E
:100B9000001F00D120434FF0B0477860491C102956
:100BA000FFF400AFF8BD000080000058F444025884
:100BB00008040058000002580004025800080258B7
:100BC000000C025800100258001402580018025875
:100BD000001C0258002002580024025802461369E3
:100BE0000B400BB1012000E00020704742694A40F1
:100BF000426170470AB1018300E041837047000001
:100C000001480068704700001C0000240348006889
:100C10000349097808440149086070471C00002412
:100C20002400002410B5052000F0E2F80F2000F0A9
:100C300007F808B1012010BD00F08CF80020FAE799
:100C400070B504460E4800784FF47A71B1FBF0F0AD
:100C50000C490968B1FBF0F5284600F0F7FE08B131
:100C6000012070BD102C07D200222146501E00F03A
:100C700082F80548046001E00120F2E70020F0E777
:100C80002400002400000024200000244178154A9C
:100C900011600178F9B1121D41681160017B0907EB
:100CA000C27A41EA0261827A41EAC241427B41EA68
:100CB0008241827B41EA4241C27B41EA0241427A5F
:100CC00041EA0221027A41EA420102781143054ACF
:100CD0000832116005E00021024A121D1160121D48
:100CE0001160704798ED00E000BF00BF00BFBFF388
:100CF0005F8F00BF00BF00BF0548006820F4803050
:100D00000349086000200249703108607047000004
:100D100024ED00E040F001010D4A11600C497039EA
:100D2000096841F480310A4A703A116000BF00BF7F
:100D300000BFBFF34F8F00BF00BF00BF00BF00BFA9
:100D400000BFBFF36F8F00BF00BF00BF7047000040
:100D500094ED00E0704701460846002809DB00F0EA
:100D60001F0301229A4043099B0003F1E023C3F8CB
:100D7000002100BF70472DE9F05F80460D46164602
:100D800001F0A4FA074639462A46334601F0070027
:100D9000C0F1070ABAF1040F02D94FF0040A01E0CA
:100DA000C0F1070AD14600F1040ABAF1070F02D2D6
:100DB0004FF0000A01E0A0F1030AD4464FF0010A07
:100DC0000AFA09FAAAF1010A0AEA020A0AFA0CFA6C
:100DD0004FF0010B0BFA0CFBABF1010B0BEA030B11
:100DE0004AEA0B042146404601F078FABDE8F09F3C
:100DF00000BF00F00702064B19684FF6FF031940C9
:100E0000044B0B4343EA0221014B196000BF7047BA
:100E10000CED00E00000FA0570B504460D46002612
:100E20008D48006800F00700A8420ED28A4800688A
:100E300020F007002843884908600846006800F051
:100E40000700A84201D0012070BD207800F0020008
:100E5000022807D18148006820F00F00E1680843AC
:100E60007E490860207800F00100002851D07B48BE
:100E7000006820F47060A1680843784908606068E1
:100E8000022807D1754818380068C0F34040F8B907
:100E90000120D9E76068032807D170481838006836
:100EA000C0F34060A0B90120CEE76068012807D1F7
:100EB0006A4818380068C0F3002048B90120C3E729
:100EC000664818380068C0F3800008B90120BBE705
:100ED00062480838006820F00700616808435F49ED
:100EE00008390860FFF78CFE06466068022811D1B9
:100EF00008E0FFF785FE801B41F28831884201D966
:100F00000320A1E755480838006800F03800102891
:100F1000EFD13AE06068032811D108E0FFF770FED6
:100F2000801B41F28831884201D903208CE74B486D
:100F30000838006800F038001828EFD125E0606814
:100F4000012811D108E0FFF75BFE801B41F28831D8
:100F5000884201D9032077E740480838006800F04C
:100F600038000828EFD110E008E0FFF749FE801BA9
:100F700041F28831884201D9032065E737480838B3
:100F8000006800F038000028EFD13348006800F016
:100F90000700A8420ED93048006820F00700284317
:100FA0002D4908600846006800F00700A84201D0FB
:100FB000012049E7207800F00400042807D12748E1
:100FC000006820F0700021690843244908602078F7
:100FD00000F00800082809D12048001D006820F012
:100FE0007000616908431D49091D0860207800F000
:100FF0001000102809D11948001D006820F4E06095
:10100000A16908431549091D0860207800F02000F7
:10101000202809D111480830006820F07000E169EB
:1010200008430E490831086000F066F80B4909686A
:1010300001F470614FF4807292FAA2F2B2FA82F275
:10104000D140074A515CC840064908600F20FFF7AD
:10105000F7FD0020F8E60000002000521844025876
:10106000EC2800080000002410B5FFF776FB0949C2
:10107000096801F00F01012292FAA2F2B2FA82F29B
:10108000D140054A515CC8400449086008460068E0
:1010900010BD000018440258EC2800080400002489
:1010A00010B5FFF7E1FF0749096801F07001102250
:1010B00092FAA2F2B2FA82F2D140034A515CC840DD
:1010C00010BD00001C440258EC28000810B5FFF7C2
:1010D000CBFF0749096801F4E0614FF4807292FA8E
:1010E000A2F2B2FA82F2D140024A515CC84010BD6D
:1010F0001C440258EC2800082DE9F04F85B001256A
:101100000026012400274FF00008002004900390DF
:1011100002908F48006800F0380030B1082816D0DF
:10112000102817D018287CD117E08948103800689B
:10113000C0F3401040B1864810380068C0F3C101C8
:101140008448C840029001E082480290FAE0824858
:101150000290F7E081480290F4E07D481830006882
:1011600000F003067A4818300068C0F30514784888
:101170001C30006800F00107754924310968C1F38B
:10118000CC0111FB07F0FFF7EDFA049026B1012E18
:1011900057D0022E78D178E06D4810380068C0F33F
:1011A000401048B36A4810380068C0F3C10169486C
:1011B00020FA01F84FF08C410498FFF7D8FA6449FF
:1011C000203101900968C1F30800FFF7CBFA0090C5
:1011D0000199FFF7D1FA83464FF07E51FFF7CCFA21
:1011E0008146B8FBF4FB5846FFF7BCFA82464946F5
:1011F000FFF7C7FA039023E04FF08C410498FFF704
:10120000B6FA5349203101900968C1F30800FFF78D
:10121000A9FA00900199FFF7AFFA83464FF07E518B
:1012200000E08CE0FFF7A8FA81464A48B0FBF4FBE7
:101230005846FFF797FA82464946FFF7A2FA03900D
:1012400069E04FF08C410498FFF791FA4049203152
:1012500001900968C1F30800FFF784FA0090019932
:10126000FFF78AFA83464FF07E51FFF785FA8146F1
:101270003948B0FBF4FB5846FFF774FA82464946FA
:10128000FFF77FFA039046E022E04FF08C4104988C
:10129000FFF76DFA2E49203101900968C1F308006B
:1012A000FFF760FA00900199FFF766FA83464FF066
:1012B0007E51FFF761FA81462848B0FBF4FB58469F
:1012C000FFF750FA82464946FFF75BFA039022E0A7
:1012D0004FF08C410498FFF74AFA1D4920310190E4
:1012E0000968C1F30800FFF73DFA00900199FFF784
:1012F00043FA83464FF07E51FFF73EFA8146164887
:10130000B0FBF4FB5846FFF72DFA82464946FFF73B
:1013100038FA039000BF00BF0D4820300068C0F3CA
:101320004620451C2846FFF71DFA82465146039881
:10133000FFF71DFA8146FFF729FA029002E00648FE
:10134000029000BF00BF029805B0BDE8F08F00001A
:10135000104402580090D00300093D0040787D0100
:1013600070B504460025207800F00100002872D0F6
:10137000F948006800F0380010280CD0F6480068E2
:1013800000F03800182812D1F3481830006800F037
:10139000030002280BD1F04810380068C0F3404029
:1013A00000286DD0606800286AD1012070BD00BFA0
:1013B0006068B0F5803F08D1E7481038006840F415
:1013C0008030E549103908602EE0606868B9E2486D
:1013D0001038006820F48030DF4910390860084672
:1013E000006820F4802008601EE06068B0F5A02F3F
:1013F0000DD1D9481038006840F48020D649103902
:1014000008600846006840F4803008600CE0D2486C
:101410001038006820F48030CF4910390860084641
:10142000006820F48020086000BF6068A0B1FFF76A
:10143000E7FB054608E0FFF7E3FB401B41F288317C
:10144000884201D90320B1E7C34810380068C0F3CF
:1014500040400028EFD013E0FFF7D2FB054608E03C
:10146000FFF7CEFB401B41F28831884201D90320AF
:101470009CE7B94810380068C0F340400028EFD11D
:10148000207800F00200022847D1B348006800F03D
:10149000380058B1B048006800F0380018283ED134
:1014A000AD481830006800F00300B8BBAA481038F7
:1014B0000068C0F3800018B1E06808B9012075E742
:1014C000A5481038006820F01900E1680843A249D7
:1014D00010390860FFF794FB054606E0FFF790FB24
:1014E000401B022801D9032060E79B4810380068A0
:1014F000C0F380000028F1D097480C38006820F431
:101500007C304FF47C3292FAA2F2B2FA82F2216974
:101510009140084390490C3908604AE0FFE7E068D1
:1015200068B38D481038006820F01900E16808435E
:10153000894910390860FFF763FB054606E0FFF7AD
:101540005FFB401B022801D903202FE78248103897
:101550000068C0F380000028F1D07F480C38006894
:1015600020F47C304FF47C3292FAA2F2B2FA82F28A
:1015700021699140084378490C39086019E07648A0
:101580001038006820F00100734910390860FFF737
:1015900037FB054606E0FFF733FB401B022801D965
:1015A000032003E76C4810380068C0F3800000286F
:1015B000F1D1207800F01000102877D1664800683B
:1015C00000F0380008280CD06348006800F03800AC
:1015D000182823D160481830006800F00300012863
:1015E0001CD15D4810380068C0F3002020B1E069CC
:1015F000802801D00120D9E657480C38006820F037
:10160000F8404FF0F84292FAA2F2B2FA82F2216A5E
:101610009140084350490C39086047E0E06958B3ED
:101620004D481038006840F080004B491039086080
:10163000FFF7E6FA054606E0FFF7E2FA401B02284C
:1016400001D90320B2E6444810380068C0F30020F6
:101650000028F1D040480C38006820F0F8404FF0E6
:10166000F84292FAA2F2B2FA82F2216A9140084359
:1016700039490C39086019E037481038006820F003
:101680008000354910390860FFF7BAFA054606E0D0
:10169000FFF7B6FA401B022801D9032086E62E4840
:1016A00010380068C0F300200028F1D1207800F045
:1016B0000800082836D16069D0B127486430006836
:1016C00040F00100244964310860FFF799FA0546AB
:1016D00006E0FFF795FA401B022801D9032065E6D2
:1016E0001D4864300068C0F340000028F1D019E0C4
:1016F00019486430006820F001001749643108601F
:10170000FFF77EFA054606E0FFF77AFA401B02284B
:1017100001D903204AE6104864300068C0F3400055
:101720000028F1D1207800F02000202834D1A069D1
:10173000D8B109481038006840F480500649103983
:101740000860FFF75DFA054608E0FFF759FA401B0D
:10175000022803D9032029E610440258AF48006844
:10176000C0F340300028F0D016E0AC48006820F408
:101770008050AA490860FFF743FA054606E0FFF7E4
:101780003FFA401B022801D903200FE6A348006856
:10179000C0F340300028F2D1207800F00400042883
:1017A0007DD19F48006840F480709D490860FFF734
:1017B00027FA054606E0FFF723FA401B642801D903
:1017C0000320F3E59648006800F480700028F2D00A
:1017D00000BFA068012808D190487030006840F030
:1017E00001008E49703108602DE0A06868B98B480F
:1017F0007030006820F001008849703108600846A8
:10180000006820F0040008601DE0A06805280DD1E4
:1018100082487030006840F00400804970310860F0
:101820000846006840F0010008600CE07B4870301A
:10183000006820F0010079497031086008460068AE
:1018400020F00400086000BFA068A0B1FFF7D8F93D
:10185000054608E0FFF7D4F9401B41F28831884281
:1018600001D90320A2E56D4870300068C0F3400044
:101870000028EFD013E0FFF7C3F9054608E0FFF7B3
:10188000BFF9401B41F28831884201D903208DE520
:10189000624870300068C0F340000028EFD1606AF1
:1018A00000287CD05D481030006800F0380018280F
:1018B00076D0606A022874D15848006820F08070A1
:1018C00056490860FFF79CF9054606E0FFF798F9CE
:1018D000401B022801D9032068E550480068C0F386
:1018E00040600028F2D100BFD4E90A1041EA00109C
:1018F0004A492831096840F2F33291430843474985
:1019000028310860208E401EC0F30800616B491E1C
:101910004FF47E4202EA41210843218F491ED20141
:1019200002EA014108433C21095D491E120202EA14
:101930000161084339493031086000BF081D006863
:101940004FF6F87188434FF6F87292FAA2F2B2FAA3
:1019500082F2A16C914008433049343108602F482D
:101960002C30006820F00C00216C08432B492C31EE
:1019700008600846006820F00200616C08432749AF
:101980002C3108600846006840F480300860084642
:10199000006840F4003008600846006802E03BE060
:1019A00038E01FE040F4802008600846006840F0FE
:1019B000010008601948006840F08070174908600D
:1019C000FFF71EF9054606E0FFF71AF9401B02284B
:1019D00001D90320EAE411480068C0F34060002800
:1019E000F2D019E00D48006820F080700B490860C3
:1019F000FFF706F9054606E0FFF702F9401B02284B
:101A000001D90320D2E405480068C0F340600028F3
:101A1000F2D101E00120C9E40020C7E400440258EB
:101A200000480258042808D14FF0E021096941F02C
:101A300004014FF0E022116107E04FF0E021096955
:101A400021F004014FF0E0221161704770B50446A7
:101A50002546681EB0F1807F01D301200FE0681E8B
:101A60004FF0E02148610F214FF0FF3000F036FCCD
:101A700000204FF0E021886107200861002070BD40
:101A800010B586B004464149206888423BD100BF6A
:101A90003F48006840F001003D4908600846006882
:101AA00000F00100009000BF00BF00BF38481030B8
:101AB000006840F0100036491031086008460068A0
:101AC00000F01000009000BF00BF4FF400700190C4
:101AD000022002900120039002200490072005902C
:101AE00001A92C48FEF754FF4FF48060019001A932
:101AF0002848FEF74DFF2520FFF72DF90322114658
:101B00002520FFF738F92449206888423BD100BFDF
:101B10001F48006840F002001D4908600846006840
:101B200000F00200009000BF00BF00BF184808305E
:101B3000006840F4802016490831086008460068B3
:101B400000F48020009000BF00BF4FF4806001903F
:101B500002200290012003900220049007200590AB
:101B600001A90E48FEF714FF4FF40060019001A98F
:101B70000A48FEF70DFF2720FFF7EDF80322114674
:101B80002720FFF7F8F806B010BD00000010014054
:101B9000E044025800000258004800400004025887
:101BA0003B4A0168914236D13A49098801F4004123
:101BB00089BB3849098801F4804171B136490978F7
:101BC0000A2903D00021334A118024E031490988D1
:101BD00041F400412F4A11801DE02F4909780D2959
:101BE00006D12C49098841F480412A4A118012E02B
:101BF00029490978274A1288C2F30D02274B9954C4
:101C000024490988491C234A118011460988C7299B
:101C100001DD00211180224A0168914236D121491B
:101C2000098801F4004189BB1E49098801F48041FB
:101C300071B11D4909780A2903D00021194A118080
:101C400024E01849098841F40041164A11801DE03A
:101C5000154909780D2906D11249098841F48041B6
:101C6000104A118012E0104909780E4A1288C2F316
:101C70000D020E4B99540B490988491C094A1180E1
:101C800011460988C72901DD002111807047000035
:101C9000001001401400002416000024F813002452
:101CA00000480040180000241A00002440150024B9
:101CB00088B0012400BF2EA020210B46CA00CDE928
:101CC00000108C214FF4A570FEF765FD4FE04FF03A
:101CD0008040406A10BB002C40D001212948FEF70B
:101CE00085FF20200090284806238C2102684FF4AD
:101CF0001970FEF755FD244824A1026802A8FEF7DA
:101D000054FD02A8FEF756FD85B24FF47A732A46B9
:101D100002A92248FEF753FD00241FE001211948C3
:101D2000FEF764FF202000904006426A06238C21C3
:101D30004FF41970FEF734FD0124A007426A13A185
:101D400002A8FEF732FD02A8FEF734FD85B24FF47B
:101D50007A732A4602A91148FEF731FD07A800212F
:101D600064230A46CDE900100846FEF72DFDAEE7D4
:101D7000504C55535F4E554D2E6E756D6265723DDC
:101D800000000000000402583C0000247B706C75C9
:101D9000733A222564227D0D0A00000008160024F3
:101DA00030B585B00024874D8748006840F00200B8
:101DB000854908600846006840F0200008608248B5
:101DC0000C38006840F480407F490C39086040209E
:101DD00000900220019003200390002002900A202E
:101DE000049069467948FEF7D3FD0420009009204D
:101DF000049069467548FEF7CBFDC020009009208D
:101E0000049069467248FEF7C3FD4FF4407000909D
:101E10000A20049069466E48FEF7BAFD6A486438A5
:101E2000006840F4804068496439086008460068EA
:101E300020F48040086000BF62482038806800F0CD
:101E400020000028F8D163485E49203908606248C4
:101E500048600846006840F00100086000BF59482B
:101E60002038806800F020000028F8D14FF49C70E2
:101E700054492039486100BF52482038806800F03A
:101E800002000028F8D04F482038C06840F0020017
:101E90004C492039C86000BF4A482038806800F0AB
:101EA00020000028F8D14FF483704649203948615A
:101EB00000BF44482038806800F002000028F8D0B5
:101EC00040482038C06840F002003E492039C860D0
:101ED00000BF3C482038806800F020000028F8D17E
:101EE0003E483849203948610020086100BF354824
:101EF0002038806800F004000028F8D030202870D6
:101F000030482038006840F004002E49203908602D
:101F100000BF2C482038806800F002000028F8D06C
:101F200028482038C06840F0020026492039C8609F
:101F300000BF24482038806800F020000028F8D135
:101F400000BF20482038806800F020000028F8D129
:101F50001C492039C861EB2444F4407444F44064C3
:101F600044F4005444F4404400BF44F4C01444F02A
:101F7000407444F04064084644611948006820F405
:101F800080301749086016487030006820F0010062
:101F90001349703108600020091D08604FF010409F
:101FA000091D08600F48091D086005200C497031A3
:101FB00008600B48006840F480300949086005B0AB
:101FC00030BD000020500052E04402580004025886
:101FD000001402581003000101041600C00300039E
:101FE00024ED00E02D00030310B50023234C2360F3
:101FF00000BF00BF00BFBFF34F8F00BF00BF00BFD7
:10200000231F1868C0F34E3100BFC0F3C90200BFE0
:1020100043F6E07303EA41134FF0404404EA82744C
:102020002343174C236000BF00BF131EA2F101021F
:10203000EED10B1EA1F10101E7D100BF00BF00BF2F
:10204000BFF34F8F00BF00BF00BF0C4B703B1B683E
:1020500043F48033094C703C236000BF00BF00BFD5
:10206000BFF34F8F00BF00BF00BF00BF00BF00BF66
:10207000BFF36F8F00BF00BF00BF10BD84ED00E055
:1020800060EF00E000BF00BF00BFBFF34F8F00BF95
:1020900000BF00BF00BF00BF00BFBFF36F8F00BF16
:1020A00000BF00BF00201449086000BF00BF00BF90
:1020B000BFF34F8F00BF00BF00BF00BF00BF00BF16
:1020C000BFF36F8F00BF00BF00BF0C48006840F433
:1020D00000300A49086000BF00BF00BFBFF34F8F48
:1020E00000BF00BF00BF00BF00BF00BFBFF36F8FC6
:1020F00000BF00BF00BF704750EF00E014ED00E0EC
:102100002DE9F0419CB080460C4615461E4600273E
:102110003848006820F004003649086000BF0020FD
:10212000009034480C30006840F4404031490C3194
:1021300008600846006800F44040009000BF00BFFF
:1021400000BF2C480C30006800F40050B0F5005F70
:10215000F7D1012001900004029000200490089023
:1021600002200A9002210B91CDF834800C940E9538
:102170000F96002112910821119101A8FFF7F0F8A4
:1021800007461FB101201CB0BDE8F081FFF708FE33
:102190003F201490032015900020169008201790DF
:1021A0004020199000011A904020189050201B9058
:1021B000022114A8FEF730FE07460FB10120E2E726
:1021C0000D48006840F080000B49086000BF0A48D5
:1021D000F430006840F002000749F4310860084616
:1021E000006800F00200009000BF00BFFEF7B8FBDF
:1021F0000020C8E70C4802580044025810B5FEF70A
:1022000005FD05480078012805D1FEF7E2FAFEF742
:10221000E5FAFEF7E8FA10BD9400002470B500243A
:10222000114DFEF7D6FA1148FEF7E2FA00BF03E0BF
:10223000641CAC4200D904E00C48FEF7DEFA20280A
:10224000F6D100BF002403E0641CAC4200D906E0D4
:10225000012207490548FEF7D5FA0028F4D100BF4E
:10226000FEF7C1FA70BD0000FFFF0100C01400249A
:102270001600002470B50024114DFEF7AAFA11488B
:10228000FEF7B6FA00BF03E0641CAC4200D904E0DC
:102290000C48FEF7B2FA2028F6D100BF002403E074
:1022A000641CAC4200D906E0012207490548FEF74C
:1022B000A9FA0028F4D100BFFEF795FA70BD00001E
:1022C000FFFF0100081600241A00002402480068DD
:1022D000C0F30220704700000CED00E010B50028AC
:1022E00004DB0A07130E054A135406E00A07140E0E
:1022F000034A00F00F031B1FD45410BD00E400E09C
:1023000018ED00E000BF704770B504460420FFF7E9
:1023100089FB1048046025460F4800680F49B1FB4F
:10232000F0F045430C4800684FF47A71B1FBF0F0CF
:102330000B4908804FF0E020006940F002004FF0A8
:10234000E021086108464561006940F0010008612C
:1023500070BD0000080000242C57019040420F007F
:102360000C00002470B504460F480078A0B10F4857
:10237000007888B90E480088844206DB0C48008843
:1023800094FBF0F5284600F01FF80948008894FBFC
:10239000F0F100FB114084B24FF47A7104FB01F0BC
:1023A00000F01AF870BD0000940000248C00002496
:1023B0000C00002408B56846FEF729FA08BD08B5E8
:1023C0006846FEF729FA08BD38B504466A46082172
:1023D0002046FEF726FA38BD2DE9F04707460026CD
:1023E0004FF0E020D0F814901048006807FB00F888
:1023F000FFF7E0FF4FF0E020856911E04FF0E020AB
:102400008469AC420CD0AC4202D2281B064403E0E3
:10241000A9EB0400284406442546464500D300E0C5
:10242000ECE700BFFFF7CBFFBDE8F0870800002412
:1024300000BF054AD26902F04002002AF9D0C2B2B8
:10244000014B1A85704700000010014086B024A29D
:1024500007CA02AB07C342E00120FEF7E7F90446D2
:10246000012C0FD1224621A102A8FEF79EF94FF4BC
:102470007A73092202A92048FEF7A1F902A91FA038
:10248000FEF7D9F9022C0FD1224618A102A8FEF7B7
:102490008CF94FF47A73092202A91748FEF78FF9D5
:1024A00002A916A0FEF7C7F9032C0FD122460FA1EF
:1024B00002A8FEF77AF94FF47A73092202A90E48AE
:1024C000FEF77DF902A90DA0FEF7B5F905A80021D8
:1024D00001230A46CDE900100846FEF775F9BBE76F
:1024E0006B65796C6F76650D0A0000007B226B22AC
:1024F0003A25647D0D0A00000816002425730000AB
:1025000010B58AB00024FEF71DFA04204A4908607D
:10251000FEF788FB042302220521A020FFF7F0FD2F
:102520004FF4C870FFF7F0FE4FF4E13000F08AF985
:102530004FF4E13000F06AF9FEF782F9FEF785F911
:10254000FEF788F9FEF78BF9FEF78EF9FEF791F9A1
:10255000FEF794F9C820FEF796F9FEF799F90020E6
:1025600003230522012100901620FEF796F94FF46F
:1025700078403249086032A010210B46C822CDE9CC
:10258000001032211E20FEF706F932A010210B4662
:10259000C822CDE9001046211E20FEF7FCF833A02A
:1025A00010210B46C822CDE900105A211E20FEF74B
:1025B000F2F832A010210B46C822CDE900106E219E
:1025C0001E20FEF7E8F84FF47A70FEF76BF9FEF77D
:1025D0006EF909A8FEF770F900BF00BFFEF771F9A8
:1025E000044600BFFEF772F900BF09A803210022CC
:1025F0000592CDE906210890104680210C22224B3D
:10260000CDE90132CDE903100B2000231F4A20A1A0
:1026100000902248FEF75FF900BFFEF761F900BFA6
:102620002046FEF762F900BF00BF09A8FEF762F975
:1026300000200AB010BD00009CEF00E0280000243C
:10264000504F4C4152495320483735302F4637358B
:102650003000000054435020436C69656E7420556F
:10266000434F5349494920546573740041544F4DB9
:1026700040414C49454E54454B0000003230313901
:102680002F352F3133000000680C0024A1260008EC
:102690007374617274207461736B0000A00B00246A
:1026A00030B58BB00446002500BFFEF728F90AA814
:1026B000FEF72AF9FEF72DF90AAA01210846FEF7CE
:1026C0002DF900BF00BFFEF7FCF8054600BFFEF77E
:1026D000FDF800BF0AA8032100220592CDE90621DA
:1026E0000890104680210C222F4BCDE90132CDE914
:1026F0000310092000232D4A2DA100902F48FEF73A
:10270000EAF80AA8032100220592CDE906210890E3
:10271000104680210C222A4BCDE90132CDE903106D
:1027200008200023274A28A100902A48FEF7D3F862
:102730000AA8032100220592CDE90621089010463F
:1027400080210C22244BCDE9013200230092CDE9F7
:102750000310224A22A12548FEF7BDF80AA803214A
:1027600000220592CDE906210890104680210C2216
:102770001F4BCDE90132CDE903100D2000231D4A86
:102780001DA100901F48FEF7A6F80AA91E48FEF7F3
:10279000CAF800BFFEF7A4F800BF2846FEF7A5F868
:1027A00000BF00BF0BB030BDD80600247D28000854
:1027B0006C656430207461736B00000010060024A7
:1027C000100400244D2400086B6579207461736B3C
:1027D0000000000048030024300F0024B11C000852
:1027E000504C55535F53484F57000000680E00246B
:1027F000F8110024ED0500904175746F5F72756EDD
:10280000696E670030110024A00B002410B5044647
:1028100009480A4908600846446000218160C16097
:10282000016181610C214161FEF782F801220449B6
:102830000248FDF7E7FF10BD0048004008160024DD
:102840001A00002410B5044609480A4908600846E1
:10285000446000218160C160016181610C2141619E
:10286000FEF766F8012204490248FDF7CBFF10BDD0
:1028700000100140C0140024160000240EB50024EE
:1028800017E02046611CCCB2142804D1022109486B
:10289000FEF7ACF90024084908698047FEF74DF8B7
:1028A00002A8002164230A46CDE900100846FDF77E
:1028B0008BFFE6E700040258340200240100020006
:1028C0000400060008000A000C0010002000400070
:1028D00080000001010002000400060008000A0058
:1028E0000C001000200040008000000100000000EB
:1028F00001020304010203040607080930313233E0
:102900003435363738394142434445464030580023
:102910003031323334353637383961626364656655
:1029200040307800442900080000002448030000DB
:10293000D4020008E029000848030024F8B200008F
:1029400030030008113C90D00304011732105301EA
:10295000012AFF018103FE871305411459019002EA
:102960001EC003226E191A98881AAC041AB4041AED
:10297000A0041ABC041A9C041AA40413C1ED180B79
:1029800090785A01902507019030081365231B08A1
:1029900090081AD9081AA80813C1C51B9054081327
:1029A00045C61B90D83013FDEC1B90C0081AB10827
:1029B0001AF0081B75C91019201315EE1B901C087E
:1029C0001A31081A080813DC011324C915019005EF
:1029D000F91B90B5041AED0C220B02DC01021F0951
:0200000490006A
:1000000072B6704762B67047EFF3108072B67047F1
:1000100080F31088704730BF704720BF7047B0FA38
:1000200080F0704790FAA0F0B0FA80F0704790FA34
:10003000A0F0704753EA020C00F069802DE9F04B04
:100040004FF00006002B1FBFB3FA83F503FA05F447
:1000500024FA05F65E4012BF1643B2FA82F502FAA0
:1000600005F4C5F120051EBF22FA05FC44EA0C0484
:10007000203556EA044C4FEA144418BF641C4FF074
:1000800000084FF00009904271EB030C39D30029AE
:1000900019BFB1FA81F701FA07F6B0FA80F700FA52
:1000A00007F6C7F120071EBF20FA07FC46EA0C0638
:1000B0002037B6FBF4FCA7EB0507103F07F01F0B3A
:1000C000CBF120060CFA0BFB2CFA06F644BFB34624
:1000D0000026202FA4BF5E464FF0000B5BEA060C03
:1000E00008BF4FF0010B19EB0B09ABFB027C48EB8F
:1000F0000608C01B06FB02CC0BFB03CC71EB0C010A
:10010000C1E70B46024641464846BDE8F08B13B5B1
:100110004FF000004FF00001AFF30080BDE81C403D
:10012000704700000FB4044910B503AA029800F00C
:10013000EFF910BC5DF814FB100000240FB41CB5DF
:10014000074B06AA7B4469460090059800F0E5F944
:100150000020694600F060F91CBC5DF814FB00004B
:10016000D10200002DE9F05F894604464FF0000AF5
:10017000DFF874B1FB44C0F820A02046E16888474E
:10018000002874D0252806D0D4E901219047206AA0
:10019000401C2062F1E700265F462046E168884760
:1001A0002028054607DB312D05D2781910F8200CE0
:1001B00008B10643F1E7B00701D526F00406C4F8FC
:1001C0001CA00027C4F818A02A2D09D028460DF03D
:1001D000CEFE38B304EB8708303DC8F8185019E05C
:1001E00059F8041B204604EB87029161E1688847B7
:1001F000012F054618D1E069002820DA26F02006F4
:100200001DE0D8F8180000EB800005EB4000303806
:10021000C8F818002046E168884705460DF0A7FE9B
:100220000028EED1012F0AD02E2D08D12046E168FA
:1002300088477F1C0546022F46F02006C4DBA069D4
:10024000002803DA404246F00106A061F00701D021
:1002500026F010066C2D0BD0682D09D04C2D39D00E
:100260006A2D35D0742D35D07A2D33D016E038E094
:10027000E1682F4620468847B842054609D16C2FD1
:1002800026D04FF48060E168064320468847054643
:1002900004E06C2F1AD04FF4807006430DB3A5F123
:1002A0004100192802D8203546F400664A462946FE
:1002B000204626604E4600F035F980B101280BD06B
:1002C000F61D26F0070000F1080956E74020E4E794
:1002D0008020D8E70020D6E706F104094DE728463C
:1002E00052E7206ABDE8F09F8857010010B5431C13
:1002F00002E010F8011B71B18107FAD14FF0013211
:1003000002C88C1A8C4314EAC211F9D0C01A0A062A
:1003100003D0C01E10BDC01A10BD0A0401D0801E3B
:1003200010BD0902FCD0401E10BD032A40F23080EF
:1003300010F0030C00F0158011F8013BBCF1020F26
:10034000624498BF11F801CB00F8013B38BF11F8A7
:10035000013BA2F1040298BF00F801CB38BF00F8BE
:10036000013B11F0030300F02580083AC0F008803B
:1003700051F8043B083A51F804CBA0E80810F5E71F
:10038000121D5CBF51F8043B40F8043BAFF3008002
:10039000D20724BF11F8013B11F801CB48BF11F877
:1003A000012B24BF00F8013B00F801CB48BF00F847
:1003B000012B704710B5203AC0F00B80B1E81850FF
:1003C000203AA0E81850B1E81850A0E81850BFF43F
:1003D000F5AF5FEA027C24BFB1E81850A0E81850DE
:1003E00044BF18C918C0BDE810405FEA827C24BF32
:1003F00051F8043B40F8043B08BF7047D20728BFC0
:1004000031F8023B48BF11F8012B28BF20F8023B0E
:1004100048BF00F8012B70470A6802F8010B0A6018
:100420007047007B00F080007047000072B64EF607
:100430002250CEF2000040F2FF01C0F20001017034
:100440004FF0000080F3098809F036FF40F23010C9
:10045000C2F20040016881F3088840F2AE00C2F2A7
:10046000004040F2AF01C2F200410A78027040F24F
:100470002815C2F2004540F22C11C2F200410A6870
:100480002A60106880F30988EFF3148040F00200BE
:1004900080F31488BFF36F8FBDE8F00F0FBCBDE889
:1004A000005006BC62B6084718484FF08051016002
:1004B000704716484FF080510160704772B6EFF3F5
:1004C000098020E9F00F40F22815C2F200452E689D
:1004D0003060744609F0F0FE40F2AE00C2F2004017
:1004E00040F2AF01C2F200410A78027040F22C11D2
:1004F000C2F200410A682A6044F0F40E1068B0E8C5
:10050000F00F80F3098862B67047000004ED00E048
:1005100040F2B56CC0F6000C604740F2636CC0F668
:10052000000C604740F24D3CC0F6000C604741F2C1
:10053000690CC0F6000C604740F6911CC0F6000C38
:10054000604740F6F53CC0F6000C604740F6751C6D
:10055000C0F6000C604740F6775CC0F6000C6047C0
:1005600040F6575CC0F6000C604740F6014CC0F600
:10057000000C604740F6DD3CC0F6000C604741F2DD
:10058000F90CC0F6000C604741F6812CC0F6000C57
:10059000604742F2D93CC0F6000C604742F2653C2D
:1005A000C0F6000C604740F6E94CC0F6000C60470E
:1005B00040F68D4CC0F6000C604740F6155CC0F666
:1005C000000C604741F6A13CC0F6000C604741F2C8
:1005D000A10CC0F6000C604741F2CD0CC0F6000C37
:1005E000604740F2395CC0F6000C604794B001F0FF
:1005F00094BAF8480078401CF6490870F648002183
:1006000064230A46CDE90010084609F0EBFEF148E4
:100610000078C82805D10020EE490870EFA0FFF748
:1006200081FDF34800684078401E40B2F1494870AF
:1006300001F06DBA0020EF49087001F055BAEE489C
:1006400000688078EB4991F90110E94A12689278C4
:1006500011FB020080B2ADF84800E64890F90000B6
:10066000E3490968897810FB01F000B2ADF84A004F
:10067000E04890F90000801DDD490968897810FB89
:1006800001F000B2ADF84C00DB4800680078ADF82E
:100690004E00BDF84800ADF84000BDF84A00ADF886
:1006A0004200BDF84C00ADF844000020ADF8460013
:1006B000D04890F90100CE490968897810FB01F013
:1006C00080B2ADF83800BDF84200ADF83A00BDF890
:1006D0004400ADF83C00BDF84600ADF83E000DF01A
:1006E00005FF0EF070FBBC4800214FF4FA730A4678
:1006F000CDE90010084609F075FEBDF83800ADF8E8
:100700003000BDF83A00ADF83200BDF83C00ADF85D
:100710003400B94800680078ADF83600B648006883
:100720008088ADF82800B4480068C08800B2ADF8F1
:100730002A00B1480068008900B2ADF82C00BDF86D
:100740003600ADF82E000FF0D3FF092881F072813A
:10075000DFE810F009001300100124020003B504C3
:10076000BD05B406BE070DF0C2FE0EF02DFB09203C
:10077000A1490968887201F05EB90DF0B8FE9F4A80
:100780001268517801EBD1725210A1EB4202002A9B
:100790005BD19A4A1268107800EBD0725210A0EB2D
:1007A0004202002A51D192480068C08990490968E4
:1007B000898808449149096849788D4A1268927875
:1007C00011FB020080B2ADF820008C480068007870
:1007D000042804DDBDF82A00ADF8220025E0874892
:1007E00000680078042804D0844800680078022853
:1007F0000CD1824800680078C01E7D49096889785C
:1008000010FB01F000B2ADF822000EE07B4800685A
:10081000007850B9BDF92A00754909688978052220
:1008200002FB110000B2ADF82200744800680078A5
:100830006F490968897810FB01F000B2ADF8240017
:10084000BDF82E00ADF826006DE06C4A12685178B4
:1008500001EBD1725210A1EB4202012A61D1674A29
:100860001268107800EBD0725210A0EB4202012AFD
:1008700057D15F480068C0895D490968898801448B
:100880005E48006840785A4A1268927810FB02105D
:1008900080B2ADF82000594800680078052809DDCD
:1008A000BDF82A00524909688978401A00B2ADF8AB
:1008B000220026E0514800680078052804D04F48FF
:1008C0000068007803280CD14C4800680078C01EEE
:1008D00047490968897810FB01F000B2ADF82200A1
:1008E0000FE046480068007801280AD1BDF92A00C7
:1008F0003F4909688978042202FB110000B2ADF873
:1009000022003E480068007839490968897810FB60
:1009100001F000B2ADF82400BDF82E00ADF82600BD
:1009200001E00EF0A7F9BDF82000ADF81800BDF801
:100930002200ADF81A00BDF82400ADF81C0000201C
:10094000ADF81E000EF040FABDF81800ADF820001A
:10095000BDF81A00ADF82200BDF81C00ADF8240067
:10096000254800680078ADF826000920224909686A
:10097000887200E70DF0BBFD214A1268517801EB47
:10098000D1725210A1EB4202E2BB1D4A12681078EC
:1009900000EBD0725210A0EB42029ABB14480068E0
:1009A000C089134909688988084415490968497844
:1009B0000F4A1268927811FB020080B2ADF8100065
:1009C0000F480068007804281DDDBDF82A00ADF846
:1009D00012003EE032030024300300244175746F9E
:1009E0005F72756E696E672E2E2E2E2E0D0A000018
:1009F00034030024280300243C0300244003002483
:100A00004403002435E0F74800680078042804D047
:100A1000F4480068007802280CD1F2480068007899
:100A2000C01EF1490968897810FB01F000B2ADF8E9
:100A300012000EE0EB480068007850B9BDF92A00BA
:100A4000E94909688978052202FB110000B2ADF876
:100A50001200E44800680078E3490968897810FBCF
:100A600001F000B2ADF81400BDF82E00ADF816008C
:100A70006DE0DC4A1268517801EBD1725210A1EBA3
:100A80004202012A61D1D74A1268107800EBD07275
:100A90005210A0EB4202012A57D1D3480068C08906
:100AA000D149096889880844CE4909684978CE4AFD
:100AB0001268927811FB020080B2ADF81000C948AC
:100AC00000680078052809DDBDF82A00C6490968D4
:100AD0008978401A00B2ADF8120026E0C1480068DB
:100AE0000078052804D0BF480068007803280CD19E
:100AF000BC4800680078C01EBB490968897810FBB3
:100B000001F000B2ADF812000FE0B64800680078BE
:100B100001280AD1BDF92A00B3490968897804225D
:100B200002FB110000B2ADF81200AE480068007878
:100B3000AD490968897810FB01F000B2ADF81400E6
:100B4000BDF82E00ADF8160001E00EF093F8BDF8E8
:100B50001000ADF80800BDF81200ADF80A00BDF8AD
:100B60001400ADF80C000020ADF80E000EF02CF9CA
:100B7000BDF80800ADF81000BDF80A00ADF812008D
:100B8000BDF80C00ADF81400984800680078ADF886
:100B900016000920954909688872ECE50EF014F9F1
:100BA000904A1268517801EBD1725210A1EB4202C7
:100BB000F2BB8C4A1268107800EBD0725210A0EB96
:100BC0004202AABB88480068C089874909688988A9
:100BD0000844844909684978834A1268927811FB6D
:100BE000020080B2ADF820007E480068007804283A
:100BF00009DCBDF82C007C4909688978084400B2FA
:100C0000ADF8240028E0774800680078062804D072
:100C100074480068007808280ED17248006800788F
:100C2000C01C71490968897810FB01F000B200E02E
:100C300022E0ADF824000FE06A48006800780A2836
:100C40000AD1BDF92C00684909688978042212FB91
:100C5000010000B2ADF824006248006800786249E3
:100C60000968897810FB01F000B2ADF82200BDF8E8
:100C70002E00ADF8260068E05A4A1268517801EB60
:100C8000D1725210A1EB4202012A5CD1554A12687E
:100C9000107800EBD0725210A0EB4202012A52D120
:100CA00051480068C08950490968898808444D49FD
:100CB000096849784C4A1268927811FB020080B2A8
:100CC000ADF82000474800680078052804DCBDF82E
:100CD0002C00ADF8240026E0424800680078072880
:100CE00004D040480068007809280CD13D480068CD
:100CF0000078C01C3C490968897810FB01F000B2FB
:100D0000ADF822000FE03748006800780B280AD1C0
:100D1000BDF92A00344909688978052212FB0100CF
:100D200000B2ADF822002F48006800782E4909680B
:100D3000897810FB01F000B2ADF82400BDF82E0058
:100D4000ADF8260001E00DF095FF0920274909685C
:100D5000887210E5264A1268517801EBD172521060
:100D6000A1EB4202002A7CD1214A1268107800EBE4
:100D7000D0725210A0EB4202002A72D11A480068C9
:100D8000C089194909688988014419480068407870
:100D9000154A1268927810FB021080B2ADF820005C
:100DA000134800680078082824DC1148006800789F
:100DB0000D490968897810FB01F000B2ADF82200F6
:100DC0000B4800680078801C07490968897810FB87
:100DD00001F000B2ADF82400BDF82E00ADF82600F9
:100DE00068E1000044030024340300243C03002491
:100DF00040030024FE48006800780A28F0D1BDF9BD
:100E00002A00FC4909688978042202FB110000B21B
:100E1000ADF82200F64800680078F649096889783C
:100E200010FB01F000B2ADF82400BDF82E00ADF8C3
:100E30002600BDF82000ADF81800BDF82200ADF87E
:100E40001A00BDF82400ADF81C000020ADF81E000B
:100E50000DF0BAFF0DF04BFBBDF81800ADF8200007
:100E600000E044E0BDF81A00ADF82200BDF81C0017
:100E7000ADF82400E04800680078ADF82600BDF821
:100E80002000DC4909688978401A80B2ADF820005A
:100E9000D84800688078ADF82200BDF82400ADF88D
:100EA0002400D54800680078ADF82600BDF8200081
:100EB000ADF81800BDF82200ADF81A00BDF8240006
:100EC000ADF81C000020ADF81E00BDF81800ADF80C
:100ED0002000BDF81A00ADF82200BDF81C00ADF8E6
:100EE0002400C54800680078ADF82600E2E0C04A5A
:100EF0001268517801EBD1725210A1EB4202012A23
:100F00007ED1BB4A1268107800EBD0725210A0EB71
:100F10004202012A74D1B7480068C089B5490968FE
:100F200089880144B24800684078B24A12689278D1
:100F300010FB021080B2ADF82000AD4800680078C8
:100F400009283BDCAA4800680078AA490968897822
:100F500010FB01F000B2ADF82200A548006800784F
:100F6000801CA4490968897810FB01F000B2ADF833
:100F70002400BDF82E00ADF82600BDF82000ADF825
:100F80001800BDF82200ADF81A00BDF82400ADF835
:100F90001C000020ADF81E00BDF81800ADF82000C0
:100FA000BDF81A00ADF82200BDF81C00ADF8240011
:100FB000914800680078ADF826007BE08C48006816
:100FC00000780B2872D1BDF92A008A49096889780E
:100FD000042202FB110000B2ADF822008448006830
:100FE000007884490968897810FB01F000B2ADF8F7
:100FF0002400BDF82E00ADF82600BDF8200000E06A
:1010000056E0ADF81800BDF82200ADF81A00BDF8A2
:101010002400ADF81C000020ADF81E00BDF818003B
:10102000ADF82000BDF81A00ADF82200BDF81C0094
:10103000ADF82400704800680078ADF82600BDF8CF
:1010400020006C4909688978401A80B2ADF8200008
:101050000020ADF82200BDF82400ADF82400664859
:1010600000680078ADF82600BDF82000ADF8180043
:10107000BDF82200ADF81A00BDF82400ADF81C0040
:101080000020ADF81E00BDF81800ADF82000BDF836
:101090001A00ADF82200BDF81C00ADF82400564837
:1010A00000680078ADF8260004E0FFE70DF0E2FDEF
:1010B0000DF0E0FD092050490968887207E34C4AA9
:1010C0001268517801EBD1725210A1EB4202A2BB1F
:1010D000474A1268107800EBD0725210A0EB42021F
:1010E0005ABB44480068C089424909688988084455
:1010F0003F49096849783F4A1268927811FB02001B
:1011000080B2ADF820003A48006800783949096893
:10111000897810FB01F000B2ADF822003448006875
:10112000007806280ADCBDF82C0032490968897865
:10113000084400B2ADF8240021E045E02C480068E6
:10114000007808280BD1BDF92C002A490968897854
:10115000032212FB010000B2ADF824000FE0244886
:10116000006800780A280AD1BDF92C0021490968D5
:101170008978022212FB010000B2ADF82400BDF80C
:101180002E00ADF82600BDF82000ADF81800BDF81F
:101190002200ADF81A00BDF82400ADF81C000020B4
:1011A000ADF81E00BDF81800ADF82000BDF81A001B
:1011B000ADF82200BDF81C00ADF824000E48006810
:1011C0000078ADF826002FE0094A1268517801EB4B
:1011D000D1725210A1EB4202012A23D1044A1268B3
:1011E000107800EBD0725210A0EB4202012A05E009
:1011F00040030024340300243C03002412D1FE48A1
:101200000068C089FC49096889880844FB49096865
:101210004978F94A1268927811FB020080B2ADF861
:10122000200001E00DF026FDF54A1268517801EB2F
:10123000D1725210A1EB4202DAB9F14A1268107869
:1012400000EBD0725210A0EB420292B9EA4800685B
:10125000C089E949096889880144E94800684078FB
:10126000E54A1268927810FB021080B2ADF81000C7
:1012700028E0E34A1268517801EBD1725210A1EBD9
:101280004202012A1CD1DE4A1268107800EBD072AB
:101290005210A0EB4202012A12D1D7480068C0893F
:1012A000D549096889880844D54909684978D24AE6
:1012B0001268927811FB020080B2ADF8100001E0D4
:1012C0000DF0D8FC0920CF4909688872B3E30DF00E
:1012D0007BFDCB4A1268517801EBD1725210A1EB21
:1012E0004202EABBC64A1268107800EBD072521074
:1012F000A0EB4202A2BBC0480068C089BE49096891
:10130000C9880844BE4909684978BB4A126892787E
:1013100011FB020080B2ADF81000B94800680078F7
:1013200008280BDDBDF92C00B34909688978012232
:1013300012FB010000B2ADF8140023E0B0480068D1
:10134000007808280DD1AE4800680078C01CAA4972
:101350000968897810FB01F000B2ADF8140011E0C3
:1013600020E0A748006800780A280BD1A44800684C
:101370000078801CA0490968897810FB01F000B250
:10138000ADF814009E48006800789B490968897888
:1013900010FB01F000B2ADF81200BDF82E00ADF860
:1013A000160064E0964A1268517801EBD17252102F
:1013B000A1EB4202012A58D1914A1268107800EB41
:1013C000D0725210A0EB4202012A4ED18A48006826
:1013D000C08989490968898801448948006840783A
:1013E000854A1268927810FB021080B2ADF81000A6
:1013F000834800680078052804DCBDF82C00ADF8AF
:10140000140022E07E480068007809280CDC7C4843
:1014100000680078C01C78490968897810FB01F0E1
:1014200000B2ADF8140010E07548006800780B2891
:101430000BD1734800680078801C6F49096889786F
:1014400010FB01F000B2ADF814006D4800680078A0
:1014500069490968897810FB01F000B2ADF8120003
:10146000BDF81600ADF8160001E00DF003FCBDF864
:101470001000ADF80800BDF81200ADF80A00BDF884
:101480001400ADF80C000020ADF80E000DF09CFC2F
:10149000BDF80800ADF81000BDF80A00ADF8120064
:1014A000BDF80C00ADF81400564800680078ADF89F
:1014B00016000920534909688872BCE24F4A126835
:1014C000517801EBD1725210A1EB4202A2BB4B4A00
:1014D0001268107800EBD0725210A0EB42025ABB97
:1014E00045480068C08944490968898808444349D7
:1014F00009684978404A1268927811FB020080B26C
:10150000ADF820003D48006800783B4909688978BB
:1015100010FB01F000B2ADF82200384800680078F6
:1015200006280ADCBDF82C0033490968897808448C
:1015300000B2ADF8240021E045E0304800680078B2
:1015400008280BD1BDF92C002B49096889780322A2
:1015500012FB010000B2ADF824000FE0274800683C
:1015600000780A280AD1BDF92C0023490968897836
:10157000022212FB010000B2ADF82400BDF82E00DB
:10158000ADF82600BDF82000ADF81800BDF8220027
:10159000ADF81A00BDF82400ADF81C000020ADF82D
:1015A0001E00BDF81800ADF82000BDF81A00ADF817
:1015B0002200BDF81C00ADF8240012480068007835
:1015C000ADF8260031E00D4A1268517801EBD17276
:1015D0005210A1EB4202012A25D1084A1268107864
:1015E00000EBD0725210A0EB4202012A1BD102483C
:1015F0000068C089004907E0340300244003002448
:10160000440300243C030024096889880144FE48FF
:1016100000684078FD4A1268927810FB021080B290
:10162000ADF8200001E00DF025FBF94A1268517871
:1016300001EBD1725210A1EB4202DAB9F44A1268FE
:10164000107800EBD0725210A0EB420292B9EF4832
:101650000068C089ED49096889880844EC4909682F
:101660004978EA4A1268927811FB020080B2ADF81C
:10167000100028E0E64A1268517801EBD17252104E
:10168000A1EB4202012A1CD1E14A1268107800EB5A
:10169000D0725210A0EB4202012A12D1DB4800683E
:1016A000C089DA49096889880844D94909684978AC
:1016B000D64A1268927811FB020080B2ADF8100091
:1016C00001E00DF0D7FA0920D24909688872B2E129
:1016D000CF4A1268517801EBD1725210A1EB42024D
:1016E000DABBCB4A1268107800EBD0725210A0EB34
:1016F000420292BBC5480068C089C449096889880C
:101700000844C34909684978C04A1268927811FBB5
:10171000020080B2ADF81000BD48006800780828CB
:101720001CDCBB4800680078B8490968897810FB60
:1017300001F000B2ADF81200B54800680078801CD6
:10174000B2490968897810FB01F000B2ADF81400C5
:10175000BDF82E00ADF8160067E17AE0AC480068ED
:1017600000780A28F8D1BDF92A00A84909688978C3
:10177000042202FB110000B2ADF81200A448006878
:101780000078A2490968897810FB01F000B2ADF831
:101790001400BDF82E00ADF81600BDF81000ADF82D
:1017A0000800BDF81200ADF80A00BDF81400ADF84D
:1017B0000C000020ADF80E000DF006FB0CF097FEBB
:1017C000BDF80800ADF81000BDF80A00ADF8120031
:1017D000BDF80C00ADF814008E4800680078ADF834
:1017E0001600BDF81000894909688978401A80B24E
:1017F000ADF81000854800688078ADF81200BDF89B
:101800001400ADF81400834800680078ADF81600A5
:10181000BDF81000ADF80800BDF81200ADF80A00E0
:10182000BDF81400ADF80C000020ADF80E00BDF8B6
:101830000800ADF81000BDF80A00ADF81200BDF8C0
:101840000C00ADF81400734800680078ADF816007D
:10185000EBE06F4A1268517801EBD1725210A1EBA4
:101860004202012A7ED16A4A1268107800EBD072D7
:101870005210A0EB4202012A74D164480068C0896A
:1018800062490968898808446149096849785F4A5A
:101890001268927811FB020080B2ADF810005C482B
:1018A0000068007809283BDC5948006800785749EF
:1018B0000968897810FB01F000B2ADF812005448B5
:1018C00000680078801C51490968897810FB01F094
:1018D00000B2ADF81400BDF82E00ADF81600BDF84A
:1018E0001000ADF80800BDF81200ADF80A00BDF810
:1018F0001400ADF80C000020ADF80E00BDF8080093
:10190000ADF81000BDF80A00ADF81200BDF80C00EB
:10191000ADF814003F4800680078ADF8160084E088
:101920003B48006800780B287BD1BDF92A00374975
:1019300009688978042202FB110000B2ADF8120098
:1019400033480068007831490968897810FB01F054
:1019500000B2ADF81400BDF82E00ADF81600BDF8C9
:10196000100000E05FE0ADF80800BDF81200ADF82F
:101970000A00BDF81400ADF80C000020ADF80E0010
:10198000BDF80800ADF81000BDF80A00ADF812006F
:10199000BDF80C00ADF814001E4800680078ADF8E2
:1019A0001600BDF81000194909688978401A80B2FC
:1019B000ADF810000020ADF81200BDF81400ADF82D
:1019C0001400144800680078ADF81600BDF8100047
:1019D000ADF80800BDF81200ADF80A00BDF814001B
:1019E000ADF80C000020ADF80E00BDF80800ADF811
:1019F0001000BDF80A00ADF81200BDF80C00ADF8FB
:101A000014000448006808E0400300243403002464
:101A1000440300243C03002403E00078ADF81600E2
:101A200003E00DF027F90DF025F909203C4909687C
:101A3000887200E000BF00BF3A48006800780A28BA
:101A400002D00B2818D10BE0364800684078401CC3
:101A5000344909684870012032490968087013E068
:101A6000304800684078401C2E49096848700020C2
:101A70002C490968087007E02A4800680078801C33
:101A800028490968087000BF00BF2748006800782F
:101A90000A2802D00B2818D10BE0234800684078B0
:101AA000401C21490968487001201F4909680870D5
:101AB00013E01D4800684078401C1B4909684870C5
:101AC000002019490968087007E017480068007885
:101AD000801C15490968087000BF00BF13480078D2
:101AE000401C40B21149087011490968087800EBA0
:101AF000D0714910491E0D4A92F900209142BEF65C
:101B00009EAD0A484078401E40B2084948700748D8
:101B100090F901000028BEF68DADFEF76ABD000009
:101B20003C03002440030024440300242803002431
:101B30003403002410B5FEF7FAFC0446204610BD1D
:101B400000BFFEE710B500F0FBF800F003F800F06E
:101B5000F3F810BD70B50026002018490880184918
:101B60000880184908601849086018490860184931
:101B7000086018490860002400BFFEF745FA0646D1
:101B800000BF00250BE000201049086000F074F849
:101B900000F08CF80D4800680444681C85B2002DE4
:101BA000F1D00C480460002008490860084908602A
:101BB00000BF3046FEF72CFA00BF70BD4C00002479
:101BC0004E00002450000024540000245C00002437
:101BD000600000245800002401460846044A1268A8
:101BE000904203D9024A1268801A00E00020704730
:101BF0005800002470B5002500BFFEF705FA054621
:101C000000BF0648046800BF2846FEF701FA00BF7F
:101C10002046FFF7E1FF0646304670BD5C00002419
:101C200070B50025FFF7E6FF044600BFFEF7ECF9AC
:101C3000054600BF00200449086000BF2846FEF7A3
:101C4000E7F900BF204670BD5C00002470B5002598
:101C500000BFFEF7D9F9054600BF0648046800BF7B
:101C60002846FEF7D5F900BF2046FFF7B5FF064628
:101C7000304670BD6000002410B509480088401C43
:101C8000074908800748008818B900F083F806491A
:101C9000086004480088401C0249088010BD00000C
:101CA0004C0000244E0000245000002410B50F48C2
:101CB0000088401E0D49088008460088A0B900F041
:101CC00069F80B490860084600680A490968441A1F
:101CD00009480068A04201D207480460074800682C
:101CE000A04201D20548046010BD00004E0000244F
:101CF00054000024500000245C00002460000024F4
:101D000010B5002400BF00BFFEF77EF9044600BFF7
:101D1000FFF7B2FF00BF1021064807F071F800BFBF
:101D2000FFF7C4FF00BF2046FEF772F900BF00BFF7
:101D300010BD0000581A002410B5FFF7E1FF10BDD8
:101D400010B500200249086000F00AF810BD00003C
:101D50004800002401490860704700004800002442
:101D600010B5FFF7E7FE04460848006840F08070B1
:101D7000064908600020064948600846006840F0AF
:101D8000010008602046FFF7E5FF10BDFCED00E014
:101D9000001000E00149486870470000001000E0B2
:101DA00000B587B000BF1048006840F001000E4940
:101DB00008600846006800F00100019000BF00BF05
:101DC0004FF490700290012003900490032005903E
:101DD00002A90648FEF7B0FB00224FF490710448B8
:101DE000FEF7AFFB07B000BDE04402580000025808
:101DF000000802587047000010B50CF0D9FB4FF4F2
:101E000000410A48006800F58050C0F86011402188
:101E10000648006800F58050C0F8601101210348B1
:101E2000006800F58050C0F8601110BD4018002413
:101E300010B50120FEF78AFB10BD10B54FF400501D
:101E4000FEF784FB10BD10B50420FEF77FFB10BD2C
:101E500010B50820FEF77AFB10BD000000B587B072
:101E600000BF3248006840F0010030490860084671
:101E7000006800F00100019000BF00BF00BF0846ED
:101E8000006840F0040008600846006800F00400A4
:101E9000019000BF00BF00BF0846006840F080000E
:101EA00008600846006800F08000019000BF00BF95
:101EB000012002901E4803900220049002A91D48B0
:101EC000FEF73AFB4FF4005002901B4803900120AC
:101ED000049002A91948FEF72FFB0C20029002A9DA
:101EE0001748FEF729FB002202210620FEF733FBEC
:101EF0000620FEF735FB012202210820FEF72BFB0E
:101F00000820FEF72DFB022211460920FEF723FBD5
:101F10000920FEF725FB032202212820FEF71BFBE8
:101F20002820FEF71DFB07B000BD0000E04402586A
:101F30000000111100000258000031110008025881
:101F4000001C025838B504460A48007880B1204683
:101F5000FEF7CCF90546002001232A4621460090D1
:101F6000054800680CF05EFC10B104A0FEF7DAF83A
:101F700038BD00003D01002434010024457468662A
:101F800061696C0D0A0000002DE9F04188B004463B
:101F90000D4616461F46DDF83880234800F01BFD2D
:101FA000224821490860002088600846C0F80C805B
:101FB000002101744174817444618561C6610762C6
:101FC00041638163C16301210164042141640021F3
:101FD00001658165C1650121016600214166042119
:101FE000816600F00BFD18B1012008B0BDE8F0815A
:101FF0000020009001900220029001200390002018
:10200000049005906946084800F090FC08B1022051
:10201000EBE7054800F096FE00220121024800F09F
:102020002FFC0020E1E700007019002400A0004010
:1020300010B50146486BC8660868D0F884004FF6B2
:10204000FC739843CB6E40EA83000B68C3F88400AE
:102050000868D0F8840020F47F03088F43EA00402A
:102060000B68C3F88400CB6E886B03440B67086869
:10207000D0F888004FF6FC7398430B6F40EA83005A
:102080000B68C3F888000868D0F8880020F47F0344
:10209000888F43EA00400B68C3F888000B6FC86B59
:1020A00003EB40034B670868D0F8A0004FF6FC73C1
:1020B00098434B6F40EA83000B68C3F8A0000868A0
:1020C000D0F8A00020F4FE034020405A43EA00402C
:1020D0000B68C3F8A000D1E910404B6F04FB00333C
:1020E0008B670868D0F8B00020F0FC03886F43EAE3
:1020F00080000B68C3F8B0000868D0F8B00020F486
:10210000FE03B1F8480043EA00400B68C3F8B00092
:10211000D1E912408B6F04FB0033CB670868D0F81D
:10212000AC0020F0FC03C86F43EA80000B68C3F8E2
:10213000AC00D1E91440CB6F04FB00338020435046
:102140000868D0F8F0004FF6FC73984380235B5882
:1021500040EA83000B68C3F8F0000868D0F8F0008C
:1021600020F47C13B1F8580043EA00400B68C3F830
:10217000F00080204358886D03EB400384204350D7
:102180000868D0F8C00020F0FC038420405843EADF
:1021900080000B68C3F8C0000868D0F8C00020F4C5
:1021A0007C13B1F85C0043EA00400B68C3F8C00040
:1021B00084204358CC6D886E04FB00338820435044
:1021C0000868D0F8C00020F07C5391F8600043EA22
:1021D00000600B68C3F8C000294B486B03EB80001C
:1021E000C866CB6E886B03EB80030B670B6FC86B05
:1021F00003EBC0034B67D1E9100358434B6F03EB6C
:1022000080038B67D1E9120358438B6F03EB800384
:10221000CB67D1E914035843CB6F03EB80038020D5
:1022200043504358886D03EBC003842043508B6EAA
:10223000C86D584384235B5803EB800388204350C8
:102240008B6E086E584388235B5803EB8003902005
:10225000435040580B4B984207D9D1F8980040F0B2
:102260002000C1F89800012010BDCA6E02E00020D5
:102270001060121D902040589042F8D80020F3E7DB
:1022800000AC0040FCB5004070B504461D4600237C
:10229000B5F5804F13D154F822300C480340D1E9F2
:1022A000000640EA06108E6840EA06208E8940EA61
:1022B00006408E693043034344F8223003E06FF058
:1022C000704044F82200002070BD00000000F0CFF4
:1022D00010B502460023086852F820301B4803401E
:1022E000D1E901042043CC6820430C6920434C69A8
:1022F00020438C692043CC6920430C6A20434C6AFC
:1023000020438C6A2043CC6A20430C6B20438C6BA7
:1023100020434C6B204303438868082801D143F0D5
:102320004003086842F82030086BB0F5801F05D1E3
:10233000086818B110680C6B20431060086818B169
:1023400010684C6B20431060002010BD8004C0FF5B
:1023500030B5034614460022601C53F8202002F0DA
:102360004042D1E9000540EA05108D6840EA0520A9
:102370008D8940EA0545088A401E45EA0055087DDA
:10238000801E45EA00608D6928430243601C43F8C3
:102390002020186800F4801038B1586820F47002CA
:1023A000088A401E42EA00525A60002030BD30B513
:1023B0000246002300240868012816D013686FF332
:1023C0000E03D1E901052843CD6828430D69284350
:1023D0004D6928438D692843CD6928430D6A2843F8
:1023E0004D6A28430343136019E0136823F4F8434C
:1023F000D1E9070528434D6A2843034354686FF326
:102400000E04D1E901052843CD6828430D6928430E
:102410004D6928438D6928430443136054600020AC
:1024200030BD0246506940EA4100506100207047CB
:1024300018B5034600200090D1E9000420438C68C1
:10244000641E40EA4410CC6840EA442000900098A2
:102450001861002018BD000070B503461546002223
:102460000024012D1FD09A6802F070420868401EB7
:102470004E68761E40EA06168868401E46EA002628
:10248000C868401E46EA0036088A401E46EA0046F2
:10249000888A401E46EA0056087E401E46EA0060D2
:1024A00002439A6022E09A6811480240C868401EC0
:1024B0000603888A401E46EA00500243DC6804F0A6
:1024C00070440868401E4E68761E40EA061688680A
:1024D000401E46EA0026088A401E46EA0046087E5C
:1024E000401E46EA006004439A60DC60002070BD34
:1024F000FF0F0FFF10B504460CB9012010BD94F872
:102500003500022803D0802060650120F6E73449B9
:102510002068884205D333492068884201D80120C9
:1025200000E00020C0B1042084F835002C49206868
:1025300088420AD32B492068884206D82068006860
:1025400020F001002168086048E02068006820F061
:1025500001002168086041E02068006820F00E005A
:10256000216808601E49206888420AD31D492068F6
:10257000884206D82068006820F0010021680860C1
:1025800005E02068006820F0010021680860206EE6
:10259000006820F48070216E086094F85C100120BF
:1025A000884011490860D4E919104860E06E40B1D4
:1025B000E06E006820F48070E16E0860D4E91C10C1
:1025C000486000BF002084F8340000BF012084F878
:1025D0003500206D10B12046216D884700208DE721
:1025E00010000240B80402400454025870B5054679
:1025F00005F12C02536952F823109669906908B9C5
:10260000012070BDD06900B1761C002423E0086968
:1026100008604FF08070C860486928B148698860D8
:10262000C86840F00070C860C86840F00040C860EA
:10263000106A18B1C86840F08040C8609069401EB8
:10264000A04207D900BF5B1C042B00D31B1F00BF97
:1026500052F82310641CB442D9D3286800F5805086
:10266000C0F828110020906100BFCAE72DE9F84F9B
:1026700006468B4606F12C07D7F814800020009000
:1026800057F828505C46B86930B9304600F079F800
:1026900010B90120BDE8F88F4FF0000A27E0686903
:1026A00078B10CB90120F5E7286920607069606095
:1026B000A4680CB90120EDE768692060706960606A
:1026C00003E02869206070696060E868C0F30E006C
:1026D000009000BF08F10108B8F1040F01D3A8F180
:1026E000040800BF57F82850A4680AF1010AB86925
:1026F000401E5045D3D80CB90120CBE7E868C0F3A1
:102700000E010098A1EB00097069484504D32869BF
:102710002060C4F8049012E0686970B128692060F4
:1027200070696060A4680CB90120B3E76869206033
:102730007069A9EB0000606001E00120AAE70020B9
:10274000A8E72DE9F04180460E4608F12C046569A2
:10275000A06930B9404600F014F810B90120BDE876
:10276000F08100BFA069401E0544042D00D32D1F39
:1027700000BF54F82570F868C0F30E0030600020E8
:10278000EDE7F0B5074607F12C03196953F821204E
:10279000002500240026986908B10020F0BD3DE026
:1027A0006D1CD06800F0805000B3641C012C00D177
:1027B0000E4600BF491C042900D3091F00BF53F86F
:1027C0002120D06800F0004058B9D06800F0804067
:1027D00038B10120D86100BF491C042900D3091F6A
:1027E00000BF19615E619C610120D7E7D06800F0ED
:1027F000005050B10E46012400BF491C042900D3EB
:10280000091F00BF53F8212008E0641C00BF491CC9
:10281000042900D3091F00BF53F82120D06800F01D
:10282000004008B9042DBBD334B3314653F82120FE
:1028300000251FE0106910604FF08070D060506973
:1028400028B150699060D06840F00070D060D068C6
:1028500040F00040D060186A18B1D06840F0804065
:10286000D06000BF491C042900D3091F00BF53F8E2
:1028700021206D1CA542DDD30020986100BF8DE7AB
:1028800010B5034693F89400012803D093F8940000
:1028900002283ED11868806D084030B91868C06DB4
:1028A00040F001001C68E0650EE01868806D08408B
:1028B000884206D11868C06D40F002001C68E065CF
:1028C00002E003201C68E06501F4007030B1186874
:1028D000D0F8E00010431C68C4F8E00001F4806008
:1028E00030B11868D0F8E40010431C68C4F8E40064
:1028F00000BF1868406D0B4C0C4020431C6860659D
:102900000948006840EA9170074C206000BF002031
:1029100010BDD3F8980040F00200C3F898000120E1
:10292000F6E70000FFFFCF3F14A8004070B5024655
:1029300092F89400012803D092F89400022842D122
:10294000C868072800D100BF086818BBC8680728F6
:1029500000D000BFC86807280BD1088A4FF0605626
:1029600046EA0040CE6940EA06208E6940EA060346
:102970000AE0087A80070E7B40EAC6600E8A40EAC9
:1029800006404E6940EA0603D66E486806EB8004AE
:10299000236016E0C868072800D000BF0E7B0869D6
:1029A00040EA4673C868072801D18D6903E00E7AB2
:1029B000486940EA8675166F486806EBC00408C48B
:1029C0002560002070BDD2F8980040F00200C2F8E7
:1029D00098000120F6E710B504460CB9012010BD9F
:1029E000204600F0C9F9204600F060F90020C4F844
:1029F000980084F8940000BFF1E7000070B5044629
:102A000000250CB9012070BDA6492068884203D179
:102A1000206800F580706060A068B0F5407F00D14C
:102A200000BF206C00B100BFA06C00B100BF206DE2
:102A300000B100BF206E00B100BFD4E917100844F8
:102A400000B100BF94F8940028B9002084F89500E4
:102A5000204600F039F92068806920F010002168D4
:102A60008861FDF782FD05460EE0FDF77EFD401B07
:102A70000A2809D99434606840F00100606003209E
:102A800004F894090120BEE72068806900F008007E
:102A90000828EAD02068806940F001002168886138
:102AA000FDF763FD05460EE0FDF75FFD401B0A28BC
:102AB00009D99434606840F001006060032004F894
:102AC000940901209FE72068806900F00100002838
:102AD000EAD02068806940F0020021688861207C8B
:102AE000012806D12068806920F0400021688861B3
:102AF00005E02068806940F0400021688861607CC2
:102B0000012806D12068806940F4804021688861EE
:102B100005E02068806920F4804021688861A07CFD
:102B2000012806D12068806920F4805021688861DE
:102B300005E02068806940F4805021688861206841
:102B4000806920F44070A168084321688861E068CA
:102B5000012806D12068806940F00400216888615E
:102B600020E0E068F0B1E068022815D020688069B4
:102B700040F08000216888612068006940F0100002
:102B800021680861E06803280CD12068806940F062
:102B900020002168886105E02068806940F02000FD
:102BA00021688861207E401E4106E069401E41EA9E
:102BB0000020216A491E0843A18A491E40EA0140BB
:102BC0002168C861A068B0F5407F0FD1A06A401E9F
:102BD000E16A491E40EA0121206B401E41EA0011D2
:102BE000A08C401E41EA00402168C860206E38B1C8
:102BF0002068D0F8C000616E08432168C1F8C000A9
:102C0000D4E91710084458B12068D0F8C80020F063
:102C10000700254AA16E515C08432168C1F8C8002D
:102C2000206C58B12068D0F8BC0020F007001E4A84
:102C3000616C515C08432168C1F8BC00A06C60B1B4
:102C40002068D0F8BC0020F07001174AE06C105CDE
:102C500041EA00102168C1F8BC00206D60B1206815
:102C6000D0F8BC0020F4E0610F4A606D105C41EACE
:102C700000202168C1F8BC000A492068884205D1BB
:102C80006068806820F00300616888602046FFF774
:102C9000CFF90020C4F89800012084F894000020A7
:102CA000B1E6000000A00040460F01900549096808
:102CB00041F48071034A11601146096821F4807162
:102CC000116070479444025810B5B6B0044600BF76
:102CD0001A48006840F48070184908600846006887
:102CE00000F48070019000BF00BF00BF13480C3893
:102CF000006840F0010011490C390860084600687E
:102D000000F00100019000BF00BF4FF400400290AE
:102D100040031D9002A800F0E1FC4FF4C050319038
:102D2000022032900120339034900920359031A94F
:102D30000348FDF701FC36B010BD0000EC4402581A
:102D400000000258014691F8940001280CD102209D
:102D500081F894000868806920F001000A68906199
:102D60000020C1F898007047D1F8980040F00400A6
:102D7000C1F898000120F6E70146002291F894007E
:102D8000022825D10868806940F001000B6898612D
:102D90000DE01046521C0A2809D99431486840F0C9
:102DA00001004860032001F8940901207047086879
:102DB000806900F001000028EBD00868806940F0CD
:102DC00002000B689861012081F894000020EDE773
:102DD000D1F8980040F00800C1F898000120E5E71C
:102DE00010B50446012C07D0042C0AD0082C16D0AC
:102DF000B4F5005F30D120E001211848FDF7BAFB9F
:102E00002AE004211648FDF7B5FB38B915480078CB
:102E1000401C1449087014A0FDF784F91CE0082137
:102E20000F48FDF7A7FB38B912480078401C11493C
:102E3000087011A0FDF776F90EE04FF4005111482B
:102E4000FDF798FB38B910480078401C0E4908700F
:102E50000EA0FDF767F900BF00BF10BD00000258CB
:102E6000001C02584500002445584954312E2E2E8E
:102E70000D0A00004600002445584954302E2E2EDD
:102E80000D0A000000080258470000244558495424
:102E9000322E2E2E0D0A000070B504460E46154641
:102EA00000BF94F8A000012801D1022070BD0120CC
:102EB00084F8A00000BF022084F8A10005EB850182
:102EC00001EBC50204F1380101EB820034223146E6
:102ED000FDF770FA2A463146204605F041FE0120F2
:102EE0002168486284F8A10000BF002084F8A00097
:102EF00000BF00BFDAE7000070B5044600250026D9
:102F00000CB9012070BD94F8A10028B9002084F804
:102F1000A000204600F07EF8022084F8A10020687E
:102F2000806920F0704021688861D4E9010108437C
:102F3000E1680843216908432168896908432168D9
:102F40008861206880683249084021688860A08ACA
:102F5000050420688068A1692943084321688860C6
:102F60002068C0682A4908402168C860A08B050411
:102F70002068C068216A294308432168C860206826
:102F800000692349084021680861A08C0504206875
:102F90000069A16A294308432168086120684069E3
:102FA0001B49084021684861A08D050420684069DC
:102FB000216B294308432168486194F835000502D4
:102FC00094F8360006042068C06A00F07F4021684B
:102FD000C86246EA050094F8341008432168C96ABB
:102FE00008432168C8622068406B40F006002168F1
:102FF00048632068806940F00100216888610020F2
:10300000C4F8A400012084F8A10000207AE70000A1
:1030100000F800F010B586B0044600BF37480068DD
:1030200040F00800354908600846006800F00800D4
:10303000009000BF00BF00BF30481038006840F06B
:1030400010002E49103908600846006800F0100092
:10305000009000BF00BF00BF2848001F006840F478
:1030600080702649091F08600846006800F48070D7
:10307000009000BF00BF00BF0846006840F4007029
:1030800008600846006800F40070009000BF00BFB0
:1030900000BF0846006840F4806008600846006889
:1030A00000F48060009000BF00BF2020019001204C
:1030B000029003900320049001A91148FDF73CFA07
:1030C0004FF4E04001900220029000200390032082
:1030D00004900E20059001A90A48FDF72DFA48F644
:1030E0007C60019001A90848FDF726FAFF200190B5
