:020000040800F2
:10000000C0780424A90300082D910090F14B0090C2
:10001000D1030008E506009017EA009000000000F8
:100020000000000000000000000000004DD600901D
:1000300045090090000000008D050090E1200008B7
:10004000DF030008DF030008DF030008DF03000808
:10005000DF030008DF030008DF030008DF030008F8
:10006000DF030008DF030008DF030008DF030008E8
:10007000DF030008DF030008DF030008DF030008D8
:10008000DF030008DF030008DF030008DF030008C8
:10009000DF030008DF030008DF030008DF030008B8
:1000A000DF030008DF030008DF030008DF030008A8
:1000B00051D60090DF030008DF030008DF030008CB
:1000C000DF030008DF030008DF030008DF03000888
:1000D000DF03000801210008DF03000859210008A0
:1000E000DF030008DF03000800000000DF03000852
:1000F000DF030008DF030008DF030008DF03000858
:10010000DF030008DF030008DF030008DF03000847
:10011000DF030008DF030008DF030008DF03000837
:10012000DF030008DF030008DF030008DF03000827
:10013000DF030008F9090090DF030008DF0300086F
:1001400000000000000000000000000000000000AF
:10015000DF030008DF030008DF030008DF030008F7
:10016000DF030008DF030008DF030008DF030008E7
:10017000DF030008DF030008DF030008DF030008D7
:10018000DF030008DF030008DF030008DF030008C7
:10019000DF030008DF030008DF030008DF030008B7
:1001A000DF030008DF030008DF030008DF030008A7
:1001B000DF030008DF030008DF030008DF03000897
:1001C000DF030008DF030008DF030008DF03000887
:1001D000DF030008DF030008DF030008DF03000877
:1001E000DF030008DF030008DF030008DF03000867
:1001F000DF030008DF030008DF030008DF03000857
:10020000DF030008DF030008DF030008DF03000846
:10021000DF030008DF030008DF030008DF03000836
:10022000DF030008DF030008DF0300080000000010
:10023000DF030008DF03000800000000DF03000800
:10024000DF030008DF030008DF030008DF03000806
:10025000DF030008DF030008DF030008DF030008F6
:10026000DF030008DF030008DF030008DF030008E6
:10027000DF030008DF030008DF03000800000000C0
:10028000DF03000800000000DF030008000000009A
:1002900000000000DF03000800F002F800F06DF835
:1002A0000AA090E8000C82448344AAF10107DA45D1
:1002B00001D100F062F8AFF2090EBAE80F0013F0B6
:1002C000010F18BFFB1A43F001031847E82800008C
:1002D000082900000A444FF0000C10F8013B13F00D
:1002E000070408BF10F8014B1D1108BF10F8015B8F
:1002F000641E05D010F8016B641E01F8016BF9D182
:1003000013F0080F1EBF10F8014BAD1C0C1B09D1D8
:100310006D1E58BF01F801CBFAD505E014F8016B4A
:1003200001F8016B6D1EF9D59142D6D370470000DC
:100330000023002400250026103A28BF78C1FBD8EE
:10034000520728BF30C148BF0B607047642900F0D6
:10035000A980752900F0A680782900F0DF80632944
:1003600000F0BA81732900F0BF81002070471FB5EB
:1003700002F0E6FB1FBD10B510BD00F0CFF911462D
:10038000FFF7F5FF02F04CF800F0EDF903B4FFF7CA
:10039000F2FF03BC01F028FF30BF72B6704762B6AF
:1003A000704780F308887047DFF84000016841F427
:1003B00070010160BFF34F8FDFF83400016821F056
:1003C00040410160BFF36F8F0A480047FEE7FEE738
:1003D000FEE7FEE7FEE7FEE7FEE7FEE7FEE7FEE7F5
:1003E00005480649044A064B7047000088ED00E0C6
:1003F00034EF00E099020008C0700424C07804249F
:10040000C070042470B5044685690068C10601D532
:10041000302600E02026C00707D070BDD4E90121B6
:1004200030469047206A401C20626D1EF6D570BD94
:1004300070B5044685690078C00707D170BDD4E95E
:10044000012120209047206A401C20626D1EF6D5B5
:1004500070BD70B50C460546012A05D02878800687
:1004600000D5EA69002302E0012305E05B1C93420A
:1004700002D2E05C0028F9D1A869E618C01AA86188
:10048000286A184428622846FFF7BCFF04E0D5E933
:10049000012114F8010B9047B442F8D32846FFF726
:1004A000C7FF70BD2DE9F04106460024106875298C
:1004B000314616A510D0AFF30080002802DA404282
:1004C00013A507E031688A0701D512A502E04907A4
:1004D00004D511A5012401E0AFF3008000210A2218
:1004E00006F1240709E0B0FBF2FCB0FBF2F302FBDB
:1004F0001C00303078541846491C0028F3D123469C
:100500002A463046BDE8F04100F06BB8000000001C
:100510002D0000002B0000002000000070B50446F4
:100520000D4621461068AFF300802188090502D5E9
:100530000F4A7A4402E00E4A7A440E32002104F156
:10054000240305E000F00F060009965D5E54491C87
:100550000028F7D120780023000704D5702D02D0A1
:1005600009B1022311322046BDE8704000F039B8CD
:10057000542600004FF0013C50F8042B51F8043B86
:100580009A4215D1A2EB0C03934313EACC130BD17F
:1005900050F8042B51F8043B9A4209D1A2EB0C030A
:1005A000934313EACC13E7D04FF00000704700BF2D
:1005B000D01A01BAB1FA81F101F0180122FA01F062
:1005C000CB40C1F12001DBB2C0B2C01A2CFA01F35A
:1005D000D11A914311EAC311E6D1704770477047B1
:1005E00070472DE9F0470D4699469246044600F1C2
:1005F00024080168880604D5E06921F01001216013
:1006000000E00120A84201DD471B00E00027A169AE
:100610007A1902EB0900081AA0612078C00602D4FA
:100620002046FFF7EFFE002608E0D4E901211AF882
:1006300006009047206A401C761C20624E45F4DB81
:100640002078C0060AD52046FFF7DCFE06E0D4E994
:10065000012130209047206A401C2062381EA7F1FB
:100660000107F4DC07E0D4E9012118F80500904700
:10067000206A401C2062281EA5F10105F3DC2046FB
:10068000FFF7D6FE2078000602D50220BDE8F087ED
:100690000120FBE701694A1C02610878704700B538
:1006A0008FB0CDE901310021059105497944CDE9AB
:1006B00003101146684600F05FF80FB000BD00005F
:1006C000E5FFFFFF10B5436913B1AFF3008001E010
:1006D000FFF7BFFE012010BD127800F124010A705F
:1006E00000224A700122EDE711684FF0FF32E9E77E
:1006F000074B70B50D467B44FFF7D1FF04462846F3
:1007000000F03FF810B14FF0FF3070BD204670BDD3
:10071000531C0000004870475C7004247546FFF7C6
:10072000F9FFAE4605006946534620F007008546AE
:1007300018B020B5FFF754FEBDE820404FF000068A
:100740004FF000074FF000084FF0000B21F00701B9
:10075000AC46ACE8C009ACE8C009ACE8C009ACE8FC
:10076000C0098D46704710B50446AFF3008020469F
:10077000BDE81040FFF70ABE40F2651CC9F2000C4C
:10078000604740F2C94CC9F2000C604742F6B13CE8
:10079000C9F2000C604749F2D52CC9F2000C604741
:1007A0004AF61D7CC9F2000C604749F2013CC9F2CF
:1007B000000C604744F6150CC9F2000C604744F683
:1007C000010CC9F2000C604744F6492CC9F2000C38
:1007D000604749F60D4CC9F2000C604749F6DD4C04
:1007E000C9F2000C60474AF61D5CC9F2000C604774
:1007F0004CF6051CC9F2000C60474AF6CD5CC9F204
:10080000000C604744F63D7CC9F2000C604744F69A
:10081000293CC9F2000C604740F2090CC9F2000CF7
:10082000604740F61D0CC9F2000C604748F2051CF9
:10083000C9F2010C604740F6510CC9F2000C604748
:1008400040F2110CC9F2000C604748F20D5CC9F28D
:10085000000C604744F6956CC9F2000C60474DF2FD
:10086000495CC9F2000C604748F6E57CC9F2000C0F
:10087000604745F6210CC9F2000C604748F2250C90
:10088000C9F2010C604741F2392CC9F2000C6047F3
:1008900048F2953CC9F2000C60474DF2C56CC9F2B4
:1008A000000C60474DF2616CC9F2000C604749F2E0
:1008B000451CC9F2000C604745F2B17CC9F2000C3E
:1008C000604741F6556CC9F2010C604744F2BD2CFB
:1008D000C9F2010C60474AF2693CC9F2000C60475A
:1008E0004AF2A50CC9F2000C604748F2013CC9F27B
:1008F000000C604740F23D1CC9F2000C604740F21A
:10090000453CC9F2000C604740F2E96CC9F2000CAA
:1009100060474AF2552CC9F2000C604740F2C57C92
:10092000C9F2000C604749F6714CC9F2000C6047EF
:1009300041F6C15CC9F2010C604744F6D11CC9F212
:10094000000C604710B501F00FFB01F0BFFA03483F
:10095000006840F004000149086010BD9CEF00E011
:100960000348006840F0010001490860704700003A
:1009700020040058F8B502460B460021002600244A
:100980000020824D00BFFCE0012707FA01F61F6836
:1009900007EA0604B4427CD15F68022F02D05F6888
:1009A000122F1AD14FEAD10C02F1200757F82C0070
:1009B0004F074FEAD76C0F2707FA0CF7B8434FEAF7
:1009C000417C4FEADC6C1F6907FA0CF738434FEAA9
:1009D000D10C02F1200747F82C0010684FEA410CB7
:1009E000032707FA0CF7B8431F7907F003074FEA0C
:1009F000410C07FA0CF7384310605F68012F08D0EC
:100A00005F68022F05D05F68112F02D05F68122F38
:100A100017D190684FEA410C032707FA0CF7B84347
:100A20004FEA410CDF6807FA0CF7384390605068D2
:100A300001278F40B8431F79C7F300178F40384311
:100A40005060D0684FEA410C032707FA0CF7B8430F
:100A50004FEA410C9F6807FA0CF73843D0605F6893
:100A600007F08057B7F1805F95D100BF484F3F68CE
:100A700047F00207DFF818C1CCF8007067463F68FE
:100A800007F00207009700BF00BF424F4FEA910CEA
:100A900000E075E057F82C008F074FEA177C0F270E
:100AA00007FA0CF7B8433C4FBA4201D100272DE0BA
:100AB0003A4FBA4201D1012728E0394FBA4201D159
:100AC000022723E0374FBA4201D103271EE0364FF9
:100AD000BA4201D1042719E0344FBA4201D10527A7
:100AE00014E0334FBA4201D106270FE0314FBA422A
:100AF00001D107270AE0304FBA4201D1082705E0AB
:100B00002E4FBA4201D1092700E00A274FEA817C23
:100B10004FEA1C7C07FA0CF738431E4F4FEA910C42
:100B200047F82C002868A0435F6807F48037B7F5C2
:100B3000803F00D1204328606868A0435F6807F4C5
:100B40000037B7F5003F00D1204368604FF0B04751
:100B50003868A0435F6807F48017B7F5801F00D19D
:100B600020434FF0B04738607868A0435F6807F4CF
:100B70000017B7F5001F00D120434FF0B047786051
:100B8000491C1029FFF400AFF8BD00008000005898
:100B9000F4440258080400580000025800040258A7
:100BA00000080258000C02580010025800140258A5
:100BB00000180258001C0258002002580024025855
:100BC000024613690B400BB1012000E00020704782
:100BD00042694A40426170470AB1018300E04183A3
:100BE0007047000001480068704700001C000024A6
:100BF00003480068034909780844014908607047C0
:100C00001C0000242400002410B5052000F0E2F8A8
:100C10000F2000F007F808B1012010BD00F08CF89B
:100C20000020FAE770B504460E4800784FF47A7158
:100C3000B1FBF0F00C490968B1FBF0F5284600F073
:100C4000EFFE08B1012070BD102C07D20022214612
:100C5000501E00F082F80548046001E00120F2E730
:100C60000020F0E7240000240000002420000024DD
:100C70004178154A11600178F9B1121D416811607F
:100C8000017B0907C27A41EA0261827A41EAC241E4
:100C9000427B41EA8241827B41EA4241C27B41EA96
:100CA0000241427A41EA0221027A41EA4201027893
:100CB0001143054A0832116005E00021024A121D65
:100CC0001160121D1160704798ED00E000BF00BF79
:100CD00000BFBFF35F8F00BF00BF00BF05480068C3
:100CE00020F4803003490860002002497031086018
:100CF0007047000024ED00E040F001010D4A116052
:100D00000C497039096841F480310A4A703A11601F
:100D100000BF00BF00BFBFF34F8F00BF00BF00BFC9
:100D200000BF00BF00BFBFF36F8F00BF00BF00BF99
:100D30007047000094ED00E0704701460846002827
:100D400009DB00F01F0301229A4043099B0003F1D5
:100D5000E023C3F8002100BF70472DE9F05F804613
:100D60000D46164601F024FA074639462A46334610
:100D700001F00700C0F1070ABAF1040F02D94FF0E1
:100D8000040A01E0C0F1070AD14600F1040ABAF1F1
:100D9000070F02D24FF0000A01E0A0F1030AD44687
:100DA0004FF0010A0AFA09FAAAF1010A0AEA020A4C
:100DB0000AFA0CFA4FF0010B0BFA0CFBABF1010B2A
:100DC0000BEA030B4AEA0B042146404601F0F8F90E
:100DD000BDE8F09F00BF00F00702064B19684FF610
:100DE000FF031940044B0B4343EA0221014B1960F6
:100DF00000BF70470CED00E00000FA0570B5044636
:100E00000D4600268D48006800F00700A8420ED26B
:100E10008A48006820F0070028438849086008468F
:100E2000006800F00700A84201D0012070BD2078C2
:100E300000F00200022807D18148006820F00F006E
:100E4000E16808437E490860207800F0010000282E
:100E500051D07B48006820F47060A168084378494D
:100E600008606068022807D1754818380068C0F328
:100E70004040F8B90120D9E76068032807D17048DD
:100E800018380068C0F34060A0B90120CEE7606860
:100E9000012807D16A4818380068C0F3002048B913
:100EA0000120C3E7664818380068C0F3800008B91D
:100EB0000120BBE762480838006820F0070061683D
:100EC00008435F4908390860FFF78CFE06466068F2
:100ED000022811D108E0FFF785FE801B41F288311E
:100EE000884201D90320A1E755480838006800F07E
:100EF00038001028EFD13AE06068032811D108E0EB
:100F0000FFF770FE801B41F28831884201D903202F
:100F10008CE74B480838006800F038001828EFD1FB
:100F200025E06068012811D108E0FFF75BFE801B17
:100F300041F28831884201D9032077E740480838D8
:100F4000006800F038000828EFD110E008E0FFF753
:100F500049FE801B41F28831884201D9032065E7B0
:100F600037480838006800F038000028EFD13348CF
:100F7000006800F00700A8420ED93048006820F051
:100F8000070028432D4908600846006800F0070064
:100F9000A84201D0012049E7207800F0040004288D
:100FA00007D12748006820F07000216908432449D0
:100FB0000860207800F00800082809D12048001DAA
:100FC000006820F07000616908431D49091D086030
:100FD000207800F01000102809D11948001D006881
:100FE00020F4E060A16908431549091D08602078D4
:100FF00000F02000202809D111480830006820F0B6
:101000007000E16908430E490831086000F066F895
:101010000B49096801F470614FF4807292FAA2F2F0
:10102000B2FA82F2D140074A515CC84006490860D2
:101030000F20FFF7F7FD0020F8E600000020005227
:10104000184402587A2B00080000002410B5FFF75E
:101050009DFB0949096801F00F01012292FAA2F2F1
:10106000B2FA82F2D140054A515CC8400449086096
:101070000846006810BD0000184402587A2B00088A
:101080000400002410B5FFF7E1FF0749096801F0EB
:101090007001102292FAA2F2B2FA82F2D140034A0F
:1010A000515CC84010BD00001C4402587A2B000857
:1010B00010B5FFF7CBFF0749096801F4E0614FF471
:1010C000807292FAA2F2B2FA82F2D140024A515CE4
:1010D000C84010BD1C4402587A2B000870B5012589
:1010E00000EE905A0022012100230024DFED861A31
:1010F000B0EE610ADFED841AB0EE611A0020834D74
:101100002D6805F0380535B1082D15D0102D15D0F6
:10111000182D7CD114E07D4D103D2D68C5F3401590
:1011200045B17A4D103D2D68C5F3C106784D25FABD
:1011300006F000E07648E5E07648E3E07648E1E056
:10114000724D18352D6805F00302704D18352D6865
:10115000C5F305116D4D1C352D6805F001036B4D70
:1011600024352D68C5F3CC0515FB03F501EE905A27
:10117000F8EE611AB0EE610A22B1012A4FD0022ABC
:101180007DD16BE0614D103D2D68C5F340152DB349
:101190005E4D103D2D68C5F3C1065D4D25FA06F480
:1011A000B4FBF1F501EE905AB8EE612ADFED5B1A5F
:1011B000C0EE212A554D20352D68C5F3080501EEF6
:1011C000905AF8EE611A72EEA11AF7EE002A71EE4B
:1011D000A21A62EE211AB0EE611A1FE04C4DB5FB67
:1011E000F1F501EE905AB8EE612ADFED4C1AC0EE2F
:1011F000212A464D20352D68C5F3080501EE905A89
:10120000F8EE611A72EEA11AF7EE002A00E077E01C
:1012100071EEA21A62EE211AB0EE611A5EE03D4D47
:10122000B5FBF1F501EE905AB8EE612ADFED3B1AFD
:10123000C0EE212A354D20352D68C5F3080501EE95
:10124000905AF8EE611A72EEA11AF7EE002A71EECA
:10125000A21A62EE211AB0EE611A3FE02E4DB5FBE4
:10126000F1F501EE905AB8EE612ADFED2C1AC0EECE
:10127000212A264D20352D68C5F3080500E00EE033
:1012800001EE905AF8EE611A72EEA11AF7EE002AFA
:1012900071EEA21A62EE211AB0EE611A1EE01D4D27
:1012A000B5FBF1F501EE905AF8EE612ADFED1B1A5D
:1012B00080EE212A154D20352D68C5F3080501EE75
:1012C000905AF8EE611A72EE211AB7EE002A71EE0A
:1012D000821A62EEA11AB0EE611A00BF00BF0B4D78
:1012E00020352D68C5F346256D1C00EE905AF8EEAA
:1012F000601A81EE212AFCEEC21A11EE900A01E07A
:10130000044800BF00BF70BD000000001044025838
:101310000090D00300093D0040787D0100000046A8
:1013200070B504460025207800F00100002872D036
:10133000F948006800F0380010280CD0F648006822
:1013400000F03800182812D1F3481830006800F077
:10135000030002280BD1F04810380068C0F3404069
:1013600000286DD0606800286AD1012070BD00BFE0
:101370006068B0F5803F08D1E7481038006840F455
:101380008030E549103908602EE0606868B9E248AD
:101390001038006820F48030DF49103908600846B2
:1013A000006820F4802008601EE06068B0F5A02F7F
:1013B0000DD1D9481038006840F48020D649103942
:1013C00008600846006840F4803008600CE0D248AD
:1013D0001038006820F48030CF4910390860084682
:1013E000006820F48020086000BF6068A0B1FFF7AB
:1013F000F9FB054608E0FFF7F5FB401B41F2883199
:10140000884201D90320B1E7C34810380068C0F30F
:1014100040400028EFD013E0FFF7E4FB054608E06A
:10142000FFF7E0FB401B41F28831884201D90320DD
:101430009CE7B94810380068C0F340400028EFD15D
:10144000207800F00200022847D1B348006800F07D
:10145000380058B1B048006800F0380018283ED174
:10146000AD481830006800F00300B8BBAA48103837
:101470000068C0F3800018B1E06808B9012075E782
:10148000A5481038006820F01900E1680843A24917
:1014900010390860FFF7A6FB054606E0FFF7A2FB40
:1014A000401B022801D9032060E79B4810380068E0
:1014B000C0F380000028F1D097480C38006820F471
:1014C0007C304FF47C3292FAA2F2B2FA82F22169B5
:1014D0009140084390490C3908604AE0FFE7E06812
:1014E00068B38D481038006820F01900E16808439F
:1014F000894910390860FFF775FB054606E0FFF7DC
:1015000071FB401B022801D903202FE782481038C5
:101510000068C0F380000028F1D07F480C380068D4
:1015200020F47C304FF47C3292FAA2F2B2FA82F2CA
:1015300021699140084378490C39086019E07648E0
:101540001038006820F00100734910390860FFF777
:1015500049FB054606E0FFF745FB401B022801D981
:10156000032003E76C4810380068C0F380000028AF
:10157000F1D1207800F01000102877D1664800687B
:1015800000F0380008280CD06348006800F03800EC
:10159000182823D160481830006800F003000128A3
:1015A0001CD15D4810380068C0F3002020B1E0690C
:1015B000802801D00120D9E657480C38006820F077
:1015C000F8404FF0F84292FAA2F2B2FA82F2216A9F
:1015D0009140084350490C39086047E0E06958B32E
:1015E0004D481038006840F080004B4910390860C1
:1015F000FFF7F8FA054606E0FFF7F4FA401B022869
:1016000001D90320B2E6444810380068C0F3002036
:101610000028F1D040480C38006820F0F8404FF026
:10162000F84292FAA2F2B2FA82F2216A9140084399
:1016300039490C39086019E037481038006820F043
:101640008000354910390860FFF7CCFA054606E0FE
:10165000FFF7C8FA401B022801D9032086E62E486E
:1016600010380068C0F300200028F1D1207800F085
:101670000800082836D16069D0B127486430006876
:1016800040F00100244964310860FFF7ABFA0546D9
:1016900006E0FFF7A7FA401B022801D9032065E600
:1016A0001D4864300068C0F340000028F1D019E004
:1016B00019486430006820F001001749643108605F
:1016C000FFF790FA054606E0FFF78CFA401B022868
:1016D00001D903204AE6104864300068C0F3400096
:1016E0000028F1D1207800F02000202834D1A06912
:1016F000D8B109481038006840F4805006491039C4
:101700000860FFF76FFA054608E0FFF76BFA401B29
:10171000022803D9032029E610440258AF48006884
:10172000C0F340300028F0D016E0AC48006820F448
:101730008050AA490860FFF755FA054606E0FFF712
:1017400051FA401B022801D903200FE6A348006884
:10175000C0F340300028F2D1207800F004000428C3
:101760007DD19F48006840F480709D490860FFF774
:1017700039FA054606E0FFF735FA401B642801D91F
:101780000320F3E59648006800F480700028F2D04A
:1017900000BFA068012808D190487030006840F070
:1017A00001008E49703108602DE0A06868B98B484F
:1017B0007030006820F001008849703108600846E8
:1017C000006820F0040008601DE0A06805280DD125
:1017D00082487030006840F0040080497031086031
:1017E0000846006840F0010008600CE07B4870305B
:1017F000006820F0010079497031086008460068EF
:1018000020F00400086000BFA068A0B1FFF7EAF96B
:10181000054608E0FFF7E6F9401B41F288318842AF
:1018200001D90320A2E56D4870300068C0F3400084
:101830000028EFD013E0FFF7D5F9054608E0FFF7E1
:10184000D1F9401B41F28831884201D903208DE54E
:10185000624870300068C0F340000028EFD1606A31
:1018600000287CD05D481030006800F0380018284F
:1018700076D0606A022874D15848006820F08070E1
:1018800056490860FFF7AEF9054606E0FFF7AAF9EA
:10189000401B022801D9032068E550480068C0F3C6
:1018A00040600028F2D100BFD4E90A1041EA0010DC
:1018B0004A492831096840F2F332914308434749C5
:1018C00028310860208E401EC0F30800616B491E5D
:1018D0004FF47E4202EA41210843218F491ED20182
:1018E00002EA014108433C21095D491E120202EA55
:1018F0000161084339493031086000BF081D0068A4
:101900004FF6F87188434FF6F87292FAA2F2B2FAE3
:1019100082F2A16C914008433049343108602F486D
:101920002C30006820F00C00216C08432B492C312E
:1019300008600846006820F00200616C08432749EF
:101940002C3108600846006840F480300860084682
:10195000006840F4003008600846006802E03BE0A0
:1019600038E01FE040F4802008600846006840F03E
:10197000010008601948006840F08070174908604D
:10198000FFF730F9054606E0FFF72CF9401B022867
:1019900001D90320EAE411480068C0F34060002840
:1019A000F2D019E00D48006820F080700B49086003
:1019B000FFF718F9054606E0FFF714F9401B022867
:1019C00001D90320D2E405480068C0F34060002834
:1019D000F2D101E00120C9E40020C7E4004402582C
:1019E000004802580349096821F460010143014A93
:1019F0001160704704040058042808D14FF0E0211A
:101A0000096941F004014FF0E022116107E04FF055
:101A1000E021096921F004014FF0E02211617047D3
:101A200070B504462546681EB0F1807F01D30120C1
:101A30000FE0681E4FF0E02148610F214FF0FF30AA
:101A400000F0BEFB00204FF0E02188610720086114
:101A5000002070BD10B586B0044641492068884218
:101A60003BD100BF3F48006840F001003D4908609D
:101A70000846006800F00100009000BF00BF00BFF2
:101A800038481030006840F01000364910310860C6
:101A90000846006800F01000009000BF00BF4FF43F
:101AA0000070019002200290012003900220049017
:101AB0000720059001A92C48FEF75CFF4FF48060D9
:101AC000019001A92848FEF755FF2520FFF735F9B9
:101AD000032211462520FFF740F924492068884257
:101AE0003BD100BF1F48006840F002001D4908605C
:101AF0000846006800F00200009000BF00BF00BF71
:101B000018480830006840F4802016490831086001
:101B10000846006800F48020009000BF00BF4FF42A
:101B20008060019002200290012003900220049026
:101B30000720059001A90E48FEF71CFF4FF4006036
:101B4000019001A90A48FEF715FF2720FFF7F5F8D5
:101B5000032211462720FFF700F906B010BD000050
:101B600000100140E04402580000025800480040C4
:101B7000000402583B4A0168914236D13A4909882B
:101B800001F4004189BB3849098801F4804171B1F1
:101B9000364909780A2903D00021334A118024E00C
:101BA0003149098841F400412F4A11801DE02F4935
:101BB00009780D2906D12C49098841F480412A4A27
:101BC000118012E029490978274A1288C2F30D02D0
:101BD000274B995424490988491C234A11801146EE
:101BE0000988C72901DD00211180224A016891423C
:101BF00036D12149098801F4004189BB1E49098871
:101C000001F4804171B11D4909780A2903D00021EE
:101C1000194A118024E01849098841F40041164A04
:101C200011801DE0154909780D2906D1124909884E
:101C300041F48041104A118012E0104909780E4A9F
:101C40001288C2F30D020E4B99540B490988491CA6
:101C5000094A118011460988C72901DD0021118038
:101C600070470000001001401400002416000024FA
:101C7000FC11002400480040180000241A00002431
:101C80004413002430B585B00024874D8748006890
:101C900040F00200854908600846006840F02000D6
:101CA000086082480C38006840F480407F490C3955
:101CB0000860402000900220019003200390002043
:101CC00002900A20049069467948FEF753FE0420EA
:101CD00000900920049069467548FEF74BFEC0202D
:101CE00000900920049069467248FEF743FE4FF4C5
:101CF000407000900A20049069466E48FEF73AFE54
:101D00006A486438006840F4804068496439086073
:101D10000846006820F48040086000BF6248203810
:101D2000806800F020000028F8D163485E4920391F
:101D30000860624848600846006840F0010008609A
:101D400000BF59482038806800F020000028F8D1F2
:101D50004FF49C7054492039486100BF52482038E4
:101D6000806800F002000028F8D04F482038C06892
:101D700040F002004C492039C86000BF4A48203872
:101D8000806800F020000028F8D14FF483704649A5
:101D90002039486100BF44482038806800F00200C4
:101DA0000028F8D040482038C06840F002003E4982
:101DB0002039C86000BF3C482038806800F020000F
:101DC0000028F8D13E483849203948610020086190
:101DD00000BF35482038806800F004000028F8D0A3
:101DE0003020287030482038006840F004002E4928
:101DF0002039086000BF2C482038806800F00200BD
:101E00000028F8D028482038C06840F00200264951
:101E10002039C86000BF24482038806800F02000C6
:101E20000028F8D100BF20482038806800F020004A
:101E30000028F8D11C492039C861EB2444F44074CF
:101E400044F4406444F4005444F4404400BF44F477
:101E5000C01444F0407444F040640846446119489A
:101E6000006820F480301749086016487030006818
:101E700020F001001349703108600020091D08603E
:101E80004FF01040091D08600F48091D086005202B
:101E90000C49703108600B48006840F480300949F3
:101EA000086005B030BD000020500052E0440258E8
:101EB0000004025800140258100300010104160027
:101EC000C003000324ED00E02D00030310B5002340
:101ED000234C236000BF00BF00BFBFF34F8F00BF84
:101EE00000BF00BF231F1868C0F34E3100BFC0F30E
:101EF000C90200BF43F6E07303EA41134FF04044C8
:101F000004EA82742343174C236000BF00BF131EF2
:101F1000A2F10102EED10B1EA1F10101E7D100BF38
:101F200000BF00BFBFF34F8F00BF00BF00BF0C4B0F
:101F3000703B1B6843F48033094C703C236000BF46
:101F400000BF00BFBFF34F8F00BF00BF00BF00BF87
:101F500000BF00BFBFF36F8F00BF00BF00BF10BD49
:101F600084ED00E060EF00E000BF00BF00BFBFF302
:101F70004F8F00BF00BF00BF00BF00BF00BFBFF357
:101F80006F8F00BF00BF00BF00201449086000BF72
:101F900000BF00BFBFF34F8F00BF00BF00BF00BF37
:101FA00000BF00BFBFF36F8F00BF00BF00BF0C4872
:101FB000006840F400300A49086000BF00BF00BF5D
:101FC000BFF34F8F00BF00BF00BF00BF00BF00BF07
:101FD000BFF36F8F00BF00BF00BF704750EF00E03E
:101FE00014ED00E02DE9F0419CB080460C4615460A
:101FF0001E4600273848006820F004003649086073
:1020000000BF0020009034480C30006840F440408D
:1020100031490C3108600846006800F440400090E7
:1020200000BF00BF00BF2C480C30006800F4005017
:10203000B0F5005FF7D1012001900004029000206C
:102040000490089002200A9002210B91CDF8348070
:102050000C940E950F96002112910821119101A860
:10206000FFF75EF907461FB101201CB0BDE8F08103
:10207000FFF708FE3F2014900320159000201690D3
:10208000082017904020199000011A9040201890C5
:1020900050201B90022114A8FEF7B0FE07460FB196
:1020A0000120E2E70D48006840F080000B4908601D
:1020B00000BF0A48F430006840F002000749F431DC
:1020C00008600846006800F00200009000BF00BFF2
:1020D000FEF746FC0020C8E70C48025800440258AE
:1020E00010B5FEF785FD05480078012805D1FEF7FB
:1020F00052FBFEF755FBFEF758FB10BDD400002441
:1021000070B50024114DFEF746FB1148FEF752FB57
:1021100000BF03E0641CAC4200D904E00C48FEF7A9
:102120004EFB2028F6D100BF002403E0641CAC4223
:1021300000D906E0012207490548FEF745FB0028C3
:10214000F4D100BFFEF731FB70BD0000FFFF0100BE
:10215000C41200241600002470B50024114DFEF7AF
:102160001AFB1148FEF726FB00BF03E0641CAC42DB
:1021700000D904E00C48FEF722FB2028F6D100BF6E
:10218000002403E0641CAC4200D906E001220749A8
:102190000548FEF719FB0028F4D100BFFEF705FB48
:1021A00070BD0000FFFF01000C1400241A00002481
:1021B00002480068C0F30220704700000CED00E008
:1021C00010B5002804DB0A07130E054A135406E075
:1021D0000A07140E034A00F00F031B1FD45410BD4E
:1021E00000E400E018ED00E000BF704770B5044661
:1021F0000420FFF701FC1048046025460F480068E2
:102200000F49B1FBF0F045430C4800684FF47A7178
:10221000B1FBF0F00B4908804FF0E020006940F07E
:1022200002004FF0E021086108464561006940F076
:102230000100086170BD0000080000241CCF01905F
:1022400040420F000C00002470B504460F4800788F
:10225000A0B10F48007888B90E480088844206DB98
:102260000C48008894FBF0F5284600F01FF8094858
:10227000008894FBF0F100FB114084B24FF47A71B6
:1022800004FB01F000F01AF870BD0000D400002437
:10229000CC0000240C00002408B56846FEF799FA2B
:1022A00008BD08B56846FEF799FA08BD38B504467A
:1022B0006A4608212046FEF796FA38BD2DE9F04718
:1022C000074600264FF0E020D0F814901048006830
:1022D00007FB00F8FFF7E0FF4FF0E020856911E011
:1022E0004FF0E0208469AC420CD0AC4202D2281BF3
:1022F000064403E0A9EB040028440644254646456D
:1023000000D300E0ECE700BFFFF7CBFFBDE8F087AC
:10231000080000240EB513E00A48807D38B1094951
:10232000887D00F031FA02A90748FEF761FA02A899
:10233000002164230A46CDE900100846FEF75DFA45
:10234000EAE700004CE60324A409002400BF054A84
:10235000D26902F04002002AF9D0C2B2014B1A85BC
:10236000704700000010014086B00FA207CA02AB00
:1023700007C317E00020FEF745FA0446022C07D1F8
:102380004FF47A73092202A90A48FEF740FA00BF07
:1023900000BF05A800210A230A46CDE9001008461F
:1023A000FEF72BFAE6E700007763686C6F76650D41
:1023B0000A0000000C1400240EB50024002529E0BA
:1023C0002046611CCCB20A2804D102211248FEF733
:1023D000FFFB002400BF00BFFEF71EFA054600BF4A
:1023E000FEF71FFA00BF0D4908698047FEF71EFA85
:1023F00000BFFEF720FA00BF2846FEF721FA00BF13
:1024000000BF02A8002164230A46CDE90010084657
:10241000FEF7F3F9D4E7000000040258200300247B
:1024200010B58AB00024FEF78DFA042071490860C7
:10243000FEF7EAFB042302220521A020FFF7D2FDCC
:102440004FF4C870FFF7D2FE4FF4E13000F05CFBB0
:102450004FF4E13000F03CFBFEF7F7F9FEF7FAF934
:10246000FEF7FDF9FEF700FAFEF703FAC820FEF7C3
:1024700005FA002003230522012100901620FEF713
:1024800002FA4FF478405C4908605CA010210B46CA
:10249000C822CDE9001032211E20FEF7F9F95CA018
:1024A00010210B46C822CDE9001046211E20FEF760
:1024B000EFF95DA010210B46C822CDE900105A218A
:1024C0001E20FEF7E5F95CA010210B46C822CDE9DD
:1024D00000106E211E20FEF7DBF94FF47A70FEF734
:1024E000DCF9FEF7DFF909A8FEF7E1F91AE055A0DB
:1024F00010211423C822CDE900106E211E20FEF702
:10250000C7F94FF4FA70FFF79FFE4FF6FF7096235E
:10251000E6226E2100901E20FEF7CEF94FF4FA70ED
:10252000FFF792FEFEF7CDF90028E0D14AA0102176
:102530001423C822CDE900106E211E20FEF7A8F951
:102540001AE04AA010211423C822CDE900109621D8
:102550001E20FEF79DF94FF4FA70FFF775FE4FF657
:10256000FF70AA23E622962100901E20FEF7A4F910
:102570004FF4FA70FFF768FEFEF7A8F90028E0D1E3
:102580003FA010211423C822CDE9001096211E205F
:10259000FEF77EF900BF00BFFEF73EF9044600BF1C
:1025A000FEF73FF900BF09A8032100220592CDE9FB
:1025B00006210890104680210C22364BCDE90132CD
:1025C000CDE903100B200023334A34A10090364894
:1025D000FEF781F900BFFEF72EF900BF2046FEF797
:1025E0002FF900BF00BF09A8FEF77AF900200AB052
:1025F00010BD00009CEF00E028000024504F4C412B
:1026000052495320483735302F46373530000000C7
:1026100054435020436C69656E742055434F5349B1
:10262000494920546573740041544F4D40414C4911
:10263000454E54454B000000323031392F352F3193
:10264000330000004C77697020496E697420666120
:10265000696C6564210000004C77697020496E69DF
:1026600074205375636365737321000054435020D5
:10267000436C69656E74206661696C656421210034
:1026800054435020436C69656E74205375636365D1
:1026900073732100340D00245D2900087374617286
:1026A00074207461736B00006C0C002488B00124EA
:1026B0002AA020210B46CA00CDE900108C214FF43E
:1026C000A570FEF7E5F847E04FF08040406AF0B9AA
:1026D000002C38D020200090254806238C21026849
:1026E0004FF41970FEF701F9214822A1026802A8EF
:1026F000FEF700F902A8FEF702F985B24FF47A73EB
:102700002A4602A91F48FEF782F800241BE0202079
:1027100000904006426A06238C214FF41970FEF7A0
:10272000E4F80124A007426A12A102A8FEF7E2F829
:1027300002A8FEF7E4F885B24FF47A732A4602A99C
:102740001048FEF764F807A8002164230A46CDE983
:1027500000100846FEF751F8B6E70000504C5553FC
:102760005F4E554D2E6E756D6265723D0000000026
:102770003C0000247B706C75733A222564227D0D29
:102780000A0000000C14002410B58AB00446022C84
:102790004FD15048407B4F49097BCDE900104D484F
:1027A000C37A827A4CA102A8FEF7A4F802A81021ED
:1027B0000B46D222CDE90010AA211E20FEF768F8B0
:1027C0004448407D4349097DCDE900104148C37C20
:1027D000827C47A102A8FEF78DF802A810210B46C3
:1027E000D222CDE90010BE211E20FEF751F8394853
:1027F000407C3849097CCDE900103648C37B827B98
:1028000041A102A8FEF776F802A810210B46D222B9
:10281000CDE9001011461E20FEF73AF840A0102125
:102820000B46D222CDE90010E6211E20FEF730F83B
:102830004EE02848407B2749097BCDE90010254818
:10284000C37A827A39A102A8FEF754F802A81021AF
:102850000B46D222CDE90010AA211E20FEF718F85F
:102860001C48407D1B49097DCDE900101948C37CF7
:10287000827C34A102A8FEF73DF802A810210B4685
:10288000D222CDE90010BE211E20FEF701F811482A
:10289000407C1049097CCDE900100E48C37B827B47
:1028A00019A102A8FEF726F802A810210B46D22291
:1028B000CDE9001011461E20FDF7EAFF18A01021F7
:1028C0000B46D222CDE90010E6211E20FDF7E0FFE5
:1028D0000AB010BD4CE60324444843502049502020
:1028E0003A25642E25642E25642E25640000000000
:1028F00044484350204757203A25642E25642E250E
:10290000642E2564000000004E4554204D41534B79
:102910003A25642E25642E25642E256400000000CF
:10292000506F72743A383038372100005374617434
:1029300069632049503A25642E25642E25642E258E
:10294000640000005374617469632047573A25643A
:102950002E25642E25642E256400000030B58BB032
:102960000446002500BFFDF7CFFF0AA8FDF7D1FF01
:10297000FDF7D4FF0AAA01210846FDF7D4FFFDF7B1
:10298000D7FF00BF00BFFDF747FF054600BFFDF7BB
:1029900048FF00BF0AA8032100220592CDE90621C5
:1029A0000890104680210C222F4BCDE90132CDE951
:1029B0000310092000232D4A2DA100902F48FDF778
:1029C0008AFF0AA8032100220592CDE9062108907A
:1029D000104680210C222A4BCDE90132CDE90310AB
:1029E00008200023274A28A100902A48FDF773FFFA
:1029F0000AA8032100220592CDE90621089010467D
:102A000080210C22244BCDE90132CDE903100A20AC
:102A10000023224A22A100902548FDF75CFF0AA866
:102A2000032100220592CDE906210890104680215D
:102A30000C22204BCDE9013200230092CDE9031096
:102A40001D4A1EA12048FDF746FF0AA91F48FDF7B1
:102A5000CFFE00BFFDF7EFFE00BF2846FDF7F0FEFA
:102A600000BF00BF0BB030BDA4070024B92300088D
:102A70006C656430207461736B000000DC06002418
:102A8000DC040024692300086B6579207461736B92
:102A900000000000140400246C0A00241523000820
:102AA000646973706C6179207461736B000000005D
:102AB000A4090024FC0F0024AD2600086D71747475
:102AC000207461736B000000340F00246C0C002430
:102AD00010B5044609480A490860084644600021C8
:102AE0008160C160016181610C214161FDF725FFB9
:102AF000012204490248FDF767FE10BD004800406E
:102B00000C1400241A00002410B5044609480A4990
:102B100008600846446000218160C16001618161F4
:102B20000C214161FDF709FF012204490248FDF72C
:102B30004BFE10BD00100140C412002416000024FA
:102B40004FF04070E1EE100A7047010002000400EF
:102B5000060008000A000C00100020004000800061
:102B60000001010002000400060008000A000C0039
:102B70001000200040008000000100000000010261
:102B800003040102030406070809303132333435E7
:102B90003637383941424344454640305800303199
:102BA00032333435363738396162636465664030B4
:102BB00078000000D42B000800000024140400005A
:102BC000D4020008082D000814040024AC7404008A
:102BD00030030008113C90D0030401173210530158
:102BE000012AFF0181E38713100BD9270190AD283B
:102BF00001908018122434401FC0323032384220F5
:102C00001C80980318133FC314C003301AF0181C1B
:102C1000E001200801FF21053660D20190031DCD9F
:102C2000AB021EC0032B6E19D94C1E5CD3019070F1
:102C3000041A78041A64041A80041A60041A6804D6
:102C400010137939019038D501904D86019084D4C4
:102C5000019049221F089CD60190BD081AB40813A0
:102C600001531B90902013B1571B902C1013C95483
:102C70001B90BC3813B5551B9084081AF5081A1020
:102C8000201301831B904C401A95081ACC08138D11
:102C9000561B906C3013FD7C1C90A0D75819481A15
:102CA00070281AFB201A0C2013B58F1B90181813CC
:102CB000F58B1B90300813958D1B90580813B98520
:102CC0001B9050281AE5081AC8081A45181A7C18CB
:102CD0001335862B90F4101A8C6019581A65201A37
:102CE000AC101371D11B90A8501AF5081AF090136C
:102CF0005002180C24258001906178019011797898
:082D0000190C221A02DC01008B
:0200000490006A
:1000000072B6704762B67047EFF3108072B67047F1
:1000100080F31088704730BF704720BF7047B0FA38
:1000200080F0704790FAA0F0B0FA80F0704790FA34
:10003000A0F0704753EA020C00F069802DE9F04B04
:100040004FF00006002B1FBFB3FA83F503FA05F447
:1000500024FA05F65E4012BF1643B2FA82F502FAA0
:1000600005F4C5F120051EBF22FA05FC44EA0C0484
:10007000203556EA044C4FEA144418BF641C4FF074
:1000800000084FF00009904271EB030C39D30029AE
:1000900019BFB1FA81F701FA07F6B0FA80F700FA52
:1000A00007F6C7F120071EBF20FA07FC46EA0C0638
:1000B0002037B6FBF4FCA7EB0507103F07F01F0B3A
:1000C000CBF120060CFA0BFB2CFA06F644BFB34624
:1000D0000026202FA4BF5E464FF0000B5BEA060C03
:1000E00008BF4FF0010B19EB0B09ABFB027C48EB8F
:1000F0000608C01B06FB02CC0BFB03CC71EB0C010A
:10010000C1E70B46024641464846BDE8F08B13B5B1
:100110004FF000004FF00001AFF30080BDE81C403D
:10012000704700000FB4044910B503AA029800F00C
:100130005BFA10BC5DF814FB100000240FB41CB572
:10014000074B06AA7B4469460090059800F051FAD7
:100150000020694600F0B3F91CBC5DF814FB0000F8
:10016000770300002DE9F05F894604464FF0000A4E
:10017000DFF874B1FB44C0F820A02046E16888474E
:10018000002874D0252806D0D4E901219047206AA0
:10019000401C2062F1E700265F462046E168884760
:1001A0002028054607DB312D05D2781910F8200CE0
:1001B00008B10643F1E7B00701D526F00406C4F8FC
:1001C0001CA00027C4F818A02A2D09D028460EF03C
:1001D00024FC38B304EB8708303DC8F8185019E008
:1001E00059F8041B204604EB87029161E1688847B7
:1001F000012F054618D1E069002820DA26F02006F4
:100200001DE0D8F8180000EB800005EB4000303806
:10021000C8F818002046E168884705460EF0FDFB47
:100220000028EED1012F0AD02E2D08D12046E168FA
:1002300088477F1C0546022F46F02006C4DBA069D4
:10024000002803DA404246F00106A061F00701D021
:1002500026F010066C2D0BD0682D09D04C2D39D00E
:100260006A2D35D0742D35D07A2D33D016E038E094
:10027000E1682F4620468847B842054609D16C2FD1
:1002800026D04FF48060E168064320468847054643
:1002900004E06C2F1AD04FF4807006430DB3A5F123
:1002A0004100192802D8203546F400664A462946FE
:1002B000204626604E4600F0A1F980B101280BD0FF
:1002C000F61D26F0070000F1080956E74020E4E794
:1002D0008020D8E70020D6E706F104094DE728463C
:1002E00052E7206ABDE8F09FD4D0010040EA010344
:1002F00010B59B070FD1042A0DD310C808C9121FCF
:100300009C42F8D020BA19BA884201D9012010BD08
:100310004FF0FF3010BD1AB1D30703D0521C07E0D5
:10032000002010BD10F8013B11F8014B1B1B07D139
:1003300010F8013B11F8014B1B1B01D1921EF1D1AA
:10034000184610BD10B5431C02E010F8011B71B136
:100350008107FAD14FF0013202C88C1A8C4314EA9B
:10036000C211F9D0C01A0A0603D0C01E10BDC01AAF
:1003700010BD0A0401D0801E10BD0902FCD0401E31
:1003800010BD032A40F2308010F0030C00F01580FD
:1003900011F8013BBCF1020F624498BF11F801CB88
:1003A00000F8013B38BF11F8013BA2F1040298BFED
:1003B00000F801CB38BF00F8013B11F0030300F057
:1003C0002580083AC0F0088051F8043B083A51F8FB
:1003D00004CBA0E80810F5E7121D5CBF51F8043B00
:1003E00040F8043BAFF30080D20724BF11F8013B73
:1003F00011F801CB48BF11F8012B24BF00F8013BD5
:1004000000F801CB48BF00F8012B704710B5203A27
:10041000C0F00B80B1E81850203AA0E81850B1E8BD
:100420001850A0E81850BFF4F5AF5FEA027C24BF73
:10043000B1E81850A0E8185044BF18C918C0BDE86A
:1004400010405FEA827C24BF51F8043B40F8043B33
:1004500008BF7047D20728BF31F8023B48BF11F8E8
:10046000012B28BF20F8023B48BF00F8012B704742
:100470004FF0000200B5134694469646203922BF3D
:10048000A0E80C50A0E80C50B1F12001BFF4F7AF88
:10049000090728BFA0E80C5048BF0CC05DF804EB6A
:1004A000890028BF40F8042B08BF704748BF20F8D8
:1004B000022B11F0804F18BF00F8012B70470A681B
:1004C00002F8010B0A607047007B00F08000704763
:1004D000EFF3098141B1F1EE101A40F8041D20ED4F
:1004E000200A3E490A6810607047B0EC200A02C832
:1004F000E1EE101A3A490A681060704772B64EF67B
:100500002250CEF2000040F2FF01C0F20001017063
:100510004FF0000080F309880AF0AAFB40F2701047
:10052000C2F20040016881F3088840F2EE00C2F296
:10053000004040F2EF01C2F200410A78027040F23E
:100540006815C2F2004540F26C11C2F200410A681F
:100550002A60106880F30988EFF3148040F00200ED
:1005600080F31488BFF36F8FBDE8F00F0FBCBDE8B8
:10057000005006BC62B608471A484FF0805101602F
:10058000704718484FF080510160704772B6EFF322
:10059000098020E9F00F40F26815C2F200452E688C
:1005A000306074460AF064FB40F2EE00C2F2004094
:1005B00040F2EF01C2F200410A78027040F26C1181
:1005C000C2F200410A682A6044F0F40E1068B0E8F4
:1005D000F00F80F3098862B67047000068010024BC
:1005E0006C01002404ED00E040F2F16CC0F6000C58
:1005F000604740F29F6CC0F6000C604740F24D3CF3
:10060000C0F6000C604741F24D0CC0F6000C60478C
:1006100041F6E51CC0F6000C604740F6E53CC0F62C
:10062000000C604740F6751CC0F6000C604740F6B1
:100630005B5CC0F6000C604740F63B5CC0F6000C0B
:10064000604741F2DD0CC0F6000C604741F6552CC6
:10065000C0F6000C604740F6D93CC0F6000C60477D
:1006600042F2BD2CC0F6000C604740F6C13CC0F61B
:10067000000C604742F2492CC0F6000C604740F283
:100680009B3CC0F6000C604740F29F3CC0F6000C5B
:10069000604740F6CD4CC0F6000C604740F6714C08
:1006A000C0F6000C604740F6F94CC0F6000C6047FD
:1006B00041F6753CC0F6000C604741F2850CC0F66F
:1006C000000C604741F2B10CC0F6000C604740F2EC
:1006D000755CC0F6000C604710B5FFF794FF044648
:1006E000204610BD00BFFEE710B500F0FBF800F09B
:1006F00003F800F0F3F810BD70B50026002018498B
:100700000880184908801849086018490860184985
:1007100008601849086018490860002400BFFFF706
:1007200073FC064600BF00250BE00020104908605E
:1007300000F074F800F08CF80D4800680444681C60
:1007400085B2002DF1D00C480460002008490860F3
:100750000849086000BF3046FFF75AFC00BF70BD73
:100760008C0000248E0000249000002494000024BB
:100770009C000024A00000249800002401460846A4
:10078000044A1268904203D9024A1268801A00E0B3
:10079000002070479800002470B5002500BFFFF7C7
:1007A00033FC054600BF0648046800BF2846FFF733
:1007B0002FFC00BF2046FFF7E1FF0646304670BD24
:1007C0009C00002470B50025FFF7E6FF044600BF3B
:1007D000FFF71AFC054600BF00200449086000BF6F
:1007E0002846FFF715FC00BF204670BD9C00002482
:1007F00070B5002500BFFFF707FC054600BF06489F
:10080000046800BF2846FFF703FC00BF2046FFF73F
:10081000B5FF0646304670BDA000002410B509485B
:100820000088401C074908800748008818B900F074
:1008300083F80649086004480088401C0249088083
:1008400010BD00008C0000248E00002490000024C5
:1008500010B50F480088401E0D49088008460088E2
:10086000A0B900F069F80B490860084600680A4919
:100870000968441A09480068A04201D20748046088
:1008800007480068A04201D20548046010BD00007E
:100890008E00002494000024900000249C0000247A
:1008A000A000002410B5002400BF00BFFFF7ACFB80
:1008B000044600BFFFF7B2FF00BF1021064808F052
:1008C000D8FB00BFFFF7C4FF00BF2046FFF7A0FB27
:1008D00000BF00BF10BD000080D0032410B5FFF79B
:1008E000E1FF10BD10B500200249086000F00AF8D1
:1008F00010BD000088000024014908607047000016
:100900008800002410B5FFF7E7FE04460848006899
:1009100040F080700649086000200649486008469B
:10092000006840F0010008602046FFF7E5FF10BDB9
:10093000FCED00E0001000E001494868704700004D
:10094000001000E0704710B5002210E002EB4204F6
:10095000036903EBC40100230B604B608B60CB6029
:100960000B614B6100F12C0343F82210521C042A46
:10097000ECD30024C46304644464C4648464032426
:10098000036803F58053C3F83041036803F58053CF
:100990000469C3F81C4103694833046804F58054B2
:1009A000C4F8283110BD10B500220EE002EB42045D
:1009B000C36803EBC40100230B604B608B60CB600A
:1009C00000F1180343F82210521C042AEED300242D
:1009D00084620324036803F58053C3F82C41036841
:1009E00003F58053C468C3F81441036803F58053CA
:1009F000C468C3F8204110BD10B511F07DFC4FF460
:100A000000410A48006800F58050C0F8601140219C
:100A10000648006800F58050C0F8601101210348C5
:100A2000006800F58050C0F8601110BD4416002425
:100A300010B5A2B0044601208DF8330000201290BA
:100A40008DF841008DF8430001208DF828008DF8C5
:100A500056008DF8320000208DF84C0001208DF8F2
:100A6000840040030F9000208DF85C0018908DF8F2
:100A700085008DF886004FF4C360169000208DF835
:100A800030000B9001208DF8350000208DF83600E5
:100A90008DF840001D901B9014908DF864008DF827
:100AA0007A0001208DF842002020209001208DF84E
:100AB000440000208DF855004FF0405009904FF44D
:100AC00080400E9000208DF8310002201F90002001
:100AD0008DF878008DF879008DF8540001208DF89C
:100AE000340000201A9001208DF8700009A92046DA
:100AF00000F058FA01208DF80400029000200090C8
:100B00008DF81C008DF80D008DF80C004FF40010CE
:100B1000069000208DF814004FF40010049000207F
:100B20008DF81D004FF4067008906946204600F0CD
:100B3000DBF922B010BD000070B506463068D0F871
:100B4000004224F47064FFF75EFD054613488542B9
:100B500005D31348854202D244F400741AE01048C9
:100B6000854205D30F48854202D244F4407411E017
:100B70000C48854203D30C48854200D20AE00A485B
:100B8000854205D30948854202D244F4807401E0CD
:100B900044F480643068C0F8004270BD002D31011B
:100BA000C00E16020087930300E1F50580D1F0081E
:100BB0002DE9F04706460B46914606F118052A69CD
:100BC000D5F810C0002755F822109C68C86800F0BE
:100BD0000040B0F1004F02D10220BDE8F087187844
:100BE00000F00400C8B3C8686FF30F00D3F824A066
:100BF00040EA0A00C860C86840F48030C8603068C5
:100C0000006E40F48010D6F800A0CAF86000187892
:100C100000F0080008B3B3F82CA088686AF31F40FE
:100C20008860C86840F40030C860C86820F440207C
:100C3000D3F830A040EA0A00C8603068406E40F443
:100C40008010D6F800A0CAF864003068006D40F04B
:100C50008060D6F800A0CAF85000187800F01000A4
:100C600058B188686FF30D00D3F818A040EA0A0065
:100C70008860C86840F08060C860187800F00400A0
:100C800018B9187800F01000F0B1C86840F0804042
:100C9000C860C86840F00040C86000BF521C042A09
:100CA00000D3121F00BF55F822107F1CC86800F047
:100CB0000040B0F1004F07D155F82C10C86820F063
:100CC0000040C860022088E77F1C206808608868B0
:100CD0006FF30D00D4F804A040EA0A008860A06811
:100CE00068B1A468206848608868DFF8F8A100EA65
:100CF0000A00B4F804A040EA0A40886007E0002037
:100D000048608868DFF8DCA100EA0A00886018788B
:100D100000F01000A0B1C86820F4F000B3F820A0E3
:100D200040EACA40C860C8686FF31100D3F81CA03D
:100D300040EA0A00C860C86840F48020C8601FE02C
:100D4000C8686FF30E00D3F804A040EA0A00C86038
:100D5000187800F0010038B1C86820F44030D3F8AA
:100D600014A040EA0A00C860187800F0200038B1EA
:100D7000C86820F04060D3F810A040EA0A00C860BC
:100D8000187800F0040038B1886820F44040D3F8A7
:100D900028A040EA0A008860C86840F00050C86097
:100DA000C86820F08040C860C86840F00040C86053
:100DB000187800F0020038B1C86820F06070D3F8ED
:100DC0000CA040EA0A00C86076E000BF521C042A6A
:100DD00000D3121F00BF55F82210C86800F0004071
:100DE000B0F1004F17D1624655F822104FF00008BD
:100DF0000DE0C86820F00040C86000BF521C042A03
:100E000000D3121F00BF55F8221008F10108B845A1
:100E1000EFD30220E1E67F1CA468206808608868A0
:100E20006FF30D00D4F804A040EA0A008860A068BF
:100E300068B1A468206848608868DFF8A8A000EA64
:100E40000A00B4F804A040EA0A40886007E00020E5
:100E500048608868DFF88CA000EA0A00886018788B
:100E600000F0100060B1C8686FF31100D3F81CA047
:100E700040EA0A00C860C86840F48020C86013E0F7
:100E8000C8686FF30E00D3F804A040EA0A00C860F7
:100E9000187800F0010038B1C86820F44030D3F869
:100EA00014A040EA0A00C860C86840F00040C8606A
:100EB000C86820F08040C860A068002885D1B9F1DA
:100EC000000F04D0886840F00040886003E0886824
:100ED00020F000408860C86840F08050C8602A61F7
:100EE00000207AE6FFFF00C010B5036803F58053C9
:100EF0001B6847F60204A3430C682343046804F507
:100F0000805423600C798B6843EA04330C7B43EAFA
:100F1000C432036803F580535B684DF20104A343B8
:100F20001343046804F5805463604C7B0B6A43EA06
:100F30000442036803F58053D3F80031164C234074
:100F40001343046804F58054C4F800310C7D0B6928
:100F500043EA04134C7F43EA0432036803F58053E9
:100F6000D3F804310D4C23401343046804F5805436
:100F7000C4F804310C7F8B6943EAC472036803F53B
:100F80008053D3F80831064C23401343046804F51A
:100F90008054C4F8083110BD00C0FEFFEFEFC0FF61
:100FA000FFFFC07F10B50C688B6823430C7943EAC0
:100FB000C4630C7B43EAC4534C7B43EA84538C7B6D
:100FC00043EA4453CC7B43EA04530C7C0CB9012420
:100FD00000E0002443EAC4434C7C0CB9012400E047
:100FE000002443EA44438C7C43EA04434C69234392
:100FF0008C6923430C7F43EA04334C7F43EAC423C8
:101000008C7F0CB9012400E0002443EA8423CC7FC8
:1010100043EA442391F820400CB9012400E0002465
:1010200043EA042351F8244F23430C7943EA041381
:101030008C6843EA040203681B683D4C2340134359
:10104000046823600B7E5B060C7D43EA04630C7B23
:1010500043EA84434C7B43EA44438C7B24390CB9F8
:10106000012400E0002443EA04434C6B43EA0402F9
:1010700003685B682F4C234013430468636091F856
:1010800040404B6C43EA04220368DB6840F20F14D3
:10109000A34313430468E36091F854400B6D43EAA3
:1010A000440391F84C400CB9012400E0002443EAC9
:1010B000C41331F8484F43EA044203681B6F4FF6EC
:1010C0000D7423401343046823678B7B4C7B43EAF6
:1010D00044020368D3F8903023F0030313430468F9
:1010E000C4F890300368D3F8003D23F072030C6914
:1010F00023430468C4F8003D0C7E4B6948390CB9A1
:10110000012400E0002443EA841391F8614043EA9B
:10111000041391F8624043EAC4020368D3F8303DF7
:1011200023F07B0313430468C4F8303D10BD000076
:10113000838004000080F8C038B504460A4800786F
:1011400080B12046FFF7FEF80546002001232A461D
:10115000214600900548006811F090FE10B104A0EF
:10116000FEF7E0FF38BD0000850100247C0100246B
:101170004574686661696C0D0A00000070B51D4811
:10118000FFF7E0F8C5B200201A4948551A488168AF
:101190001848884704461CB91749C868804721E0A9
:1011A000144817F0C3F80546012D00D02C46CCB1E9
:1011B000012C06D0022C08D0032C0AD0042C10D10C
:1011C0000BE00EA0FFF7B8FF0BE00FA0FFF7B4FF96
:1011D00007E010A0FFF7B0FF03E011A0FFF7ACFF9E
:1011E00000BF00BF1348007820F08000114908704C
:1011F00070BD000060E7032420030024BAAFCAFDDD
:10120000B4EDCEF3210D0A00B2CECAFDB4EDCEF39B
:10121000210D0A00B2CECAFDCCABB6E0210D0A000A
:10122000CEB4D5D2B5BDC6A5C5E4B5C4BAAFCAFD66
:10123000210D0A00840100242DE9F04188B0044604
:101240000D4616461F46DDF83880234801F003F9A5
:10125000224821490860002088600846C0F80C80B8
:10126000002101744174817444618561C661076223
:1012700041638163C1630121016404214164002150
:1012800001658165C1650121016600214166042176
:10129000816601F0F3F818B1012008B0BDE8F081D3
:1012A0000020009001900220029001200390002075
:1012B000049005906946084801F078F808B10220CA
:1012C000EBE7054801F07EFA00220121024801F017
:1012D00017F80020E1E700007417002400A0004088
:1012E00010B50146486BC8660868D0F884004FF610
:1012F000FC739843CB6E40EA83000B68C3F884000C
:101300000868D0F8840020F47F03088F43EA004087
:101310000B68C3F88400CB6E886B03440B670868C6
:10132000D0F888004FF6FC7398430B6F40EA8300B7
:101330000B68C3F888000868D0F8880020F47F03A1
:10134000888F43EA00400B68C3F888000B6FC86BB6
:1013500003EB40034B670868D0F8A0004FF6FC731E
:1013600098434B6F40EA83000B68C3F8A0000868FD
:10137000D0F8A00020F4FE034020405A43EA004089
:101380000B68C3F8A000D1E910404B6F04FB003399
:101390008B670868D0F8B00020F0FC03886F43EA40
:1013A00080000B68C3F8B0000868D0F8B00020F4E3
:1013B000FE03B1F8480043EA00400B68C3F8B000F0
:1013C000D1E912408B6F04FB0033CB670868D0F87B
:1013D000AC0020F0FC03C86F43EA80000B68C3F840
:1013E000AC00D1E91440CB6F04FB003380204350A4
:1013F0000868D0F8F0004FF6FC73984380235B58E0
:1014000040EA83000B68C3F8F0000868D0F8F000E9
:1014100020F47C13B1F8580043EA00400B68C3F88D
:10142000F00080204358886D03EB40038420435034
:101430000868D0F8C00020F0FC038420405843EA3C
:1014400080000B68C3F8C0000868D0F8C00020F422
:101450007C13B1F85C0043EA00400B68C3F8C0009D
:1014600084204358CC6D886E04FB003388204350A1
:101470000868D0F8C00020F07C5391F8600043EA7F
:1014800000600B68C3F8C000294B486B03EB800079
:10149000C866CB6E886B03EB80030B670B6FC86B62
:1014A00003EBC0034B67D1E9100358434B6F03EBC9
:1014B00080038B67D1E9120358438B6F03EB8003E2
:1014C000CB67D1E914035843CB6F03EB8003802033
:1014D00043504358886D03EBC003842043508B6E08
:1014E000C86D584384235B5803EB80038820435026
:1014F0008B6E086E584388235B5803EB8003902063
:10150000435040580B4B984207D9D1F8980040F00F
:101510002000C1F89800012010BDCA6E02E0002032
:101520001060121D902040589042F8D80020F3E738
:1015300000AC0040FCB5004070B504461D460023D9
:10154000B5F5804F13D154F822300C480340D1E94F
:10155000000640EA06108E6840EA06208E8940EABE
:1015600006408E693043034344F8223003E06FF0B5
:10157000704044F82200002070BD00000000F0CF51
:1015800010B502460023086852F820301B4803407B
:10159000D1E901042043CC6820430C6920434C6905
:1015A00020438C692043CC6920430C6A20434C6A59
:1015B00020438C6A2043CC6A20430C6B20438C6B05
:1015C00020434C6B204303438868082801D143F033
:1015D0004003086842F82030086BB0F5801F05D141
:1015E000086818B110680C6B20431060086818B1C7
:1015F00010684C6B20431060002010BD8004C0FFB9
:1016000030B5034614460022601C53F8202002F037
:101610004042D1E9000540EA05108D6840EA052006
:101620008D8940EA0545088A401E45EA0055087D37
:10163000801E45EA00608D6928430243601C43F820
:101640002020186800F4801038B1586820F4700227
:10165000088A401E42EA00525A60002030BD30B570
:101660000246002300240868012816D013686FF38F
:101670000E03D1E901052843CD6828430D692843AD
:101680004D6928438D692843CD6928430D6A284355
:101690004D6A28430343136019E0136823F4F843A9
:1016A000D1E9070528434D6A2843034354686FF383
:1016B0000E04D1E901052843CD6828430D6928436C
:1016C0004D6928438D69284304431360546000200A
:1016D00030BD0246506940EA410050610020704729
:1016E00018B5034600200090D1E9000420438C681F
:1016F000641E40EA4410CC6840EA44200090009800
:101700001861002018BD000070B503461546002280
:101710000024012D1FD09A6802F070420868401E14
:101720004E68761E40EA06168868401E46EA002685
:10173000C868401E46EA0036088A401E46EA00464F
:10174000888A401E46EA0056087E401E46EA00602F
:1017500002439A6022E09A6811480240C868401E1D
:101760000603888A401E46EA00500243DC6804F003
:1017700070440868401E4E68761E40EA0616886867
:10178000401E46EA0026088A401E46EA0046087EB9
:10179000401E46EA006004439A60DC60002070BD91
:1017A000FF0F0FFF10B504460CB9012010BD94F8CF
:1017B0003500022803D0802060650120F6E7344917
:1017C0002068884205D333492068884201D8012027
:1017D00000E00020C0B1042084F835002C492068C6
:1017E00088420AD32B492068884206D820680068BE
:1017F00020F001002168086048E02068006820F0BF
:1018000001002168086041E02068006820F00E00B7
:10181000216808601E49206888420AD31D49206853
:10182000884206D82068006820F00100216808601E
:1018300005E02068006820F0010021680860206E43
:10184000006820F48070216E086094F85C1001201C
:10185000884011490860D4E919104860E06E40B131
:10186000E06E006820F48070E16E0860D4E91C101E
:10187000486000BF002084F8340000BF012084F8D5
:101880003500206D10B12046216D884700208DE77E
:1018900010000240B80402400454025870B50546D6
:1018A00005F12C02536952F823109669906908B922
:1018B000012070BDD06900B1761C002423E00869C6
:1018C00008604FF08070C860486928B14869886036
:1018D000C86840F00070C860C86840F00040C86048
:1018E000106A18B1C86840F08040C8609069401E16
:1018F000A04207D900BF5B1C042B00D31B1F00BFF5
:1019000052F82310641CB442D9D3286800F58050E3
:10191000C0F828110020906100BFCAE730B5044626
:101920000D4604F12C0050F825100AB1042D02D305
:101930000120606530BD0A600A61C86840F08070AF
:10194000C8602BB18B604B61C86840F00070C86004
:10195000C86840F00040C8600020EBE7024609B9C3
:10196000012070471068006800F00C00C862106821
:101970000068C0F3001081F828001068006800F0CB
:101980006000486210680068C0F3002080F0010029
:1019900081F8200010680068C0F34020C877106804
:1019A0000068C0F3802080F001008877106800682C
:1019B000C0F3C020487710680068C0F30030087793
:1019C0001068006800F4005088611068006800F436
:1019D0008040486110680068C0F300408874106857
:1019E0000068C0F3404080F001004874106800684F
:1019F000C0F3C04080F00100087410680068C0F3B4
:101A00000050C87310680068C0F3405088731068B5
:101A10000068C0F38050487310680068C0F3C0507D
:101A200008731068006800F0E06088601068006863
:101A3000C0F3C06008711068006800F0E040086002
:101A400010684068C0F30D00486310684068C0F338
:101A5000004080F0010081F8320010684068C0F357
:101A6000404081F8310010684068C0F3804081F840
:101A7000300010684068C0F3006081F838001068DA
:101A80004068C0F34460C8631068C068C0F30020B9
:101A900081F840001068C06800F00F0048641068CA
:101AA000006FC0F3400081F854001068006FC0F36D
:101AB000C01080F0010081F84C001068006F00F049
:101AC000700008651068006F000C88641068D0F81A
:101AD000900000F0010081F856001068D0F89000E6
:101AE000C0F3400081F855001068D0F8000D00F0F8
:101AF000720088651068D0F8300D00F02300C865CA
:101B00001068D0F8300DC0F3C00081F86200106892
:101B1000D0F8300DC0F3001081F861001068D0F8E3
:101B2000300DC0F3801080F0010081F860000020CB
:101B300017E72DE9F84F06468B4606F12C07D7F834
:101B400014800020009057F828505C46B86930B9DE
:101B5000304600F027F910B90120BDE8F88F4FF0AA
:101B6000000A27E0686978B10CB90120F5E7286917
:101B7000206070696060A4680CB90120EDE76869B5
:101B800020607069606003E02869206070696060AF
:101B9000E868C0F30E00009000BF08F10108B8F13A
:101BA000040F01D3A8F1040800BF57F82850A46817
:101BB0000AF1010AB869401E5045D3D80CB901207A
:101BC000CBE7E868C0F30E010098A1EB000970694B
:101BD000484504D328692060C4F8049012E068697D
:101BE00070B12869206070696060A4680CB9012038
:101BF000B3E7686920607069A9EB0000606001E0EC
:101C00000120AAE70020A8E72DE9F04180460E4612
:101C100008F12C046569A06930B9404600F0C2F8AB
:101C200010B90120BDE8F08100BFA069401E054445
:101C3000042D00D32D1F00BF54F82570F868C0F3A1
:101C40000E0030600020EDE738B504460CB90120E5
:101C500038BD94F8510010B9204600F023F9232034
:101C600084F8510000BF4D48006840F002004B4925
:101C700008600846006800F00200009000BF00BF46
:101C8000207A18B90020FEF7C3FC03E04FF40000EF
:101C9000FEF7BEFC206800F58050006840F00101AE
:101CA000206800F580500160FEF7B7FC05460CE0A7
:101CB000FEF7B3FC401BB0F5FA7F06D9042060653F
:101CC000E02084F851000120C2E7206800F5805030
:101CD000006800F001000028EAD12046FEF72CFF42
:101CE000FEF791FC2E49B0FBF1F0401E2168C1F8CF
:101CF000DC002046FEF79CFE206800F58050D0F8FE
:101D0000000120F4E01040F40021206800F580502C
:101D1000C0F80011207D00F0030030B101206065A3
:101D2000E02084F85100012092E7206800F58050FF
:101D3000D0F8080147F6FE718843616940EA410125
:101D4000206800F58050C0F808112046FEF72BFEF1
:101D50002046FEF7F8FD606800796168497940EA3D
:101D600001202168C1F800036068C078000661683E
:101D7000897840EA01406168497840EA0120616859
:101D8000097808432168C1F8040300206065102029
:101D900084F8510084F85200002059E7F4440258B6
:101DA00040420F00F0B5074607F12C03196953F8BC
:101DB0002120002500240026986908B10020F0BDEC
:101DC0003DE06D1CD06800F0805000B3641C012C15
:101DD00000D10E4600BF491C042900D3091F00BFD3
:101DE00053F82120D06800F0004058B9D06800F0C6
:101DF000804038B10120D86100BF491C042900D3BC
:101E0000091F00BF19615E619C610120D7E7D0689E
:101E100000F0005050B10E46012400BF491C0429B7
:101E200000D3091F00BF53F8212008E0641C00BF45
:101E3000491C042900D3091F00BF53F82120D06892
:101E400000F0004008B9042DBBD334B3314653F839
:101E5000212000251FE0106910604FF08070D060D5
:101E6000506928B150699060D06840F00070D0602F
:101E7000D06840F00040D060186A18B1D06840F0D7
:101E80008040D06000BF491C042900D3091F00BF57
:101E900053F821206D1CA542DDD30020986100BFBE
:101EA0008DE7000010B586B0044600BF3A480068D0
:101EB00040F00100384908600846006800F0010061
:101EC000009000BF00BF00BF0846006840F004005B
:101ED00008600846006800F00400009000BF00BFE2
:101EE00000BF0846006840F04000086008460068EF
:101EF00000F04000009000BF00BF00BF2648083837
:101F0000006840F400402449083908600846006829
:101F100000F40040009000BF00BF00BF084600680A
:101F200040F4803008600846006800F4803000907B
:101F300000BF00BF00BF0846006840F400300860E2
:101F40000846006800F40030009000BF00BF862003
:101F500001900220029000200390022004900B20A8
:101F6000059001A90D48FEF75DFB3220019001A903
:101F70000B48FEF757FB4FF4D040019001A90948E8
:101F8000FEF750FB002201213D20FEF750FB3D20D3
:101F9000FEF752FB06B010BDE044025800000258A4
:101FA00000080258001802582DE9F04704460F4671
:101FB000904699462068D0F8000200F0010010B168
:101FC0000120BDE8F0872068D0F8005225F0787035
:101FD00040EA475525F4F81040EA084545F00C055D
:101FE00045F001052068C0F80052FEF716FB0646D2
:101FF00007E0FEF712FB801BB0F57A7F01D90120C4
:10200000DFE72068D0F8000200F001000028F0D1DE
:102010002068D0F8040280B2C9F800000020D0E7A0
:1020200070B504460D460DB9012070BD94F85200FC
:10203000102805D129462046FEF7B4FF0020F4E71A
:102040000120F2E770B506463068D0F8004224F46B
:102050007064FEF7D8FA05461348854205D3134845
:10206000854202D244F400741AE01048854205D338
:102070000F48854202D244F4407411E00C48854276
:1020800003D30C48854200D20AE00A48854205D3B2
:102090000948854202D244F4807401E044F480642B
:1020A0003068C0F8004270BD002D3101C00E16022C
:1020B0000087930300E1F50580D1F00830B50146B3
:1020C000002201F12C0050F8224091F85100102814
:1020D00064D1232081F8510000230EE0E06840F035
:1020E0008040E06000BF521C042A00D3121F00BFD2
:1020F00001F12C0050F822405B1C042BEED301258B
:10210000CD640868006840F002000D682860086827
:10211000006840F001000D6828600868D0F8000DE4
:1021200040F001000D68C5F8000D086800F580500A
:10213000D0F8040140F00105086800F58050C0F8AF
:102140000451086800F58050D0F8080140F00105FE
:10215000086800F58050C0F80851086800F5805004
:10216000D0F8600140F48175086800F58050C0F82F
:102170006051102081F85100222081F85200086837
:1021800000F58050D0F834014DF2410528430D6828
:1021900005F58055C5F83401002030BD0120FCE76D
:1021A0002DE9F04104460F46154637B9606D40F001
:1021B000010060650120BDE8F08194F8510010280D
:1021C0005CD1002239462046FEF7F2FC28B1606D52
:1021D00040F0020060650120EDE704F11800A16AFB
:1021E00050F8218000BFA06A401CA062A06A0428A9
:1021F00002D3A06A001FA06200BF04F11800A16A08
:1022000050F82110206800F58050C0F82011FEF72A
:1022100004FA064627E0206800F58050D0F86001F7
:1022200000F4805070B1606D40F008006065206877
:1022300000F58050D0F86001A065E02084F85100DE
:102240000120B8E7681C70B1FEF7E7F9801BA842CF
:1022500000D845B9606D40F004006065102084F836
:1022600051000120A7E7D8F80C0000F0004000283A
:10227000D1D1102084F8510000209CE701209AE77A
:102280002DE9F04705460F46904699462868D0F854
:10229000000200F0010010B10120BDE8F0872868BD
:1022A000D0F8004224F0787040EA475424F4F81043
:1022B00040EA084424F00C00041D44F001041FFA15
:1022C00089F00D4908600D48C0F80042FEF7A5F9F5
:1022D000064607E0FEF7A1F9801BB0F57A7F01D929
:1022E0000120DAE72868D0F8000200F00100002899
:1022F000F0D100BFD1E7000004820240008002401C
:1023000010B5034693F89400012803D093F8940085
:1023100002283ED11868806D084030B91868C06D39
:1023200040F001001C68E0650EE01868806D084010
:10233000884206D11868C06D40F002001C68E06554
:1023400002E003201C68E06501F4007030B11868F9
:10235000D0F8E00010431C68C4F8E00001F480608D
:1023600030B11868D0F8E40010431C68C4F8E400E9
:1023700000BF1868406D0B4C0C4020431C68606522
:102380000948006840EA9170074C206000BF0020B7
:1023900010BDD3F8980040F00200C3F89800012067
:1023A000F6E70000FFFFCF3F14A8004070B50246DB
:1023B00092F89400012803D092F89400022842D1A8
:1023C000C868072800D100BF086818BBC86807287C
:1023D00000D000BFC86807280BD1088A4FF06056AC
:1023E00046EA0040CE6940EA06208E6940EA0603CC
:1023F0000AE0087A80070E7B40EAC6600E8A40EA4F
:1024000006404E6940EA0603D66E486806EB800433
:10241000236016E0C868072800D000BF0E7B08695B
:1024200040EA4673C868072801D18D6903E00E7A37
:10243000486940EA8675166F486806EBC00408C410
:102440002560002070BDD2F8980040F00200C2F86C
:1024500098000120F6E710B504460CB9012010BD24
:10246000204600F0C9F9204600F060F90020C4F8C9
:10247000980084F8940000BFF1E7000070B50446AE
:1024800000250CB9012070BDA6492068884203D1FF
:10249000206800F580706060A068B0F5407F00D1D2
:1024A00000BF206C00B100BFA06C00B100BF206D68
:1024B00000B100BF206E00B100BFD4E9171008447E
:1024C00000B100BF94F8940028B9002084F895006A
:1024D000204600F039F92068806920F0100021685A
:1024E0008861FEF79AF805460EE0FEF796F8401B65
:1024F0000A2809D99434606840F001006060032024
:1025000004F894090120BEE72068806900F0080003
:102510000828EAD02068806940F0010021688861BD
:10252000FEF77BF805460EE0FEF777F8401B0A2819
:1025300009D99434606840F001006060032004F819
:10254000940901209FE72068806900F001000028BD
:10255000EAD02068806940F0020021688861207C10
:10256000012806D12068806920F040002168886138
:1025700005E02068806940F0400021688861607C47
:10258000012806D12068806940F480402168886174
:1025900005E02068806920F4804021688861A07C83
:1025A000012806D12068806920F480502168886164
:1025B00005E02068806940F48050216888612068C7
:1025C000806920F44070A168084321688861E06850
:1025D000012806D12068806940F0040021688861E4
:1025E00020E0E068F0B1E068022815D0206880693A
:1025F00040F08000216888612068006940F0100088
:1026000021680861E06803280CD12068806940F0E7
:1026100020002168886105E02068806940F0200082
:1026200021688861207E401E4106E069401E41EA23
:102630000020216A491E0843A18A491E40EA014040
:102640002168C861A068B0F5407F0FD1A06A401E24
:10265000E16A491E40EA0121206B401E41EA001157
:10266000A08C401E41EA00402168C860206E38B14D
:102670002068D0F8C000616E08432168C1F8C0002E
:10268000D4E91710084458B12068D0F8C80020F0E9
:102690000700254AA16E515C08432168C1F8C800B3
:1026A000206C58B12068D0F8BC0020F007001E4A0A
:1026B000616C515C08432168C1F8BC00A06C60B13A
:1026C0002068D0F8BC0020F07001174AE06C105C64
:1026D00041EA00102168C1F8BC00206D60B120689B
:1026E000D0F8BC0020F4E0610F4A606D105C41EA54
:1026F00000202168C1F8BC000A492068884205D141
:102700006068806820F00300616888602046FEF7FA
:10271000E7FD0020C4F89800012084F89400002010
:10272000B1E6000000A00040C0860190054909689C
:1027300041F48071034A11601146096821F48071E7
:10274000116070479444025810B5B6B0044600BFFB
:102750001A48006840F4807018490860084600680C
:1027600000F48070019000BF00BF00BF13480C3818
:10277000006840F0010011490C3908600846006803
:1027800000F00100019000BF00BF4FF40040029034
:1027900040031D9002A800F069FC4FF4C050319036
:1027A000022032900120339034900920359031A9D5
:1027B0000348FDF737FF36B010BD0000EC44025867
:1027C00000000258014691F8940001280CD1022023
:1027D00081F894000868806920F001000A6890611F
:1027E0000020C1F898007047D1F8980040F004002C
:1027F000C1F898000120F6E70146002291F8940004
:10280000022825D10868806940F001000B689861B2
:102810000DE01046521C0A2809D99431486840F04E
:1028200001004860032001F89409012070470868FE
:10283000806900F001000028EBD00868806940F052
:1028400002000B689861012081F894000020EDE7F8
:10285000D1F8980040F00800C1F898000120E5E7A1
:1028600070B504460E46154600BF94F8A000012836
:1028700001D1022070BD012084F8A00000BF022019
:1028800084F8A10005EB850101EBC50204F13801D4
:1028900001EB820034223146FDF7B8FD2A4631466D
:1028A000204606F07DFA01202168486284F8A100E4
:1028B00000BF002084F8A00000BF00BFDAE70000DE
:1028C00070B50446002500260CB9012070BD94F8AF
:1028D000A10028B9002084F8A000204600F07EF86E
:1028E000022084F8A1002068806920F070402168EF
:1028F0008861D4E901010843E1680843216908437C
:1029000021688969084321688861206880683249A4
:10291000084021688860A08A050420688068A16951
:1029200029430843216888602068C0682A49084014
:102930002168C860A08B05042068C068216A29430B
:1029400008432168C860206800692349084021685D
:102950000861A08C050420680069A16A2943084326
:1029600021680861206840691B4908402168486166
:10297000A08D050420684069216B29430843216824
:10298000486194F83500050294F836000604206882
:10299000C06A00F07F402168C86246EA050094F8EA
:1029A000341008432168C96A08432168C862206856
:1029B000406B40F00600216848632068806940F061
:1029C0000100216888610020C4F8A400012084F877
:1029D000A10000207AE7000000F800F010B586B0F2
:1029E000044600BF3748006840F0080035490860D9
:1029F0000846006800F00800009000BF00BF00BF5C
:102A000030481038006840F010002E491039086036
:102A10000846006800F01000009000BF00BF00BF33
:102A20002848001F006840F480702649091F08608C
:102A30000846006800F48070009000BF00BF00BF2F
:102A40000846006840F4007008600846006800F41A
:102A50000070009000BF00BF00BF0846006840F44F
:102A6000806008600846006800F48060009000BF45
:102A700000BF2020019001200290039003200490C9
:102A800001A91148FDF7CEFD4FF4E040019002206E
:102A9000029000200390032004900E20059001A9CD
:102AA0000A48FDF7BFFD48F67C60019001A908487F
:102AB000FDF7B8FDFF20019001A90648FDF7B2FD22
:102AC00006B010BDE4440258000402580020025829
:102AD00000240258002802582DE9F04104460E4611
:102AE0001746984600BF94F8A000012802D10220A2
:102AF000BDE8F081012084F8A00000BF022084F826
:102B0000A10008EB880000EBC80104F1380000EBDD
:102B100081052E60A86A30446860AF60E86A384476
:102B2000E86042462946204606F03AF9012021682D
:102B3000486284F8A10000BF002084F8A00000BF14
:102B400000BFD5E72DE9F04104460E4617469846EA
:102B500000BF94F8A000012802D10220BDE8F08156
:102B6000012084F8A00000BF022084F8A10008EB37
:102B7000880000EBC80104F1380000EB81052868EB
:102B800030446860A8683844E860AE62EF6242464C
:102B90002946204606F004F901202168486284F89D
:102BA000A10000BF002084F8A00000BF00BFD5E74F
:102BB00010B5FDF746FD0949096801F470614FF44D
:102BC000807292FAA2F2B2FA82F2D140044A515CC7
:102BD000C840044908600846006810BD18440258FF
:102BE0007A2B00080000002410B5FDF70CFD074902
:102BF000096801F07001102292FAA2F2B2FA82F290
:102C0000D140034A515CC84010BD00002044025826
:102C10007A2B000870B50146002201200023002411
:102C20009FED811AB0EE410A9FED7F1AF0EE410A46
:102C30007E4D2D6805F003027C4D2D68C5F30530EF
:102C40007A4D2D1D2D6805F01003784D14352D6833
:102C5000C5F3CC0515FB03F501EE105AB8EE411A89
:102C6000B0EE410A22B1012A4DD0022A7DD169E09D
:102C70006E4D283D2D68C5F340152DB36B4D283D95
:102C80002D68C5F3C1066A4D25FA06F4B4FBF0F5CC
:102C900001EE105AF8EE411A9FED661A80EE012AF5
:102CA000624D10352D68C5F3080501EE105AB8EED7
:102CB000411A32EE011AB7EE002A31EE021A21EE65
:102CC000811AF0EE410A1DE0594DB5FBF0F501EE19
:102CD000105AF8EE411A9FED571A80EE012A534D13
:102CE00010352D68C5F3080501EE105AB8EE411AEB
:102CF00032EE011AB7EE002A31EE021A21EE811AE5
:102D0000F0EE410A5EE04C4DB5FBF0F501EE105AD5
:102D1000B8EE412A9FED471AC0EE011A434D103517
:102D20002D68C5F3080501EE105AB8EE411A31EED0
:102D3000811AF7EE001A31EE211A22EE011AF0EE96
:102D4000410A3FE03D4DB5FBF0F501EE105AF8EEBB
:102D5000411A9FED381A80EE012A344D10352D6846
:102D6000C5F3080501EE105A00E00CE0B8EE411A78
:102D700032EE011AB7EE002A31EE021A21EE811A64
:102D8000F0EE410A1EE02C4DB5FBF0F501EE105AB5
:102D9000B8EE412A9FED271AC0EE011A234D1035D7
:102DA0002D68C5F3080501EE105AB8EE411A31EE50
:102DB000811AF7EE001A31EE211A22EE011AF0EE16
:102DC000410A00BF00BF194D10352D68C5F34625D7
