:020000040800F2
:10000000F02F0024790900082300009025000090BB
:1000100013F60090290000902D00009000000000D1
:10002000000000000000000000000000310000900F
:10003000330000900000000009870190050A0008C5
:10004000B3090008B3090008B3090008B3090008A0
:10005000B3090008B3090008B3090008B309000890
:10006000B3090008B3090008B3090008B309000880
:10007000B3090008B3090008B3090008B309000870
:10008000B3090008B3090008B3090008B309000860
:10009000B3090008B3090008B3090008B309000850
:1000A000B3090008B3090008B3090008B309000840
:1000B000A9F80090B30900085D760190B309000823
:1000C000B3090008B3090008B3090008B309000820
:1000D000B3090008E9100008B3090008B3090008D3
:1000E000B3090008B309000800000000B3090008C4
:1000F000B3090008B3090008B3090008B3090008F0
:10010000B3090008B3090008B3090008B3090008DF
:10011000B3090008B3090008B3090008B3090008CF
:10012000B3090008B3090008B3090008B3090008BF
:10013000B3090008B3090008B3090008B3090008AF
:1001400000000000000000000000000000000000AF
:10015000B3090008B3090008B3090008B30900088F
:10016000B3090008B3090008B3090008B30900087F
:10017000B3090008B3090008B3090008B30900086F
:10018000B3090008B3090008B3090008B30900085F
:10019000B3090008B3090008B3090008B30900084F
:1001A000B3090008B3090008B3090008B30900083F
:1001B000B3090008B3090008B3090008B30900082F
:1001C000B3090008B3090008B3090008B30900081F
:1001D000B3090008B3090008B3090008B30900080F
:1001E000B3090008B3090008B3090008B3090008FF
:1001F000B3090008B3090008B3090008B3090008EF
:10020000B3090008B3090008B3090008B3090008DE
:10021000B3090008B3090008B3090008B3090008CE
:10022000B3090008B3090008B30900080000000082
:10023000B3090008B309000800000000B309000872
:10024000B3090008B3090008B3090008B30900089E
:10025000B3090008B3090008B3090008B30900088E
:10026000B3090008B3090008B3090008B30900087E
:10027000B3090008B3090008B30900080000000032
:10028000B309000800000000B309000800000000E6
:1002900000000000B309000800F002F800F05CF86C
:1002A0000AA090E8000C82448344AAF10107DA45D1
:1002B00001D100F051F8AFF2090EBAE80F0013F0C7
:1002C000010F18BFFB1A43F001031847502E00001E
:1002D000702E00000A444FF0000C10F8013B13F0A0
:1002E000070408BF10F8014B1D1108BF10F8015B8F
:1002F000641E05D010F8016B641E01F8016BF9D182
:1003000013F0080F1EBF10F8014BAD1C0C1B09D1D8
:100310006D1E58BF01F801CBFAD505E014F8016B4A
:1003200001F8016B6D1EF9D59142D6D370470000DC
:100330000023002400250026103A28BF78C1FBD8EE
:10034000520728BF30C148BF0B6070471FB502F08D
:10035000C0FE1FBD10B510BD02F0C6FD1146FFF76F
:10036000F5FF00F016F902F0E4FD03B4FFF7F2FF29
:1003700003BC00F015FE00000EB50024002500BFF0
:100380000020B249086000BF00BF02F0DFFD054653
:1003900000BF02F0E0FD00BF4FF49D73EA226E2122
:1003A0007D2002F0DDFD8223EA2219467D2002F045
:1003B000DCFD1F20A5490860A5A010210B466E2278
:1003C000CDE900106F217E2002F0D4FD00BF02F0C5
:1003D000D6FD00BF284602F0D7FD00BF00BF2EE0CB
:1003E000601CC4B201219E4801F009FD21469DA078
:1003F00002F0CFFD8020102103232246CDE900101A
:100400006F21CE2002F0CAFD0E2094FBF0F100FB1C
:100410001140C0F10D00994951F8206040F23913A4
:10042000E92283217E20009602F0BDFD02A8002172
:100430000B460122CDE90010084602F0B9FDCFE7D6
:100440000EB50024002500BF00208049086000BFD1
:1004500000BF02F07BFD054600BF02F07CFD00BF3F
:1004600087A020210B46CA00CDE900108C211E2058
:1004700002F080FD00BF02F082FD00BF284602F0BE
:1004800083FD00BF00BF2AE0601CC4B24FF0804073
:10049000406A50B9202000907E4806238C210268D3
:1004A0004FF49C7002F089FD09E020200090400686
:1004B000426A06238C214FF49C7002F07EFD02A854
:1004C00000210A230A46CDE90010084602F070FD1B
:1004D000322C04D10221624801F091FC0024D3E7C0
:1004E00030B58BB00446002500BF02F06BFD0AA8B2
:1004F00002F06DFD02F070FD0AAA0121084602F02B
:1005000070FD00BF00BF02F021FD054600BF02F0F4
:1005100022FD00BF0AA8072100220592CDE906218D
:100520000890104680210C225B4BCDE90132CDE9C9
:10053000031004200023AFF2F70258A100905A489C
:1005400002F054FD0AA8072100220592CDE90621F8
:100550000890104680210C22544BCDE90132CDE9A0
:10056000031005200023AFF2EF1251A10090534871
:1005700002F03CFD00BF02F002FD00BF284602F081
:1005800003FD00BF00BF0AA9002002F034FD0BB03C
:1005900030BD8AB0002400F0BFFA00F0FCFD042357
:1005A00002220521A02000F0D4FB4FF4C87000F017
:1005B00037FA4FF4E13000F000FD02F021FD02F0C7
:1005C00024FD02F027FD02F02AFD4FF478401F4978
:1005D000086002F029FDC82002F02BFD4FF47A706C
:1005E00002F02CFD02F02FFD09A802F031FD00BF42
:1005F00000BF02F0ABFC044600BF02F0ACFC00BF41
:1006000009A8072100220592CDE90621089010468D
:1006100080210C222A4BCDE90132CDE903100320C1
:100620000023AFF2431227A10090294802F0DEFC1C
:1006300000BF02F0A4FC00BF204602F0A5FC00BFF2
:1006400000BF09A802F009FD00BFFEE75C0000241E
:100650005461736B322052756E3A303030000000B6
:1006600000040258C8CECEF132D2D1BEADD6B4D03D
:10067000D0A3BA2564B4CE0D0A0000000000002407
:10068000504C55535F4E554D2E6E756D6265723DE3
:100690000000000070000024DC0600245461736B2D
:1006A00031207461736B000014060024A409002437
:1006B0007461736B32207461736B0000DC0800247A
:1006C000140400247374617274207461736B0000ED
:1006D0004C0300249C48006840F470009A4908606C
:1006E0009A48006840F00100984908600020974946
:1006F00010310860954800689549084093490860A2
:100700000020924918310860091D0860091D086021
:100710008E4928310860091D0860091D0860091DFF
:100720000860091D0860091D0860091D0860091D91
:1007300008608648006820F4802084490860002012
:10074000824960310860012082490860C0067E4904
:1007500080390860704770B5022500EE905A00227B
:10076000022000230024DFED7C1AB0EE611A774DE1
:1007700010352D6805F0380535B1082D0DD0102D38
:100780000FD0182D75D110E0704D2D68C5F3C1063E
:10079000724DF540724E3560C1E0724D704E35605D
:1007A000BDE0714D6E4E3560B9E0684D28352D685D
:1007B00005F00302654D28352D68C5F30510634D1E
:1007C0002C352D6805F00103604D34352D68C5F3D7
:1007D000CC0515FB03F501EE905AB8EE610A22B183
:1007E000012A27D0022A64D144E0584D2D68C5F370
:1007F000C1065A4D25FA06F4B4FBF0F501EE905A05
:10080000F8EE612ADFED591A80EE212A4F4D30357E
:100810002D68C5F3080501EE905AF8EE611A72EEE4
:10082000211AB7EE002A71EE821A62EEA11AB0EE1A
:10083000611A5DE04B4DB5FBF0F501EE905AB8EE54
:10084000612ADFED4A1AC0EE212A404D30352D686D
:10085000C5F3080501EE905AF8EE611A72EEA11A7E
:10086000F7EE002A71EEA21A62EE211AB0EE611ABA
:100870003EE050E03C4DB5FBF0F501EE905AB8EE8D
:10088000612ADFED3A1AC0EE212A304D30352D684D
:10089000C5F3080501EE905AF8EE611A72EEA11A3E
:1008A000F7EE002A71EEA21A62EE211AB0EE611A7A
:1008B0001EE02C4DB5FBF0F501EE905AF8EE612AE2
:1008C000DFED2A1A80EE212A204D30352D68C5F340
:1008D000080501EE905AF8EE611A72EE211AB7EE91
:1008E000002A71EE821A62EEA11AB0EE611A00BF00
:1008F00000BF164D30352D68C5F346256D1C00EE42
:10090000905AF8EE601A81EE212AFCEEC21A144DBC
:10091000C5ED001A03E0134D114E356000BF00BF56
:100920000A4D18352D6805F470654FF4807696FAF7
:10093000A6F6B6FA86F6F5400D4E715D084D2D68A7
:10094000CD40074E356070BD88ED00E00044025890
:100950007FEDF6EA08810051000000000090D0030E
:100960003800002400093D0040787D010000004669
:100970000C3100087047704711488047DFF8440089
:10098000016841F470010160BFF34F8FDFF8380058
:10099000016821F040410160BFF36F8F0B480047B1
:1009A000FEE7FEE7FEE7FEE7FEE7FEE7FEE7FEE71F
:1009B000FEE7FEE706480749074A084B7047000074
:1009C000D506000888ED00E034EF00E09902000849
:1009D000F0290024F02F0024F02B0024F02B002419
:1009E00008B5684602F03EFB08BD08B5684602F04F
:1009F0003EFB08BD38B504466A460821204602F091
:100A00003BFB38BD10B500F008FC3D4800780128DC
:100A100005D102F036FB02F039FB02F03CFB10BDC1
:100A200070B50446042000F0FDFF364804602546FA
:100A3000354800683549B1FBF0F04543324800685D
:100A40004FF47A71B1FBF0F0314908804FF0E020AB
:100A5000006940F002004FF0E0210861084645615E
:100A6000006940F00100086170BD2DE9F0470746BC
:100A700000264FF0E020D0F814902248006807FBD1
:100A800000F8FFF7ADFF4FF0E020856911E04FF06F
:100A9000E0208469AC420CD0AC4202D2281B064450
:100AA00003E0A9EB0400284406442546464500D34C
:100AB00000E0ECE700BFFFF798FFBDE8F08770B5F6
:100AC00004460F480078A0B11248007888B9104851
:100AD0000088844206DB0E48008894FBF0F5284627
:100AE000FFF788FF0A48008894FBF0F100FB1140F3
:100AF00084B24FF47A7104FB01F0FFF7B6FF70BDCA
:100B0000CC00002440000024E4D1019040420F00BA
:100B100044000024C400002410B500F0A1F900F046
:100B2000DCF9FE48006840F00400FC49086010BD94
:100B300030B585B00024FA4DFA48006840F0020054
:100B4000F84908600846006840F020000860F54851
:100B50000C38006840F48040F2490C3908604020AD
:100B600000900220019003200390002002900A20B0
:100B700004906946EC4800F081FF042000900920B1
:100B800004906946E84800F079FFC02000900920F1
:100B900004906946E54800F071FF4FF44070009002
:100BA0000A2004906946E14800F068FFDD48643897
:100BB000006840F48040DB496439086008460068FA
:100BC00020F48040086000BFD5482038806800F0DD
:100BD00020000028F8D1D648D14920390860D548EE
:100BE00048600846006840F00100086000BFCC483B
:100BF0002038806800F020000028F8D14FF49C7065
:100C0000C7492039486100BFC5482038806800F0D6
:100C100002000028F8D0C2482038C06840F0020026
:100C2000BF492039C86000BFBD482038806800F047
:100C300020000028F8D14FF48370B9492039486169
:100C400000BFB7482038806800F002000028F8D0C4
:100C5000B3482038C06840F00200B1492039C8606C
:100C600000BFAF482038806800F020000028F8D18D
:100C7000B148AB49203948610020086100BFA8484D
:100C80002038806800F004000028F8D03020287058
:100C9000A3482038006840F00400A14920390860CA
:100CA00000BF9F482038806800F002000028F8D07C
:100CB0009B482038C06840F0020099492039C8603C
:100CC00000BF97482038806800F020000028F8D145
:100CD00000BF93482038806800F020000028F8D139
:100CE0008F492039C861EB2444F4407444F44064D3
:100CF00044F4005444F4404400BF44F4C01444F0AD
:100D0000407444F04064084644618C48006820F414
:100D100080308A49086089487030006820F00100FE
:100D20008649703108600020091D08604FF01040AE
:100D3000091D08608248091D086005207F4970313F
:100D400008607E48006840F480307C49086005B047
:100D500030BD2DE9F0419CB080460C4615461E463C
:100D600000277848006820F004007649086000BF3A
:100D70000020009073480C30006840F440407149F6
:100D80000C3108600846006800F44040009000BF45
:100D900000BF00BF6B480C30006800F40050B0F595
:100DA000005FF7D101200190000402900020049020
:100DB000089002200A9002210B91CDF834800C9407
:100DC0000E950F96002112910821119101A801F0B2
:100DD0008FF807460FB100BFFEE7FFF7A9FE3F20DF
:100DE00014900320159000201690082017904020A2
:100DF000199000011A904020189050201B90022159
:100E000014A801F0EBFC07460FB100BFFEE7454810
:100E1000E038006840F080004249E039086000BFD7
:100E200040481430006840F002003E491431086028
:100E30000846006800F00200009000BF00BF00F00C
:100E4000B1FA1CB0BDE8F0813C4910390968C1F322
:100E500040407047394910390968C1F30040704774
:100E600000BF00BF00BFBFF34F8F00BF00BF00BF78
:100E700000BF00BF00BFBFF36F8F00BF00BF00BF48
:100E8000002026494C39086000BF00BF00BFBFF3F7
:100E90004F8F00BF00BF00BF00BF00BF00BFBFF348
:100EA0006F8F00BF00BF00BF24481038006840F4B7
:100EB000003022491039086000BF00BF00BFBFF3F7
:100EC0004F8F00BF00BF00BF00BF00BF00BFBFF318
:100ED0006F8F00BF00BF00BF704710B50023174CD5
:100EE0006034236000BF00BF00BFBFF34F8F00BF5F
:100EF00000BF00BF231F1868C0F34E3100BFC0F30E
:100F0000C90200BF43F6E07303EA41134FF04044C7
:100F100004EA82742343014C3C3C15E09CEF00E062
:100F200020500052E04402580004025800140258B5
:100F30001003000101041600C003000324ED00E0CB
:100F40002D0003030C480258236000BF00BF131E8E
:100F5000A2F10102D6D10B1EA1F10101CFD100BF38
:100F600000BF00BFBFF34F8F00BF00BF00BF0B4BE0
:100F70001B6843F48033094C236000BF00BF00BFEF
:100F8000BFF34F8F00BF00BF00BF00BF00BF00BF57
:100F9000BFF36F8F00BF00BF00BF10BD14ED00E0B6
:100FA00000BF704700BF634AD26902F04002002AC6
:100FB000F9D0C2B25F4B1A85704710B504465D4840
:100FC0005D4908600846446000218160C16001619C
:100FD00081610C21416102F063F8012257495648B2
:100FE00002F063F810BD10B586B004465149206880
:100FF00088423BD100BF5248006840F00100504990
:1010000008600846006800F00100009000BF00BFC3
:1010100000BF4B481030006840F0100048491031C4
:1010200008600846006800F01000009000BF00BF94
:101030004FF40070019002200290012003900220E2
:1010400004900720059001A93E4800F017FD4FF4D9
:101050008060019001A93B4800F010FD252000F0C0
:10106000B5FB03221146252000F072FB06B010BD2F
:10107000304A0168914236D13349098801F4004170
:1010800089BB3149098801F4804171B12B49097844
:101090000A2903D000212C4A118024E02A4909881A
:1010A00041F40041284A11801DE0244909780D29A6
:1010B00006D12549098841F48041234A118012E074
:1010C0001E490978204A1288C2F30D021F4B995419
:1010D0001D490988491C1C4A118011460988C729E5
:1010E00001DD00211180704770B50024184D01F01A
:1010F000C8FF114801F0DEFF00BF03E0641CAC42F2
:1011000000D904E00C4801F0DAFF2028F6D100BF36
:10111000002403E0641CAC4200D906E00122074928
:10112000054801F0C2FF0028F4D100BF01F0B3FF71
:1011300070BD0000001001406C0C00244E00002423
:10114000E0440258000002584C000024A40B002484
:10115000FFFF0100704770B50446FD4800784FF46A
:101160007A71B1FBF0F0FB490968B1FBF0F5284654
:1011700000F07BFB08B1012070BD102C07D20022CB
:101180002146501E00F0E4FAF348046001E001201B
:10119000F2E70020F0E710B5032000F0C7FA0F20B7
:1011A000FFF7D9FF08B1012010BDFFF7E3FB0020D6
:1011B000FAE7704710B54FF0FF30E84908600020AB
:1011C0000860401E091D086000200860401E091DBF
:1011D000086000200860401E091D086000200860AB
:1011E000401E091D086000200860401E091D08609F
:1011F00000200860401E091D086000200860401E95
:10120000091D086000200860401E091D08600020BC
:101210000860FFF7B0FB002010BDD1480068CC4942
:1012200009780844CE4908607047CD480068704787
:10123000C9480068704770B504460025C448007866
:10124000A04206D0C2480470C3480068FFF783FF7D
:101250000546284670BDBE480078704770B5044604
:10126000FFF7E3FF06462546681C10B1B848007832
:10127000054400BFFFF7D9FF801BA842FAD370BD19
:101280004FF0E020006920F002004FF0E0210861FB
:1012900070474FF0E020006940F002004FF0E0217D
:1012A000086170474FF081707047AE480068000CCD
:1012B0007047AC480068C0F30B007047AA49096842
:1012C00021F070010143A84A11607047A6490968DE
:1012D00021F002010143A44A11607047A249091D8F
:1012E000096821F03F0101439F4A121D11607047B8
:1012F00010B500249C48006840F001009A4908603D
:10130000FFF793FF044606E0FFF78FFF001B0A2854
:1013100001D9032010BD9448006800F0080000289F
:10132000F2D00020F6E79048006820F001008E49D6
:10133000086070478D49096821F4600101438B4AB8
:1013400011607047894A126882430A43874B1A60CA
:1013500070478648006840F4807084490860704790
:101360008248006820F4807080490860704710B59A
:1013700068B97F4A126892B20B0C7E4C94FAA4F4BE
:10138000B4FA84F4A3401A43794B1A6009E0784A0E
:10139000121D12686FF30F0242EA1142744B1B1DBB
:1013A0001A6010BD71481C30006840F001006F49A0
:1013B0001C31086070476D481C30006820F0010047
:1013C0006A491C310860704768481C30006840F466
:1013D000803066491C310860704764481C300068E2
:1013E00020F4803061491C31086070475F491C312E
:1013F000096821F0020101435C4A1C321160704708
:101400005A4A2432126822F0FF0241EA00131A43BA
:10141000564B24331A6070475248406840F0010030
:101420005049486070474F48406820F001004D49DE
:10143000486070474B48406840F0020049494860A6
:1014400070474848406820F00200464948607047AD
:101450004448406840F004004249486070474148B1
:10146000406820F004003F49486070473D484068AC
:1014700040F080003B49486070473A48406820F09F
:1014800080003849486070473648406840F48070B2
:101490003449486070473348406820F480703149CF
:1014A000486070473449096821F040710143324A6D
:1014B000116070473048006800F04070704710B508
:1014C0004209520102F1B042526800F01F040123A8
:1014D000A3409A4343095B0103F1B0435A604209B8
:1014E000520102F1B042126800F01F040123A34030
:1014F0009A4343095B0103F1B0431A6001F480127F
:10150000B2F5801F0ED14209520102F1B0421268B9
:1015100000F01F040123A3401A4343095B0103F1B8
:10152000B0431A6001F40012B2F5001F0ED1420957
:10153000520102F1B042526800F01F040123A3409F
:101540001A4343095B0103F1B0435A6010BD000028
:101550005800002438000024540000247C44025821
:10156000500000240010005C003C005804040058A7
:10157000080700580000FFFF0040005241094901E0
:1015800001F1B041896800F01F0301229A40114324
:101590004209520102F1B0429160704741090901CC
:1015A00001F1B041D1F8881000F01F0301229A40E8
:1015B00011434209120102F1B042C2F8881070478B
:1015C00030B501F48033B3F5803F23D18AB94309A4
:1015D0001B0103F1B043D3F8803000F01F05012454
:1015E000AC40A3434409240104F1B044C4F8803062
:1015F00010E043091B0103F1B043D3F8803000F041
:101600001F050124AC4023434409240104F1B044E4
:10161000C4F8803001F40033B3F5003F23D18AB918
:1016200043091B0103F1B043D3F8843000F01F05D8
:101630000124AC40A3434409240104F1B044C4F89C
:10164000843010E043091B0103F1B043D3F8843028
:1016500000F01F050124AC4023434409240104F198
:10166000B044C4F8843030BD30B579B943095B016A
:1016700003F1B043DB6800F01F050124AC40A34335
:101680004409640104F1B044E3600EE043095B01E6
:1016900003F1B043DB6800F01F050124AC40234395
:1016A0004409640104F1B044E360C0F30013B3B92A
:1016B00043095B0103F1B0431B691F2404EA4005A1
:1016C0000324AC40A3431F2404EA400402FA04F4B8
:1016D00023434409640104F1B044236115E0430944
:1016E0005B0103F1B0435B691F2404EA4005032456
:1016F000AC40A3431F2404EA400402FA04F4234349
:101700004409640104F1B044636130BD10B50028A0
:1017100004DB0A07130ED44A135406E00A07140E1A
:10172000D24A00F00F031B1FD45410BD00BF00F0BD
:101730000702CE4B0C3B19684FF6FF031940CC4B08
:101740000B4343EA0221C94B0C3B196000BF7047B1
:101750002DE9F05F80460D461646002700F07DF922
:10176000074639462A46334601F00700C0F1070A0A
:10177000BAF1040F02D94FF0040A01E0C0F1070AE0
:10178000D14600F1040ABAF1070F02D24FF0000A65
:1017900001E0A0F1030AD4464FF0010A0AFA09FA5F
:1017A000AAF1010A0AEA020A0AFA0CFA4FF0010B3E
:1017B0000BFA0CFBABF1010B0BEA030B4AEA0B042F
:1017C00021464046FFF7A2FFBDE8F09F01460846CC
:1017D000002809DB00F01F0301229A4043099B0007
:1017E00003F1E023C3F8002100BF704710B50146A4
:1017F0000846002817DB00F01F0301229A409D4B8A
:10180000440943F8242000BF00BF00BFBFF34F8F3F
:1018100000BF00BF00BF00BF00BF00BFBFF36F8F9E
:1018200000BF00BF00BF00BF10BD00BF00BF00BFB2
:1018300000BF00BFBFF34F8F00BF00BF00BF8B488A
:101840000C38006800F4E06089490843001D8749AE
:101850000C39086000BF00BF00BFBFF34F8F00BF4F
:1018600000BF00BF00BF00BFFDE770B504462546BE
:10187000681EB0F1807F01D301200FE0681E4FF099
:10188000E02148610F214FF0FF30FFF73FFF0020BC
:101890004FF0E021886107200861002070BD417889
:1018A000724A803211600178F9B1121D41681160ED
:1018B000017B0907C27A41EA0261827A41EAC241A8
:1018C000427B41EA8241827B41EA4241C27B41EA5A
:1018D0000241427A41EA0221027A41EA4201027857
:1018E0001143624A8832116005E000215F4A843268
:1018F0001160121D1160704710B500F0AEF810BDF8
:101900002DE9F04304462046002803DB564F3F5C98
:101910003F0907E0554F00F00F0CACF1040C17F82D
:101920000C703F093D460E4606F00700C0F107085F
:10193000B8F1040F02D94FF0040801E0C0F1070824
:10194000C44600F10408B8F1070F02D24FF00008B6
:1019500001E0A0F10308474625FA07F84FF0010916
:1019600009FA0CF9A9F1010908EA0908C2F800808E
:101970004FF0010808FA07F8A8F1010808EA05087D
:10198000C3F8008000BFBDE8F08310B501460846EB
:10199000002808DB00F01F0301229A40354B8033FA
:1019A000440943F8242000BF10BD10B50146084685
:1019B00000280EDB2F4A8032430952F8232000F022
:1019C0001F040123A3401A400AB1012202E00022B1
:1019D00000E00022104610BD10B501460846002860
:1019E00007DB00F01F0301229A40234B440943F810
:1019F000242000BF10BD10B50146084600280EDBAC
:101A00001D4A8032430952F8232000F01F040123AD
:101A1000A3401A400AB1012202E0002200E00022A5
:101A2000104610BD042808D14FF0E021096941F0AB
:101A300004014FF0E022116107E04FF0E021096955
:101A400021F004014FF0E02211617047704710B59A
:101A5000FFF7FCFF10BD0320704704480C380068F6
:101A6000C0F302207047000000E400E018ED00E041
:101A70000000FA0580E100E080E200E0F8B50246EF
:101A80000B460021002600240020F24D00BFFCE0A0
:101A9000012707FA01F61F6807EA0604B4427CD161
:101AA0005F68022F02D05F68122F1AD14FEAD10C63
:101AB00002F1200757F82C004F074FEAD76C0F2789
:101AC00007FA0CF7B8434FEA417C4FEADC6C1F6918
:101AD00007FA0CF738434FEAD10C02F1200747F818
:101AE0002C0010684FEA410C032707FA0CF7B843A3
:101AF0001F7907F003074FEA410C07FA0CF7384348
:101B000010605F68012F08D05F68022F05D05F6802
:101B1000112F02D05F68122F17D190684FEA410C45
:101B2000032707FA0CF7B8434FEA410CDF6807FABE
:101B30000CF738439060506801278F40B8431F79F5
:101B4000C7F300178F4038435060D0684FEA410C0C
:101B5000032707FA0CF7B8434FEA410C9F6807FACE
:101B60000CF73843D0605F6807F08057B7F1805FAB
:101B700095D100BFB84F3F6847F00207DFF8D8C2E1
:101B8000CCF8007067463F6807F00207009700BF77
:101B900000BFB24F4FEA910C00E075E057F82C00FF
:101BA0008F074FEA177C0F2707FA0CF7B843AC4FA3
:101BB000BA4201D100272DE0AA4FBA4201D1012734
:101BC00028E0A94FBA4201D1022723E0A74FBA4229
:101BD00001D103271EE0A64FBA4201D1042719E024
:101BE000A44FBA4201D1052714E0A34FBA4201D154
:101BF00006270FE0A14FBA4201D107270AE0A04F04
:101C0000BA4201D1082705E09E4FBA4201D1092707
:101C100000E00A274FEA817C4FEA1C7C07FA0CF7A8
:101C200038438E4F4FEA910C47F82C002868A043A8
:101C30005F6807F48037B7F5803F00D12043286004
:101C40006868A0435F6807F40037B7F5003F00D12C
:101C5000204368604FF0B0473868A0435F6807F4DE
:101C60008017B7F5801F00D120434FF0B047386090
:101C70007868A0435F6807F40017B7F5001F00D12C
:101C800020434FF0B0477860491C1029FFF400AFA3
:101C9000F8BDF0B50C4600250022002300219DE090
:101CA000012606FA01F504EA0502AA427DD106687A
:101CB0004FEA410C032707FA0CF73E430660CF08B2
:101CC00000F1200656F827604F074FEAD76C0F2720
:101CD00007FA0CF7BE434FEAD10C00F1200747F892
:101CE0002C6086684FEA410C032707FA0CF7BE43C5
:101CF0008660476801268E40B7434760C6684FEA52
:101D0000410C032707FA0CF7BE43C660534E8F08F9
:101D100056F827308E07370F0F26BE403340504EFF
:101D2000B04201D100262DE04E4EB04201D1012635
:101D300028E04D4EB04201D1022623E04B4EB04286
:101D400001D103261EE04A4EB04201D1042619E01B
:101D5000484EB04201D1052614E0474EB04201D1B1
:101D600006260FE0454EB04201D107260AE0444E58
:101D7000B04201D1082605E0424EB04201D1092609
:101D800000E00A268F073F0FBE409E4225D18E07F6
:101D9000370F0F2606FA07F3304E8F0856F82760E4
:101DA0009E432E4F4FEA910C00E016E047F82C605E
:101DB000284E366896434FF0B047C7F880603E46DD
:101DC000D6F884609643C7F884603E4636689643EA
:101DD0003E603E46766896437E60491C1029FFF4BB
:101DE0005FAFF0BD024613690B400BB1012000E06C
:101DF000002070470AB1018300E0418370474269C7
:101E00004A404261704708B502464FF48030009066
:101E10000098084300900098D061D1610098D0618B
:101E2000D0690090D06900F4803008B1002008BD6E
:101E30000120FCE7704710B50446064808300068EA
:101E4000204028B10348083004602046FFF7F2FF25
:101E500010BD000080000058F444025808040058E7
:101E6000000002580004025800080258000C0258F2
:101E7000001002580014025800180258001C0258A2
:101E80000020025800240258F848006840F0010081
:101E9000F64908600020F54910310860F3480068F1
:101EA000F3490840F14908600020F0491831086002
:101EB000091D0860091D0860EC4928310860091DEA
:101EC0000860091D0860091D0860091D0860091DDA
:101ED0000860091D0860091D0860E448006820F4D6
:101EE0008020E24908600020E049683108607047BE
:101EF00070B504460025207800F0010000287ED04F
:101F0000DA481030006800F0380010280DD0D748AB
:101F10001030006800F03800182811D1D34828305C
:101F2000006800F0030002280AD1D0480068C0F31E
:101F30004040002863D06068002860D1012070BD57
:101F400000BF6068B0F5803F06D1C848006840F423
:101F50008030C649086028E0606858B9C348006806
:101F600020F48030C14908600846006820F48020D1
:101F700008601AE06068B0F5A02F0BD1BB4800687C
:101F800040F48020B94908600846006840F4803079
:101F900008600AE0B548006820F48030B349086062
:101FA0000846006820F48020086000BF606898B18F
:101FB000FFF73BF9054608E0FFF737F9401B41F210
:101FC0008831884201D90320B9E7A8480068C0F3E6
:101FD00040400028F0D012E0FFF727F9054608E05E
:101FE000FFF723F9401B41F28831884201D90320D1
:101FF000A5E79E480068C0F340400028F0D1207853
:1020000000F00200022845D198481030006800F026
:10201000380060B195481030006800F0380018288A
:102020003AD192482830006800F0030098BB8F48EE
:102030000068C0F3800018B1E06808B901207EE7AD
:102040008A48006820F01900E16808438749086061
:10205000FFF7EBF8054606E0FFF7E7F8401B02281C
:1020600001D903206BE781480068C0F38000002895
:10207000F2D07E48001D006820F47C304FF47C32A2
:1020800092FAA2F2B2FA82F22169914008437749AA
:10209000091D086044E0FFE7E06850B3734800683A
:1020A00020F01900E168084370490860FFF7BDF8A7
:1020B000054606E0FFF7B9F8401B022801D90320C6
:1020C0003DE76A480068C0F380000028F2D0674806
:1020D000001D006820F47C304FF47C3292FAA2F2AA
:1020E000B2FA82F22169914008436049091D0860F3
:1020F00016E05E48006820F001005C490860FFF7C8
:1021000094F8054606E0FFF790F8401B022801D935
:10211000032014E755480068C0F380000028F2D17E
:10212000207800F01000102872D15048103000685C
:1021300000F0380008280DD04C481030006800F03E
:102140003800182822D149482830006800F00300E0
:1021500001281BD145480068C0F3002020B1E06988
:10216000802801D00120EAE64048001D006820F0E8
:10217000F8404FF0F84292FAA2F2B2FA82F2216AE3
:10218000914008433949091D086041E0E06940B3C6
:102190003648006840F0800034490860FFF745F891
:1021A000054606E0FFF741F8401B022801D903204D
:1021B000C5E62E480068C0F300200028F2D02B4866
:1021C000001D006820F0F8404FF0F84292FAA2F2A9
:1021D000B2FA82F2216A914008432449091D08603D
:1021E00016E02248006820F0800020490860FFF7D0
:1021F0001CF8054606E0FFF718F8401B022801D935
:1022000003209CE619480068C0F300200028F2D1A2
:10221000207800F00800082839D16069D0B113484F
:102220007430006840F00100104974310860FEF716
:10223000FCFF054606E0FEF7F8FF401B022801D927
:1022400003207CE6094874300068C0F34000002891
:10225000F1D01CE005487430006820F0010003490B
:1022600074310860FEF7E1FF05460AE000440258B9
:1022700045EDF6EAFEF7D9FF401B022801D90320FD
:102280005DE6FE480068C0F340000028F2D12078E7
:1022900000F02000202836D1A069D0B1F74874386A
:1022A000006840F48050F54974390860FEF7BDFFBE
:1022B000054606E0FEF7B9FF401B022801D90320BE
:1022C0003DE6EE4874380068C0F340300028F1D095
:1022D00019E0EA487438006820F48050E7497439FE
:1022E0000860FEF7A2FF054606E0FEF79EFF401BD2
:1022F000022801D9032022E6E04874380068C0F3C0
:1023000040300028F1D1207800F0040004287DD16D
:10231000DB48006840F48070D9490860FEF785FF0B
:10232000054606E0FEF781FF401B642801D9032023
:1023300005E6D348006800F480700028F2D000BFA2
:10234000A068012808D1CD48001F006840F00100B6
:10235000CA49091F08602DE0A06868B9C748001F76
:10236000006820F00100C549091F086008460068A0
:1023700020F0040008601DE0A06805280DD1BF48CA
:10238000001F006840F00400BC49091F08600846AF
:10239000006840F0010008600CE0B848001F0068C9
:1023A00020F00100B549091F08600846006820F0C8
:1023B0000400086000BFA068A0B1FEF736FF054624
:1023C00008E0FEF732FF401B41F28831884201D914
:1023D0000320B4E5A948001F0068C0F340000028AE
:1023E000EFD013E0FEF721FF054608E0FEF71DFFE2
:1023F000401B41F28831884201D903209FE59F4864
:10240000001F0068C0F340000028EFD1606A002878
:102410007ED09A486438006800F03800182878D0D8
:10242000606A022876D195487438006820F0807080
:10243000924974390860FEF7F8FE054606E0FEF79B
:10244000F4FE401B022801D9032078E58B4874383C
:102450000068C0F340600028F1D100BFD4E90A1041
:1024600041EA001085494C39096840F2F332914342
:10247000084382494C390860208E401EC0F3080092
:10248000616B491E4FF47E4202EA41210843218FCD
:10249000491ED20102EA014108433C21095D491E5F
:1024A000120202EA0161084374494439086000BF1E
:1024B000081D00684FF6F87188434FF6F87292FADB
:1024C000A2F2B2FA82F2A16C914008436B49403902
:1024D00008606A484838006820F00C00216C084306
:1024E0006649483908600846006820F00200616CBF
:1024F00008436249483908600846006840F4803063
:1025000008600846006840F400300860084602E0B1
:1025100042E03FE023E0006840F480200860084685
:10252000006840F00100086054487438006840F0CA
:102530008070524974390860FEF777FE054606E060
:10254000FEF773FE401B022801D90320F7E44B4835
:1025500074380068C0F340600028F1D01CE04748A0
:102560007438006820F08070444974390860FEF7C0
:102570005CFE054606E0FEF758FE401B022801D926
:102580000320DCE43D4874380068C0F34060002854
:10259000F1D101E00120D2E40020D0E470B50125A2
:1025A00000EE905A0022012100230024DFED351AAD
:1025B000B0EE610ADFED331AB0EE611A00202F4D44
:1025C000643D2D6805F0380535B1082D15D0102D66
:1025D00015D0182D73D114E0284D743D2D68C5F326
:1025E000401545B1254D743D2D68C5F3C106264DF6
:1025F00025FA06F000E02448EEE02448ECE0244808
:10260000EAE01E4D4C3D2D6805F003021B4D4C3D8C
:102610002D68C5F30511194D483D2D6805F00103DE
:10262000164D403D2D68C5F3CC0515FB03F501EEB5
:10263000905AF8EE611AB0EE610A22B1012A5DD01B
:10264000022A79D179E00D4D743D2D68C5F340150E
:10265000A5B30A4D743D2D68C5F3C1060A4D25FA90
:1026600006F4B4FBF1F501EE905AB8EE612ADFED05
:10267000091AC0EE212A014D443D0DE07444025870
:1026800000480258000000000090D00300093D00FF
:1026900040787D01000000462D68C5F3080501EE75
:1026A000905AF8EE611A72EEA11AF7EE002A71EE56
:1026B000A21A62EE211AB0EE611A1EE000E089E073
:1026C000FE4DB5FBF1F501EE905AB8EE612A5FEDD3
:1026D0000F1AC0EE212AFA4D2D68C5F3080501EE48
:1026E000905AF8EE611A72EEA11AF7EE002A71EE16
:1026F000A21A62EE211AB0EE611A5AE0F14DB5FB52
:10270000F1F501EE905AB8EE612A5FED1E1AC0EEA7
:10271000212AEB4D2D68C5F3080501EE905AF8EE1D
:10272000611A72EEA11AF7EE002A71EEA21A62EE99
:10273000211AB0EE611A3CE01DE0E34DB5FBF1F566
:1027400001EE905AB8EE612A5FED2E1AC0EE212AF2
:10275000DB4D2D68C5F3080501EE905AF8EE611ABD
:1027600072EEA11AF7EE002A71EEA21A62EE211A99
:10277000B0EE611A1DE0D34DB5FBF1F501EE905AB4
:10278000F8EE612A5FED3D1A80EE212ACC4D2D68CE
:10279000C5F3080501EE905AF8EE611A72EE211A9F
:1027A000B7EE002A71EE821A62EEA11AB0EE611A3B
:1027B00000BF00BFC24D2D68C5F346256D1C00EE5D
:1027C000905AF8EE601A81EE212AFCEEC21A11EE40
:1027D000900A01E0BB4800BF00BF70BD70B5044661
:1027E0000D460026B948006800F00700A8420ED246
:1027F000B648006820F007002843B449086008463E
:10280000006800F00700A84201D0012070BD2078C8
:1028100000F00200022809D1A9481838006820F009
:102820000F00E1680843A64918390860207800F0D5
:102830000100002853D0A2481838006820F47060C6
:10284000A16808439E49183908606068022807D1CA
:102850009B4830380068C0F34040F8B90120D5E704
:102860006068032807D1964830380068C0F340609C
:10287000A0B90120CAE76068012807D19048303824
:102880000068C0F3002048B90120BFE78C48303809
:102890000068C0F3800008B90120B7E788482038F5
:1028A000006820F007006168084385492039086006
:1028B000FEF7BBFC06466068022811D108E0FEF76F
:1028C000B4FC801B41F28831884201D903209DE786
:1028D0007B482038006800F038001028EFD13AE03B
:1028E0006068032811D108E0FEF79FFC801B41F2CD
:1028F0008831884201D9032088E771482038006870
:1029000000F038001828EFD125E06068012811D1C7
:1029100008E0FEF78AFC801B41F28831884201D929
:10292000032073E766482038006800F03800082864
:10293000EFD110E008E0FEF778FC801B41F288310F
:10294000884201D9032061E75D482038006800F023
:1029500038000028EFD15D48006800F00700A84269
:102960000ED95A48006820F00700284357490860EC
:102970000846006800F00700A84201D0012045E7A2
:10298000207800F00400042809D14D481838006868
:1029900020F07000216908434949183908602078FF
:1029A00000F00800082809D145481438006820F0D4
:1029B000700061690843424914390860207800F0CA
:1029C0001000102809D13E481438006820F4E06057
:1029D000A16908433A4914390860207800F02000C2
:1029E000202809D136481038006820F07000E169CD
:1029F0000843334910390860FFF7D0FD30491839D2
:102A0000096801F470614FF4807292FAA2F2B2FA8E
:102A100082F2D1402E4A515CC8402E4908600F20F6
:102A2000FEF799FB0020F1E670B586B006460C462D
:102A300015464EBB00BF2248B030006840F0010090
:102A40001F49B03108600846006800F0010000909E
:102A500000BF00BF4FF4807001900220029003205D
:102A6000049000200390059001A91B48FFF706F889
:102A700013482038006820F0FE7044EA050108433E
:102A80000F492039086037E000BF0D48B0300068BA
:102A900040F004000A49B03108600846006800F0C0
:102AA0000400009000BF00BF4FF4007001900220AE
:102AB000029003200490002003900FE00090D003C8
:102AC0003044025800093D0040787D01002000524A
:102AD0000C3100083800002400000258059001A9BC
:102AE000BF48FEF7CBFFBF48006820F07E4044EAB5
:102AF000C5110843BB49086006B070BDB94810381D
:102B0000006840F40020B74910390860704710B5DC
:102B100000F0DAFAB3490831096801F00F01012227
:102B200092FAA2F2B2FA82F2D140AF4A515CC840A6
:102B3000AE4908600846006810BD10B5FFF7E7FF12
:102B4000A8490C31096801F07001102292FAA2F232
:102B5000B2FA82F2D140A44A515CC84010BD10B50F
:102B6000FFF7D5FF9F490C31096801F4E0614FF48C
:102B7000807292FAA2F2B2FA82F2D1409A4A515C81
:102B8000C84010BD3F21016096491039096801F421
:102B90008021B1F5802F03D14FF4A02141600DE0D9
:102BA00090491039096801F48031B1F5803F03D1B3
:102BB0004FF48031416001E00021416089491039C2
:102BC000096801F08001802901D1C16101E0002183
:102BD000C16184490C39096801F0F8414FF0F842AD
:102BE00092FAA2F2B2FA82F2D14001627D49103922
:102BF000096801F0010111B10121C16001E000216A
:102C0000C16078490C39096801F47C314FF47C3299
:102C100092FAA2F2B2FA82F2D140016171496031B6
:102C2000096801F00401042902D1052181600AE04C
:102C30006C496031096801F0010111B10121816025
:102C400001E00021816067496431096801F00101F8
:102C500011B10121416101E0002141616149103957
:102C6000096801F48051B1F5805F02D101218161D1
:102C700001E0002181615B491039096801F0807130
:102C8000B1F1807F02D10221416201E00121416264
:102C900054491831096801F0030282625149183120
:102CA000096801F47C714FF47C7292FAA2F2B2FAD4
:102CB00082F2D140C1624B4920310968C1F3080159
:102CC00040F2FF1292FAA2F2B2FA82F2D140491C0B
:102CD000016344492031096801F0FE414FF0FE4292
:102CE00092FAA2F2B2FA82F2D140491CC1633D4984
:102CF0002031096801F47E414FF47E4292FAA2F23B
:102D0000B2FA82F2D140491C416336492031096848
:102D100001F4FE014FF4FE0292FAA2F2B2FA82F23C
:102D2000D140491C81632F491C31096801F00C0115
:102D3000042292FAA2F2B2FA82F2D1400164294945
:102D40001C31096801F00201022292FAA2F2B2FAE1
:102D500082F2D140416470473F220260214A1268EA
:102D600002F0070242601F4A0832126802F47062E1
:102D700082601C4A0832126802F00F02C260194ACF
:102D80000832126802F070020261164A0C321268B0
:102D900002F070024261134A0C32126802F4E062DF
:102DA0008261104A1032126802F07002C261104A49
:102DB000126802F007020A607047704710B50948B0
:102DC0005430006800F48060B0F5806F06D1FFF7E2
:102DD000F4FF4FF4806003495831086010BD0000D3
:102DE00000080258104402580C3100083C0000242E
:102DF0000020005253EA020C00F069802DE9F04BEC
:102E00004FF00006002B1FBFB3FA83F503FA05F459
:102E100024FA05F65E4012BF1643B2FA82F502FAB2
:102E200005F4C5F120051EBF22FA05FC44EA0C0496
:102E3000203556EA044C4FEA144418BF641C4FF086
:102E400000084FF00009904271EB030C39D30029C0
:102E500019BFB1FA81F701FA07F6B0FA80F700FA64
:102E600007F6C7F120071EBF20FA07FC46EA0C064A
:102E70002037B6FBF4FCA7EB0507103F07F01F0B4C
:102E8000CBF120060CFA0BFB2CFA06F644BFB34636
:102E90000026202FA4BF5E464FF0000B5BEA060C15
:102EA00008BF4FF0010B19EB0B09ABFB027C48EBA1
:102EB0000608C01B06FB02CC0BFB03CC71EB0C011C
:102EC000C1E70B46024641464846BDE8F08B13B5C4
:102ED0004FF000004FF00001AFF30080BDE81C4050
:102EE0007047704770477047754600F02BF8AE4644
:102EF00005006946534620F00700854618B020B506
:102F0000FDF758FDBDE820404FF000064FF00007E8
:102F10004FF000084FF0000B21F00701AC46ACE881
:102F2000C009ACE8C009ACE8C009ACE8C0098D46EE
:102F3000704710B50446AFF300802046BDE810404E
:102F4000FDF713BA004870478C2900244FF61D7C0A
:102F5000C9F2000C60474FF6DF2CC9F2000C604745
:102F60004EF2B93CC9F2000C60474EF2093CC9F27E
:102F7000000C60474EF2337CC9F2000C60474FF6FC
:102F8000A12CC9F2000C60474FF6257CC9F2000C59
:102F9000604748F29D1CC9F2010C60474EF2756C07
:102FA000C9F2000C60474EF22F2CC9F2000C6047AA
:102FB00046F2D53CC9F2010C60474EF2E15CC9F221
:102FC000000C60474FF6B53CC9F2000C604744F274
:102FD0008F6CC9F2010C60474FF6F14CC9F2000C3E
:102FE000604741F6E54CC9F2010C604744F6ED5CE0
:102FF000C9F2010C604744F6797CC9F2010C6047C4
:103000004FF25B5CC9F2000C60474BF2292CC9F20D
:10301000000C60474FF2A72CC9F2000C60474BF63A
:103020009D5CC9F2000C60474FF20B7CC9F2000CAA
:10303000604747F2E76CC9F2010C60474FF2CD7C64
:10304000C9F2000C60474FF2B16CC9F2000C604746
:1030500041F6071CC9F2010C604741F6296CC9F220
:10306000010C604741F67F3CC9F2010C604741F614
:10307000DB3CC9F2010C604746F22D3CC9F2010C61
:10308000604741F61B2CC9F2010C604746F2475CD1
:10309000C9F2010C604741F63D2CC9F2010C6047B2
:1030A00043F6C72CC9F2000C604743F6937CC9F283
:1030B000000C604744F6331CC9F2000C604744F62C
:1030C000594CC9F2000C604742F66D4CC9F2000C35
:1030D00060474FF04070E1EE100A704701000200B7
:1030E0000400060008000A000C0010002000400048
:1030F00080000001010002000400060008000A0030
:103100000C001000200040008000000100000000C2
:103110000102030401020304060708093C31000808
:10312000000000244C030000D402000850320008C4
:103130004C030024A42C00003003000863FFFF2A86
:103140001F0422F81AE01033FF07190C3910190C6C
:103150004BFF7F182340BC2307FC3330843C90D0C6
:1031600003040113321062012AFF018103FE871359
:103170001EC0D30190D4041ADC041AC8041AE40453
:103180001AC4041ACC04180A9B7B01909CD50190A8
:10319000A10817E8D40190BF0A12081DD701906B4F
:1031A000081A18081363BD1B90F420132FE21008AF
:1031B0009090D6019009E31B9020281AB9081AE8CC
:1031C000401AF9081A742013E1E51B90B018133364
:1031D000E71B9030101357B81B90D0301343B41036
:1031E000089004D80190B7B91B90D4181375E61B4A
:1031F0009070281AB5281A7C601ADF081A940813F0
:103200002BE81B90BC081A31081AB4281A59081A5E
:103210002C401A9F081AE0181AE7081A58101BBD0C
:10322000EB6019101A5B081A10101365F91B900C4B
:10323000301A07081A5458138801180824E7760131
:10324000900B776419041A23D8221A02DC010000BB
:0200000490006A
:10000000642918F02781752918F02481782918F0BF
:100010005D81632918F0DF82732918F0E4820020E3
:100020007047704700BFFEE700BFFEE700BFFEE776
:100030007047704710B502680179E9B108291BD8EB
:10004000FE4B9A420CD8FD4B8C3B9A4208D34B1E78
:10005000FB4C04EB8303C366F94B4033036707E0B3
:100060004B1EF84C04EB8303C366F64B4033036727
:100070004B1E01249C40446710BD10B5002102684E
:10008000EE4B9A4213D8ED4B8C3B9A420FD3037838
:10009000083B1424B3FBF4F1EB4B03EB8103036641
:1000A000E74B803B436601238B40836616E0037871
:1000B000103B1824B3FBF4F1E44B9A4204D8E34B11
:1000C000A83B9A4200D30831E14B03EB810303665E
:1000D000DC4B803B436601238B40836610BD0146A9
:1000E000087810381823B0FBF3F2DA48805CC86552
:1000F000032A05D908686FF30900001D886503E02D
:1001000008686FF309008865886D70470146002014
:100110008A69D2B98A6A32B1012A0DD0022A03D083
:10012000032A10D10EE000BFCA6A02F08072B2F159
:10013000807F00D1012007E0CA6AB2F1C07F00D100
:10014000012001E000E000BF36E08A69B2F5005FFF
:100150001BD18A6A32B1012A07D0022A03D0032AAE
:1001600011D10AE000BF01200EE0CA6A02F08072DD
:10017000B2F1807F00D1012006E0CA6AB2F1C07FEF
:1001800000D1012000E000BF16E08A6A32B1012AE6
:1001900005D0022A04D0032A0CD103E000BF00BF1F
:1001A000012008E0CA6A02F08072B2F1807F00D1BB
:1001B000012000E000BF00BF70472DE9F041044678
:1001C000002518F0CFFA0646002714B90120BDE833
:1001D000F081A1492068884205D39C492068884263
:1001E00001D8012000E00020002871D0606A00B131
:1001F00000BF00BF002084F8340000BF022084F854
:1002000035009549206888420AD390492068884281
:1002100006D82068006820F001002168086005E029
:100220002068006820F00100216808600BE018F0E9
:1002300099FA801B052806D920206065032084F8E0
:1002400035000120C3E72068006800F001000028A5
:10025000EDD12068056881480540D4E902010843D2
:100260002169084361690843A1690843E1690843BA
:10027000216A08430543606A042803D1D4E90B01CD
:1002800008430543206805602068456925F0070597
:10029000606A0543606A04280DD1A06A0543E06ADC
:1002A00048B12046FFF732FF28B1402060650120A9
:1002B00084F835008BE7206845612046FFF70FFF83
:1002C000074694F85C103F208840B8604EE0FFE796
:1002D0005A498C392068884205D358492068884299
:1002E00001D8012000E00020C0B300BF002084F846
:1002F000340000BF022084F835002068056847F606
:10030000F0708543A068402801D1102105E0A06865
:10031000802801D1C10100E00021E06841EAD0015C
:10032000206941EAD001606941EAD001A06941EA4F
:10033000D0002022E16902EAD1010843216A40EAA3
:1003400011100543206805603C498C392068401A2B
:100350001421B0FBF1F08000E06507E0FFE74020EA
:100360006065032084F83500012030E72046FFF760
:1003700084FEA068802801D1002060602079216E71
:100380000860D4E919104860606860B160680828A6
:1003900009D82046FFF74EFE0020E16E0860D4E940
:1003A0001C10486003E00020E066206760670020C2
:1003B0006065012084F83500002008E770B5044628
:1003C00000250CB9012070BD94F83500022803D136
:1003D000800260650120F6E71F49206888420AD341
:1003E0001A492068884206D82068006820F0010079
:1003F0002168086005E02068006820F0010021689D
:10040000086015492068884205D310492068884251
:1004100001D8012000E0002078B1002021680860A8
:1004200021684860216888602168C8602168086187
:10043000212021684861204612E01AE094540258B5
:10044000005902580009024000580258B8040240FE
:100450000008024042880190100002403F8010FED8
:10046000FFF73DFE054694F85C103F208840A860E9
:100470001CE0F7492068884206D3F5498C31206892
:10048000884201D8012000E0002078B100202168D6
:10049000086021684860216888602168C86094F815
:1004A0005C1001208840EA49091F08602046FFF7D8
:1004B000E4FD206E28B10020216E0860D4E91910F7
:1004C0004860606858B16068082808D82046FFF77F
:1004D000B1FD0020E16E0860D4E91C1048600020E6
:1004E000E06620676067606584F8350000BF84F8C7
:1004F000340000BF00BF66E7F0B5846DD0E9196530
:100500007560C56E15B1D0E91C657560D14E056882
:10051000B54205D3D04E0568B54201D8012500E0AB
:100520000025CDB190F85C603F25B540A560056819
:100530002D6825F480250668356005686B60856840
:10054000402D04D10568AA600568E96026E00568C9
:10055000A9600568EA6021E0BD4E0568B5421DD37B
:10056000BB4E8C360568B54218D8B94D2D1F2D6885
:1005700090F85C700126BE403543B54E361F35609D
:1005800005686B608568402D04D10568AA60056820
:10059000E96003E00568A9600568EA60F0BD2DE93F
:1005A000F04104460D4616461F464FF0000814B9A8
:1005B0000120BDE8F08100BF94F83400012801D18A
:1005C0000220F6E7012084F8340000BF94F83500DB
:1005D000012835D1022084F83500002060659D494E
:1005E000206888420AD39C492068884206D820683F
:1005F000006820F001002168086005E020680068BC
:1006000020F00100216808603B463246294620461A
:10061000FFF772FF8F49206888420AD38E4920680D
:10062000884206D82068006840F001002168086010
:1006300010E02068006840F001002168086009E0CF
:1006400000BF002084F8340000BF4FF400606065F4
:100650004FF001084046ACE72DE9F04104460D4655
:1006600016461F464FF0000814B90120BDE8F0817E
:1006700000BF94F83400012801D10220F6E70120E0
:1006800084F8340000BF94F8350001287CD10220A2
:1006900084F83500002060656E49206888420AD3DE
:1006A0006D492068884206D82068006820F0010063
:1006B0002168086005E02068006820F001002168DA
:1006C00008603B46324629462046FFF715FF614940
:1006D0002068884205D360492068884201D80120FB
:1006E00000E00020B0B12068006820F01E0040F05B
:1006F0001600216808602068406940F08000216889
:100700004861206CB0B12068006840F008002168A2
:1007100008600FE02068006820F00E0040F00A003A
:1007200021680860206C28B12068006840F004004F
:1007300021680860206E006800F4803028B1206EC7
:10074000006840F48070216E0860E06E28B1E06EB1
:10075000006840F48070E16E08603E49206888427D
:100760000BD33D492068884207D82068006840F0D4
:1007700001002168086011E006E02068006840F090
:1007800001002168086009E000BF002084F83400FF
:1007900000BF4FF4006060654FF00108404665E718
:1007A0002DE9F04104460025002617F0DBFF07463F
:1007B00014B90120BDE8F08194F83500022808D072
:1007C0008020606500BF002084F8340000BF012055
:1007D000F0E720492068884205D31F4920688842F5
:1007E00001D8012000E0002070B12068006820F0EE
:1007F0001E00216808602068406920F080002168A0
:100800004861A56D266806E02068006820F00E00AB
:10081000216808602668206E006820F48070216ED0
:1008200008600C49206888420AD30B492068884236
:1008300006D82068006820F001002168086005E003
:100840002068006820F001002168086017E00000BF
:100850000854025810000240B804024017F082FF0A
:10086000C01B05280BD92020606500BF002084F83C
:10087000340000BF032084F8350001209AE7306877
:1008800000F001000028E9D1FA492068884205D328
:10089000F9492068884201D8012000E0002028B1F1
:1008A00094F85C103F208840A86005E094F85C1044
:1008B00001208840F1490860D4E919104860E06ED1
:1008C00040B1E06E006820F48070E16E0860D4E909
:1008D0001C10486000BF002084F8340000BF0120D5
:1008E00084F83500002065E710B504460CB90120F6
:1008F00010BD94F83500022803D0802060650120E7
:10090000F6E7DC492068884205D3DB492068884245
:1009100001D8012000E00020C0B1042084F8350097
:10092000D449206888420AD3D3492068884206D82F
:100930002068006820F001002168086048E0206815
:10094000006820F001002168086041E0206800682C
:1009500020F00E0021680860C649206888420AD34A
:10096000C5492068884206D82068006820F0010048
:100970002168086005E02068006820F00100216817
:100980000860206E006820F48070216E086094F882
:100990005C1001208840B9490860D4E9191048600A
:1009A000E06E40B1E06E006820F48070E16E086097
:1009B000D4E91C10486000BF002084F8340000BF58
:1009C000012084F83500206D10B12046216D884744
:1009D00000208DE72DE9F05F04460E4617464FF0E4
:1009E0000009CA4617F0BEFE8346C846002514B962
:1009F0000120BDE8F09F94F83500022808D080203F
:100A0000606500BF002084F8340000BF0120F0E7DB
:100A100098492068884205D397492068884201D8C0
:100A2000012000E00020D8B12068006800F4807048
:100A300020B14FF4807060650120DAE72EB994F898
:100A40005C10202000FA01FA04E094F85C101020F9
:100A500000FA01FAD4F85880A06D00F108051AE0F8
:100A60002068006800F0200020B14FF480706065BD
:100A70000120BEE72EB994F85C10022000FA01FABA
:100A800004E094F85C10042000FA01FADFF8EC812D
:100A9000A8F10408794D80E0781C68B12FB117F0F7
:100AA00061FEA0EB0B00B84206D92020606520460D
:100AB000FFF776FE01209CE7E06E58B1206F0068DA
:100AC000616F084030B1D4E91C104860606D40F49B
:100AD00080606065606E0068A16E084030B1D4E946
:100AE00019104860606D40F40070606561492068CD
:100AF000884205D360492068884201D8012000E07F
:100B00000020A8B3D8F8000094F85C200821914098
:100B1000084040B1606D40F00100606594F85C10E1
:100B2000082088402860D8F8000094F85C205449D8
:100B30009140084040B1606D40F00200606594F85B
:100B40005C104F4888402860D8F8000094F85C207A
:100B50004B49C91C91400840F8B1606D40F0040059
:100B6000606594F85C104648C01C8840286014E01A
:100B7000FFE74248001F006894F85C20082191407C
:100B8000084050B13D48006894F85C200121914034
:100B900008433A49086001206065D8F8000000EA7F
:100BA0000A0028B9606D00F0010000283FF474AF1E
:100BB000606DE8B1606D00F00100C8B12D4920689A
:100BC000884205D32C492068884201D8012000E0E2
:100BD000002018B12046FFF7E3FD07E000BF00202A
:100BE00084F8340000BF012084F83500012000E7BC
:100BF0001EBB20492068884205D31F4920688842CF
:100C000001D8012000E0002028B194F85C103020C9
:100C10008840286008E01948006894F85C200221A8
:100C2000914008431549086000BF002084F8340053
:100C300000BF012084F835001AE00E492068884280
:100C400005D30D492068884201D8012000E000202A
:100C500028B194F85C1010208840286008E007480C
:100C6000006894F85C20042191400843034908601F
:100C70004846BEE610000240B80402400454025840
:100C8000010080002DE9F8430446002700250020DC
:100C90000090FE4800684FF41651B0FBF1F8A66DC5
:100CA0003768FB492068884205D3FA4920688842A2
:100CB00001D8012000E0002000287BD094F85C10CF
:100CC00008208840384000B3F1492068884208D3A2
:100CD000F0492068884204D82068006800F00400C9
:100CE00003E02068006800F0080070B12068006828
:100CF00020F004002168086094F85C100820884007
:100D0000B060606D40F00100606594F85C10E248EE
:100D100088403840C8B1DE492068884208D3DD49A0
:100D20002068884204D82068406900F0800002E012
:100D300020680068002040B194F85C10D6488840D4
:100D4000B060606D40F00200606594F85C10D248BD
:100D5000C01C88403840D0B1CD492068884208D3B3
:100D6000CC492068884204D82068006800F002005E
:100D700002E020680068002048B194F85C10C64882
:100D8000C01C8840B060606D40F00400606594F85D
:100D90005C1010208840384030B3BD49206888423C
:100DA00009D3BC492068884205D82068006800F053
:100DB000080004E0EFE02068006800F0040098B14B
:100DC00094F85C1010208840B0602068006800F43F
:100DD000802080B12068006800F4002028B9206CD1
:100DE00010B12046216C884715E0A06C98B12046D0
:100DF000A16C88470FE02068006800F4807028B973
:100E00002068006820F0080021680860206C10B19C
:100E10002046216C884794F85C1020208840384098
:100E2000002873D09A492068884208D399492068DD
:100E3000884204D82068006800F0100003E02068B1
:100E4000006800F00200002860D094F85C102020B8
:100E50008840B06094F83500042829D120680068E3
:100E600020F01600216808602068406920F08000AA
:100E700021684861206C08B9A06C28B1206800681E
:100E800020F008002168086094F85C103F2088403A
:100E9000B06000BF002084F8340000BF012084F857
:100EA0003500206D10B12046216D8847BDE8F883DC
:100EB0002068006800F4802080B12068006800F499
:100EC000002028B9606C10B12046616C88471DE095
:100ED000E06BD8B12046E16B884717E020680068D6
:100EE00000F4807068B92068006820F01000216864
:100EF000086000BF002084F8340000BF012084F89F
:100F00003500E06B10B12046E16B8847606D00282A
:100F100040D0606D00F0010090B3042084F83500EB
:100F20005B49206888420AD35A492068884206D81B
:100F30002068006820F001002168086005E0206852
:100F4000006820F001002168086000BF0098401C84
:100F50000090404500D905E02068006800F00100DD
:100F60000028F3D100BF00BF002084F8340000BF88
:100F70002068006800F0010018B1032084F83500F3
:100F800002E0012084F83500E06C002802D0204601
:100F9000E16C884797E041492068884206D33F4981
:100FA0008C312068884201D8012000E00020002810
:100FB00053D0256839480838006894F85C2004212B
:100FC00091400840E0B1286800F00400C0B12868F2
:100FD00000F0200018B9286820F0040028602F488D
:100FE000001F006894F85C200421914008432B49BD
:100FF000091F0860206C80B32046216C884762E09E
:1010000026480838006894F85C2002219140084086
:1010100020B3286800F0020000B3286800F0200028
:1010200058B9286820F00A00286000BF002084F822
:10103000340000BF012084F835001848001F006804
:1010400094F85C200221914008431449091F08606C
:10105000E06B10B12046E16B884734E00F48083858
:10106000006894F85C2008219140084058B3286833
:1010700000F0080038B3286820F00E002860074808
:10108000001F006894F85C20012109E0380000246A
:1010900010000240B80402400100800008540258C9
:1010A00091400843464908600120606500BF002068
:1010B00084F8340000BF012084F83500E06C10B1E2
:1010C0002046E16C884700BFF0E610B503460024D7
:1010D0000BB9012010BD00BF93F83400012801D1E5
:1010E0000220F7E7012083F8340000BF93F83500B1
:1010F000012814D1062910D2DFE801F00305070901
:101100000B0DDA630AE01A6408E05A6406E09A6498
:1011100004E0DA6402E01A6500E000BF00E00124A8
:1011200000BF002083F8340000BF2046D2E702460B
:1011300000230AB90120704700BF92F8340001284B
:1011400001D10220F7E7012082F8340000BF92F8B5
:101150003500012824D107291FD2DFE801F0040758
:101160000A0D101316000020D06318E00020106450
:1011700015E00020506412E0002090640FE0002091
:10118000D0640CE00020106509E00020D0631064FA
:1011900050649064D064106501E0012300BF00E05A
:1011A000012300BF002082F8340000BF1846C2E7C8
:1011B000014691F8350070470146486D70470000C0
:1011C0000454025870B5044600250026FA48006809
:1011D00000F00300032801D1012070BDF648283833
:1011E000006820F08050F4492839086017F0BAFAF6
:1011F000054606E017F0B6FA401B022801D9032085
:10120000EBE7ED4828380068C0F340700028F1D1C2
:1012100000BFE948006820F07C70218840EA015056
:10122000E5490860A088401EC0F30800A168491E77
:101230004FF47E4202EA41210843A189491ED201AE
:1012400002EA01410843217C491E120202EA0161BF
:101250000843D9491831086000BFD748001D00680D
:1012600020F4406061690843D349091D08600846BD
:10127000006820F40070A1690843CF49091D086087
:10128000CD482838006840F08050CB4928390860A4
:1012900017F068FA054606E017F064FA401B0228CA
:1012A00001D9032099E7C44828380068C0F340708A
:1012B0000028F1D0304690E770B50446002500269E
:1012C000BD48006800F00300032801D1012070BD73
:1012D000B9482838006820F08060B749283908608C
:1012E00017F040FA054606E017F03CFA401B0228CA
:1012F00001D90320EBE7B04828380068C0F3C0608C
:101300000028F1D100BFAC48006820F47C3021688F
:1013100040EA0130A8490860A088401EC0F30800D8
:10132000A168491E4FF47E4202EA41210843A18987
:10133000491ED20102EA01410843217C491E1202E2
:1013400002EA016108439C491031086000BF9A48D5
:10135000001D006820F0C000616908439649091D1E
:1013600008600846006820F02000A16908439249FF
:10137000091D086090482838006840F080608E4958
:101380002839086017F0EEF9054606E017F0EAF98B
:10139000401B022801D9032099E7874828380068B4
:1013A000C0F3C0600028F1D0304690E72DE9F0414D
:1013B00004464FF00008002700250026206800F0B2
:1013C0000060002840D0606E48B1B0F5801F0FD09B
:1013D000B0F5001F19D0B0F5401F25D123E07648A5
:1013E000001D006840F400307349091D08601DE0CD
:1013F0007148001D006840F400106F49091D086025
:10140000201DFFF759FF054610E06B48001D0068DE
:1014100040F080706849091D086004F12400FFF75E
:10142000D1FE054602E001E0012500BF00BF55B92D
:1014300061482830006820F44010616E08435E491E
:101440002831086000E02E43208800F48070D8B373
:10145000606D05282AD2DFE800F0030C1927280068
:101460005548001D006840F400305349091D0860CC
:101470001EE05148001D006840F400204E49091D3F
:101480000860201DFFF718FF054611E04A48001DBF
:10149000006840F480004849091D086004F12400F8
:1014A000FFF790FE054603E002E001E0012500BFE2
:1014B00000BF55B940482830006820F00700616D32
:1014C00008433D492831086000E02E43208800F49D
:1014D000007088B3A06D802820D003DC40B1402884
:1014E0002DD10EE0C02828D0B0F5807F27D125E08F
:1014F0003148001D006840F400302F49091D086084
:101500001FE02D48001D006840F400202A49091DF5
:101510000860201DFFF7D0FE054612E02648001D9A
:10152000006840F480002449091D086004F124008B
:10153000FFF748FE054604E011E002E001E0012566
:1015400000BF00BF55B91C482830006820F4E07087
:10155000A16D084318492831086000E02E43208817
:1015600000F4806038B3D4F8A400B0F5800F25D023
:1015700004DC50B1B0F5001F2ED10FE0B0F5C00F64
:1015800028D0B0F5000F27D125E00B48001D0068DA
:1015900040F400300849091D08601FE00648001D9E
:1015A000006840F400200449091D0860201DFFF771
:1015B00083FE054612E020E028440258FE480068F9
:1015C00040F48000FC49086004F12400FFF7FAFDB4
:1015D000054603E002E001E0012500BF00BF5DB960
:1015E000F5482C30006820F46000D4F8A4100843BB
:1015F000F1492C31086000E02E43208800F400609F
:1016000078B3D4F8A800B0F1007F1ED004DC50B14C
:10161000B0F1807F28D10DE0B0F1407F22D0B0F151
:10162000806F21D11FE0E448006840F40030E249B7
:1016300008601BE0E048006840F40020DE490860D4
:10164000201DFFF739FE054610E0DB48006840F436
:101650008000D949086004F12400FFF7B3FD054676
:1016600004E012E002E001E0012500BF00BF5DB927
:10167000D1482C30006820F0E060D4F8A81008436E
:10168000CD492C31086000E02E43206800F0007046
:1016900050B3A06CC8B1102804D0202809D030283D
:1016A00014D111E0C448006840F40030C249086019
:1016B0000EE0C148006840F40010BF490860201DDA
:1016C000FFF7FAFD054603E002E001E0012500BF57
:1016D00000BF55B9B8482030006820F03000A16C38
:1016E0000843B5492031086000E02E43208800F40B
:1016F000805070B3E06DB0F5005F1ED004DC50B1D7
:10170000B0F5805F28D10DE0B0F5405F22D0B0F594
:10171000804F21D11FE0A848006840F40030A6495E
:1017200008601BE0A448006840F40020A24908605B
:10173000201DFFF7C1FD054610E09F48006840F4FA
:1017400080009D49086004F12400FFF73BFD054639
:1017500004E011E002E001E0012500BF00BF55B93F
:1017600095482430006820F4E040E16D0843924938
:101770002431086000E02E43208800F4005070B34C
:10178000206EB0F5403F27D007DC68B1B0F5803F50
:101790000BD0B0F5003F23D112E0B0F5802F1CD064
:1017A000B0F5A02F1CD119E01CE08348006840F47C
:1017B000801081490860201DFFF77EFD054611E07D
:1017C0007D48006840F400007B49086004F1240073
:1017D000FFF7F8FC054605E004E003E002E00FE057
:1017E000012500BF00BF55B973482430006820F4BC
:1017F000E020216E084370492431086000E02E4348
:10180000208800F4804070B3D4F8AC00B0F1405FA1
:1018100027D007DC68B1B0F1805F0BD0B0F1005F7A
:1018200023D112E0B0F1804F1CD0B0F1A04F1CD1F9
:101830001AE01CE06048006840F480105E490860CF
:10184000201DFFF739FD054611E05B48006840F4B4
:1018500000005949086004F12400FFF7B3FC054675
:1018600005E004E003E011E001E0012500BF00BF56
:101870005DB951482C30006820F0E040D4F8AC103D
:1018800008434D492C31086000E02E43208800F4C5
:10189000004048B3E06EC0B1B0F1805F03D0B0F15A
:1018A000005F13D106E04448006840F4003042492C
:1018B00008600DE04048006840F480103E49086030
:1018C000201DFFF7F9FC054602E001E0012500BFFD
:1018D00000BF55B938482430006820F04050E16E10
:1018E000084335492431086000E02E43206800F0A9
:1018F000807050B3606CC8B1012804D0022809D0B0
:10190000032814D111E02C48006840F400302A4923
:1019100008600EE02848006840F40010264908607E
:10192000201DFFF7C9FC054603E002E001E00125A8
:1019300000BF00BF55B920482030006820F00300E8
:10194000616C08431C492031086000E02E43206888
:1019500000F48000A0B31948006840F48070174973
:10196000086016F0FFFE074606E016F0FBFEC01BFF
:10197000642801D9032505E01048006800F4807050
:101980000028F2D000BF75BB0B484430006800F45B
:101990004070B4F8B01001F4407188421AD0064883
:1019A0004430006820F4407803484430006840F434
:1019B00080300149443104E02C4402580048025868
:1019C0004FE008600846006820F480300860084650
:1019D000C0F80080D4F8B000B0F5807F14D116F0C4
:1019E000C1FE074609E03BE016F0BCFEC01B41F219
:1019F0008831884201D9032505E0FE480068C0F31C
:101A000040000028F0D000BF45BB00BFB4F8B000D4
:101A100000F44070B0F5407F0ED1F64860380068A1
:101A200020F47C51F44AD4F8B000104041EA101080
:101A3000F0496039086007E0EE486038006820F43B
:101A40007C50EC4960390860EA480068B4F8B0108E
:101A5000C1F30B010843E749086002E02E4300E0B0
:101A60002E43207800F00100D8B3A06F182827D0AB
:101A700005DC48B1082808D0102824D112E020281D
:101A80001FD028281FD11DE01FE0DA484438006825
:101A900040F48010D74944390860201DFFF70CFC42
:101AA000054612E0D3484438006840F40000D149AC
:101AB0004439086004F12400FFF784FB054604E084
:101AC00003E002E001E0012500BF00BF55B9C948AD
:101AD0001C38006820F03800A16F0843C5491C3944
:101AE000086000E02E43207800F00200A0B3606F91
:101AF000062823D2DFE800F00304111F20211FE095
:101B0000BC484438006840F48010BA494439086041
:101B1000201DFFF7D1FB054612E0B64844380068A7
:101B200040F40000B3494439086004F12400FFF791
:101B300049FB054604E003E002E001E0012500BFA7
:101B400000BF55B9AB481C38006820F00700616F32
:101B50000843A8491C39086000E02E43207800F0B3
:101B60000400B0B3D4F89000062823D2DFE800F0D8
:101B70000304111F20211FE09E484438006840F4F0
:101B800080109C4944390860201DFFF795FB0546ED
:101B900012E098484438006840F400009549443900
:101BA000086004F12400FFF70DFB054604E003E0A4
:101BB00002E001E0012500BF00BF5DB98D48183883
:101BC000006820F00700D4F89010084389491839BC
:101BD000086000E02E43207800F0200080B3D4F8A5
:101BE0008C00B0F1405F2CD007DC68B1B0F1805FB1
:101BF0000BD0B0F1005F27D114E0B0F1804F21D0BD
:101C0000B0F1A04F20D11EE020E07A4844380068AF
:101C100040F40020774944390860201DFFF74CFB51
:101C2000054613E073484438006840F080707149FD
:101C30004439086004F12400FFF7C4FA054605E0C2
:101C400013E003E002E001E0012500BF00BF5DB941
:101C500068481C38006820F0E040D4F88C10084335
:101C600064491C39086000E02E43207800F04000F1
:101C700080B3D4F89800B0F5406F2CD007DC68B181
:101C8000B0F5806F0BD0B0F5006F27D114E0B0F540
:101C9000805F21D0B0F5A05F20D11EE020E0554844
:101CA0004438006840F40020524944390860201D3F
:101CB000FFF702FB054613E04E484438006840F049
:101CC00080704C494439086004F12400FFF77AFA27
:101CD000054605E013E003E002E001E0012500BF56
:101CE00000BF5DB943481838006820F4E050D4F8CC
:101CF000981008433F491839086000E02E432078C7
:101D000000F0800080B3D4F89C00B0F5C04F2CD018
:101D100007DC68B1B0F5005F0BD0B0F5804F27D17C
:101D200014E0B0F5004F21D0B0F5204F20D11EE0D7
:101D300020E030484438006840F400202D49443900
:101D40000860201DFFF7B8FA054613E0294844381B
:101D5000006840F0807027494439086004F124008D
:101D6000FFF730FA054605E013E003E002E001E08A
:101D7000012500BF00BF5DB91E481838006820F477
:101D80006040D4F89C1008431A491839086000E0F4
:101D90002E43207800F00800E0B1D4F88000B0F5C0
:101DA000805F0CD104F12400FFF70CFA114844388D
:101DB000006840F080700F49443908600AE00D481F
:101DC0001C38006820F44050D4F8801008430949BA
:101DD0001C390860207800F0100000B3D4F894009B
:101DE000B0F5807F10D104F12400FFF7EBF9014832
:101DF000443803E070440258FFFCFF0F006840F0D5
:101E00008070FE4908600AE0FC482C30006820F42D
:101E10004070D4F894100843F8492C3108602068C9
:101E200000F4002080B3D4F8A00030B1B0F5803FBA
:101E30000ED0B0F5003F18D116E0F048006840F42D
:101E40000020EE490860201DFFF736FA05460EE037
:101E5000EA48006840F08070E849086004F1240016
:101E6000FFF7B0F9054602E001E0012500BF00BF21
:101E70005DB9E2482C30006820F44030D4F8A0105E
:101E80000843DE492C31086000E02E43206800F44E
:101E9000802070B3D4F88400B0F5801F06D0B0F570
:101EA000001F0AD0B0F5401F14D112E0D3480068DB
:101EB00040F40030D14908600EE0D048006840F49A
:101EC0000000CE49086004F12400FFF77BF90546C5
:101ED00002E001E0012500BF00BF5DB9C74828301E
:101EE000006820F44010D4F884100843C349283116
:101EF000086000E02E43206800F4803028B3E06CD6
:101F000018B1B0F5803F12D106E0BC48006840F43B
:101F10000030BA4908600CE0B848006840F400108E
:101F2000B6490860201DFFF7C7F9054601E0012505
:101F300000BF00BF55B9B1482030006820F48030A0
:101F4000E16C0843AD492031086000E02E43206871
:101F500000F0005050B1A948006840F08070A749D7
:101F6000086004F12400FFF72DF90643206800F40F
:101F7000003018B3E06F90B1B0F5807F06D0B0F5B7
:101F8000007F0AD0B0F5407F0AD107E09B48006887
:101F900040F400309949086004E003E002E001E009
:101FA000012500BF00BF55B994482830006820F4CF
:101FB0004070E16F084391492831086000E02E43EA
:101FC000206800F4801048B18C482430006820F06C
:101FD0000040216F0843894924310860206800F0DF
:101FE000805050B185481C38006820F48040D4F8F7
:101FF000B410084381491C390860206800F40010BF
:1020000048B17E482430006820F08070A16E0843FB
:102010007A4924310860206800F0804088B100BF10
:1020200076481C38006820F4004074491C39086068
:1020300008460068D4F8B810084370491C39086095
:1020400000BF206800F0004048B16C4820300068B4
:1020500020F04050216D084368492031086016B9CE
:102060000020BDE8F0810120FBE74FF0FF31016067
:102070006249091F096801F07C714FF07C7292FA85
:10208000A2F2B2FA82F2D14041625C49143109688D
:10209000C1F3080140F2FF1292FAA2F2B2FA82F200
:1020A000D140491C816255491431096801F0FE4153
:1020B0004FF0FE4292FAA2F2B2FA82F2D140491CEB
:1020C00041634E491431096801F47E414FF47E4268
:1020D00092FAA2F2B2FA82F2D140491CC162474997
:1020E0001431096801F4FE014FF4FE0292FAA2F2E3
:1020F000B2FA82F2D140491C01634049096801F4F7
:1021000040614FF4806292FAA2F2B2FA82F2D140B8
:1021100081633A49096801F400714FF4007292FA40
:10212000A2F2B2FA82F2D140C1633449091F0968B0
:1021300001F47C314FF47C3292FAA2F2B2FA82F2CC
:10214000D14041602D490C310968C1F3080140F2CA
:10215000FF1292FAA2F2B2FA82F2D140491C8160D7
:1021600026490C31096801F0FE414FF0FE4292FA17
:10217000A2F2B2FA82F2D140491C41611F490C31EE
:10218000096801F47E414FF47E4292FAA2F2B2FA5B
:1021900082F2D140491CC16018490C31096801F430
:1021A000FE014FF4FE0292FAA2F2B2FA82F2D1409C
:1021B000491C01611149096801F0C001402292FAED
:1021C000A2F2B2FA82F2D14081610C49096801F0B1
:1021D0002001202292FAA2F2B2FA82F2D140C16129
:1021E00006492831096801F0380144304163034948
:1021F0002831096801F00701016301E02C4402580D
:10220000FE492C31096801F00701C164FB492831FE
:10221000096801F44051C163F8492831096801F0A7
:10222000E0418164F5492C31096801F4E0514165D0
:10223000F2492C31096801F460418165EF4924318C
:10224000096801F007010161EC492431096801F4D2
:10225000E0714161E9492C31096801F460010166CE
:10226000E6492C31096801F0E0614166E3494431F7
:10227000096801F44071C166E0492831096801F438
:1022800040110164DD492031096801F48031816029
:10229000DA492831096801F440718163D7491C3952
:1022A000096801F480410167D4492C31096801F4BF
:1022B0004031C165D1492431096801F00041C16252
:1022C000CE492431096801F080714162CB49243143
:1022D000096801F440110162C8492431096801F418
:1022E000E0418161C5492431096801F4E021C161FF
:1022F000C2492C31096801F0E0418166BF492431AF
:10230000096801F040518162BC492831096801F433
:1023100040014164B9492031096801F003010160BD
:10232000B6492031096801F030014160B3492031DC
:10233000096801F04051C1604438B0491C3909684E
:1023400001F4004119B90021C0F8B81003E04FF4BE
:102350000041C0F8B810704770B501460022012056
:10236000002300249FEDA61AB0EE410A9FEDA41AA7
:10237000F0EE410AA14D2D1F2D6805F003029F4D7F
:102380002D1F2D68C5F305509C4D2D6805F48073F5
:102390009A4D18352D68C5F3CC0515FB03F501EEF4
:1023A000105AB8EE411AB0EE410A22B1012A4DD0BE
:1023B000022A7DD169E0914D2C3D2D68C5F3401571
:1023C0002DB38E4D2C3D2D68C5F3C1068D4D25FADC
:1023D00006F4B4FBF0F501EE105AF8EE411A9FED49
:1023E0008A1A80EE012A854D14352D68C5F308053B
:1023F00001EE105AB8EE411A32EE011AB7EE002A79
:1024000031EE021A21EE811AF0EE410A1DE07D4DF7
:10241000B5FBF0F501EE105AF8EE411A9FED7A1A6D
:1024200080EE012A754D14352D68C5F3080501EEBF
:10243000105AB8EE411A32EE011AB7EE002A31EE08
:10244000021A21EE811AF0EE410A5EE06F4DB5FBF3
:10245000F0F501EE105AB8EE412A9FED6B1AC0EE6E
:10246000011A664D14352D68C5F3080501EE105AA2
:10247000B8EE411A31EE811AF7EE001A31EE211A48
:1024800022EE011AF0EE410A3FE0614DB5FBF0F596
:1024900001EE105AF8EE411A9FED5B1A80EE012A08
:1024A000564D14352D68C5F3080501EE105A00E0AD
:1024B0000CE0B8EE411A32EE011AB7EE002A31EE06
:1024C000021A21EE811AF0EE410A1EE04F4DB5FBD3
:1024D000F0F501EE105AB8EE412A9FED4B1AC0EE0E
:1024E000011A464D14352D68C5F3080501EE105A42
:1024F000B8EE411A31EE811AF7EE001A31EE211AC8
:1025000022EE011AF0EE410A00BF00BF3B4D143528
:102510002D68C5F346256D1C01EE105AB8EE411A20
:10252000C0EE811ABCEEE11A81ED001A334D14356C
:102530002D68C5F306456D1C01EE105AB8EE411A20
:10254000C0EE811ABCEEE11A81ED011A2B4D143553
:102550002D68C5F306656D1C01EE105AB8EE411AE0
:10256000C0EE811ABCEEE11A81ED021A70BD70B5A1
:10257000014600220120002300249FED211AB0EE25
:10258000410A9FED1F1AF0EE410A1C4D2D1F2D68C8
:1025900005F00302194D2D1F2D68C5F30530174DA9
:1025A0002D6805F01003154D10352D68C5F3CC05C9
:1025B00015FB03F501EE105AB8EE411AB0EE410AD0
:1025C00022B1012A5AD0022A76D176E00B4D2C3D59
:1025D0002D68C5F3401595B3084D2C3D2D68C5F306
:1025E000C106084D25FA06F4B4FBF0F501EE105AC9
:1025F000F8EE411A9FED041A0CE000002C4402583A
:10260000000000000090D0030000004600093D00DB
:1026100040787D0180EE012AF74D2D68C5F308054D
:1026200001EE105AB8EE411A32EE011AB7EE002A46
:1026300031EE021A21EE811AF0EE410A1DE0FFE7A9
:10264000EE4DB5FBF0F501EE105AF8EE411A1FED14
:10265000121A80EE012AE84D2D68C5F3080501EE37
:10266000105AB8EE411A32EE011AB7EE002A31EED6
:10267000021A21EE811AF0EE410A5AE0E04DB5FB54
:10268000F0F501EE105AB8EE412A1FED211AC0EE06
:10269000011AD94D2D68C5F3080501EE105AB8EEA0
:1026A000411A31EE811AF7EE001A31EE211A22EEAC
:1026B000011AF0EE410A3CE01DE0D24DB5FBF0F509
:1026C00001EE105AF8EE411A1FED311A80EE012A80
:1026D000C94D2D68C5F3080501EE105AB8EE411A30
:1026E00032EE011AB7EE002A31EE021A21EE811AFB
:1026F000F0EE410A1DE0C24DB5FBF0F501EE105AB7
:10270000B8EE412A1FED401AC0EE011ABA4D2D68ED
:10271000C5F3080501EE105AB8EE411A31EE811AE0
:10272000F7EE001A31EE211A22EE011AF0EE410AFC
:1027300000BF00BFB04D2D68C5F346256D1C01EEEE
:10274000105AB8EE411AC0EE811ABCEEE11A81EDC2
:10275000001AA94D2D68C5F306456D1C01EE105AEF
:10276000B8EE411AC0EE811ABCEEE11A81ED011AF1
:10277000A14D2D68C5F306656D1C01EE105AB8EE2B
:10278000411AC0EE811ABCEEE11A81ED021A70BD49
:1027900070B5014600220120002300241FED681AB5
:1027A000F0EE410A944D103D2D6805F00302924D64
:1027B000103D2D68C5F305108F4D0C3D2D6805F0BB
:1027C00001038D4D2D1F2D68C5F3CC0515FB03F5B9
:1027D00001EE105AB8EE411AB0EE410A22B1012AB8
:1027E0004DD0022A7DD169E0834D383D2D68C5F377
:1027F00040152DB3804D383D2D68C5F3C1067F4D82
:1028000025FA06F4B4FBF0F501EE105AB8EE412AB1
:102810001FED831AC0EE011A774D083D2D68C5F3F0
:10282000080501EE105AB8EE411A31EE811AF7EEA2
:10283000001A31EE211A22EE011AF0EE410A1DE0D3
:102840006E4DB5FBF0F501EE105AF8EE411A1FED92
:10285000921A80EE012A684D083D2D68C5F30805DF
:1028600001EE105AB8EE411A32EE011AB7EE002A04
:1028700031EE021A21EE811AF0EE410A5EE0604D5F
