:020000040800F2
:1000000000B30020C5020008671900084118000865
:1000100063190008290A00083930000800000000B0
:100020000000000000000000000000002D02000899
:100030005B1400080000000071020008E1210008C4
:10004000DF020008DF020008DF0200089D1E000832
:10005000DF020008DF020008DF020008DF020008FC
:10006000DF020008DF020008DF020008DF020008EC
:10007000DF020008DF020008DF020008DF020008DC
:10008000DF020008DF020008DF020008F52D00088B
:10009000192E0008DF020008DF020008DF02000856
:1000A000DF020008DF020008DF020008DF020008AC
:1000B00051220008DF020008D1220008DF020008F8
:1000C000DF020008DF020008DF020008DF0200088C
:1000D000DF020008C9290008512A0008DF020008D1
:1000E000DF020008DF020008DF020008DF0200086C
:1000F000DF020008DF020008DF020008DF0200085C
:10010000DF020008DF02000869240008DF0200089F
:10011000DF020008DF020008F92400082525000896
:10012000DF020008DF020008DF020008DF0200082B
:1001300000F002F800F06BF80AA090E8000C82448E
:100140008344AAF10107DA4501D100F060F8AFF26B
:10015000090EBAE80F0013F0010F18BFFB1A43F0A5
:100160000103184724720000447200000A444FF053
:10017000000C10F8013B13F0070408BF10F8014B06
:100180001D1108BF10F8015B641E05D010F8016B4B
:10019000641E01F8016BF9D113F0080F1EBF10F8AF
:1001A000014BAD1C0C1B09D16D1E58BF01F801CBD2
:1001B000FAD505E014F8016B01F8016B6D1EF9D555
:1001C0009142D6D37047000000230024002500266A
:1001D000103A28BF78C1FBD8520728BF30C148BFAA
:1001E0000B607047642900F0FF80752900F0FC80E7
:1001F000782900F03581632900F05783732900F0D6
:100200005C83002070471FB51FBD10B510BD00F006
:10021000C8FB1146FFF7F7FF03F09CF800F0E6FB80
:1002200003B4FFF7F2FF03BC02F00FFF224B196883
:100230000868B0E8F00F80F30988BFF36F8F4FF0C4
:10024000000080F311884EF00D0E70470000000092
:1002500006480068006880F3088862B661B6BFF39C
:100260004F8FBFF36F8F00DF00BF00BF08ED00E0CE
:10027000EFF30980BFF36F8F0F4B1A6820E9F00F7F
:10028000106008B54FF0800080F31188BFF34F8FE6
:10029000BFF36F8F05F0D8FD4FF0000080F3118899
:1002A000BDE8084019680868B0E8F00F80F30988D5
:1002B000BFF36F8F704700BFE4000020EFF30580AD
:1002C000704700000948804709480047FEE7FEE7FD
:1002D000FEE7FEE7FEE7FEE7FEE7FEE7FEE7FEE7F6
:1002E00004480549054A064B70470000F121000803
:1002F0003101000800AD002000B3002000AF002055
:1003000000AF0020704700000FB4044910B503AAE5
:10031000029800F0D7FA10BC5DF814FBC80000206A
:100320000FB41CB5074B06AA7B446946009005989C
:1003300000F099FA0020694600F0A8FA1CBC5DF8AC
:1003400014FB00006105000070B504468569006873
:10035000C10601D5302600E02026C00707D070BDB9
:10036000D4E9012130469047206A401C20626D1E6E
:10037000F6D570BD70B5044685690078C00707D111
:1003800070BDD4E9012120209047206A401C2062E2
:100390006D1EF6D570BD70B50C460546012A05D018
:1003A0002878800600D5EA69002302E0012305E0F1
:1003B0005B1C934202D2E05C0028F9D1A869E618E0
:1003C000C01AA861286A184428622846FFF7BCFFB3
:1003D00004E0D5E9012114F8010B9047B442F8D3A9
:1003E0002846FFF7C7FF70BD2DE9F04106460024FF
:1003F00010687529314616A510D0AFF3008000288B
:1004000002DA404213A507E031688A0701D512A538
:1004100002E0490704D511A5012401E0AFF30080F3
:1004200000210A2206F1240709E0B0FBF2FCB0FB30
:10043000F2F302FB1C00303078541846491C0028A7
:10044000F3D123462A463046BDE8F04100F0ACB96E
:10045000000000002D0000002B0000002000000024
:1004600070B504460D4621461068AFF30080218820
:10047000090502D50F4A7A4402E00E4A7A440E3248
:10048000002104F1240305E000F00F060009965D49
:100490005E54491C0028F7D120780023000704D5BA
:1004A000702D02D009B1022311322046BDE8704000
:1004B00000F07AB9FA6B00002DE9F05F8946044636
:1004C0004FF0000ADFF874B1FB44C0F820A02046CA
:1004D000E1688847002874D0252806D0D4E9012196
:1004E0009047206A401C2062F1E700265F462046C4
:1004F000E16888472028054607DB312D05D27819A9
:1005000010F8200C08B10643F1E7B00701D526F03A
:100510000406C4F81CA00027C4F818A02A2D09D08E
:10052000284602F08BFD38B304EB8708303DC8F84D
:10053000185019E059F8041B204604EB870291611A
:10054000E1688847012F054618D1E069002820DAC4
:1005500026F020061DE0D8F8180000EB800005EB1F
:1005600040003038C8F818002046E1688847054642
:1005700002F064FD0028EED1012F0AD02E2D08D103
:100580002046E16888477F1C0546022F46F020067A
:10059000C4DBA069002803DA404246F00106A061EE
:1005A000F00701D026F010066C2D0BD0682D09D075
:1005B0004C2D39D06A2D35D0742D35D07A2D33D0CD
:1005C00016E038E0E1682F4620468847B8420546E5
:1005D00009D16C2F26D04FF48060E1680643204695
:1005E0008847054604E06C2F1AD04FF4807006430C
:1005F0000DB3A5F14100192802D8203546F4006654
:100600004A462946204626604E46FFF7EBFD80B15C
:1006100001280BD0F61D26F0070000F1080956E767
:100620004020E4E78020D8E70020D6E706F104095F
:100630004DE7284652E7206ABDE8F09FD06B0000E6
:10064000032A40F2308010F0030C00F0158011F8FE
:10065000013BBCF1020F624498BF11F801CB00F8D6
:10066000013B38BF11F8013BA2F1040298BF00F82A
:1006700001CB38BF00F8013B11F0030300F03481D7
:10068000083AC0F0088051F8043B083A51F804CB0E
:10069000A0E80810F5E7121D5CBF51F8043B40F8D4
:1006A000043BAFF30080D20724BF11F8013B11F8DF
:1006B00001CB48BF11F8012B24BF00F8013B00F823
:1006C00001CB48BF00F8012B704702F0FF0343EA5B
:1006D000032242EA024200F002B84FF0000204296D
:1006E000C0F0128010F0030C00F03281CCF1040C49
:1006F000BCF1020F18BF00F8012BA8BF20F8022B95
:10070000A1EB0C0100F024B95FEAC17C24BF00F822
:10071000012B00F8012B48BF00F8012B70470000A7
:100720004FF0013C50F8042B51F8043B9A4221D180
:10073000A2EB0C03934313EACC1317D150F8042B0C
:1007400051F8043B9A4215D1A2EB0C03934313EAF0
:10075000CC130BD150F8042B51F8043B9A4209D129
:10076000A2EB0C03934313EACC13DBD04FF0000051
:10077000704700BFD01A01BAB1FA81F101F0180137
:1007800022FA01F0CB40C1F12001DBB2C0B2C01AA5
:100790002CFA01F3D11A914311EAC311E6D1704743
:1007A00070477047704770472DE9F0470D469946EE
:1007B0009246044600F124080168880604D5E069E1
:1007C00021F01001216000E00120A84201DD471B5B
:1007D00000E00027A1697A1902EB0900081AA0615C
:1007E0002078C00602D42046FFF7AEFD002608E0C0
:1007F000D4E901211AF806009047206A401C761CB3
:1008000020624E45F4DB2078C0060AD52046FFF76B
:100810009BFD06E0D4E9012130209047206A401C6E
:100820002062381EA7F10107F4DC07E0D4E90121BA
:1008300018F805009047206A401C2062281EA5F188
:100840000105F3DC2046FFF795FD2078000602D570
:100850000220BDE8F0870120FBE7000001694A1C87
:1008600002610878704700B58FB0CDE901310021F1
:10087000059105497944CDE9031011466846FFF713
:100880001BFE0FB000BD0000E5FFFFFF0A6802F885
:10089000010B0A60704710B5436913B1AFF30080D4
:1008A00001E0FFF778FD012010BD127800F124016E
:1008B0000A7000224A700122EDE711684FF0FF3202
:1008C000E9E70000074B70B50D467B44FFF7CBFF0F
:1008D0000446284600F061F810B14FF0FF3070BDBB
:1008E000204670BD6B2A000010B5203AC0F00B8086
:1008F000B1E81850203AA0E81850B1E81850A0E824
:100900001850BFF4F5AF5FEA027C24BFB1E818507D
:10091000A0E8185044BF18C918C0BDE810405FEAED
:10092000827C24BF51F8043B40F8043B08BF704769
:10093000D20728BF31F8023B48BF11F8012B28BF6E
:1009400020F8023B48BF00F8012B70474FF000022F
:1009500000B5134694469646203922BFA0E80C50B5
:10096000A0E80C50B1F12001BFF4F7AF090728BF90
:10097000A0E80C5048BF0CC05DF804EB890028BF0C
:1009800040F8042B08BF704748BF20F8022B11F035
:10099000804F18BF00F8012B7047007B00F08000EB
:1009A0007047754600F02CF8AE4605006946534680
:1009B00020F00700854618B020B5FFF791FCBDE890
:1009C00020404FF000064FF000074FF000084FF0B6
:1009D000000B21F00701AC46ACE8C009ACE8C00947
:1009E000ACE8C009ACE8C0098D46704710B50446B4
:1009F000AFF300802046BDE81040FFF711BC0000B7
:100A000000487047A0AC002010B5044602480460BE
:100A100002A0FFF779FC10BDAC012442736574207D
:100A200066616C6C0D0A000000BFFEE700B589B07E
:100A30000121480601F022F80121042001F03EF8CE
:100A40004FF40060ADF8040048208DF80700032043
:100A50008DF8060001A93B4800F0AAFD4FF4805034
:100A6000ADF8040018208DF8070003208DF806006B
:100A700001A9344800F09CFD13208DF800000120EE
:100A80008DF8010000208DF8020001208DF8030090
:100A9000684600F069FF14208DF8000000208DF8F2
:100AA00001008DF8020001208DF80300684600F077
:100AB0005BFF254800F0B8F900208DF81E008DF886
:100AC0001F008DF820008DF821008DF822000120F4
:100AD0008DF8230000208DF81A008DF81B000420EB
:100AE0008DF81C0002208DF81D000820ADF81800BC
:100AF00006A9154800F0D7FA00208DF812008DF8ED
:100B0000130001208DF814000020ADF80800ADF8A6
:100B10000A00ADF80C00ADF80E00ADF81000012091
:100B20008DF8150002A800F0A1F901220221064863
:100B300000F0B0FA01221146034800F0ABFA09B008
:100B400000BD00000008014000640040B1F5007FD6
:100B50003AD00FDC202928D006DC01291CD004293A
:100B60001DD0082940D11DE0402921D0B1F5807F5A
:100B70003AD126E0B1F5004F31D006DCB1F5806FF7
:100B800025D0B1F5006F2FD124E0B1F5803F12D010
:100B9000B1F5003F28D111E0154A826025E0082216
:100BA000C26022E01022C2601FE0082202611CE045
:100BB0001022026119E00822426016E01022426011
:100BC00013E00422426010E0042242600DE004229F
:100BD00042600AE0002282610422426005E00022B5
:100BE00082610422426000E000BF00BF7047000045
:100BF00001010100F0B585B004460D4617460126F7
:100C000000208DF808008DF8090008208DF80A00F2
:100C1000072C06DC0F2D04DC46EA042646EA0516FE
:100C200002E0012005B0F0BD00968DF80B70552153
:100C30008DF80C108DF80D108DF80E108DF80F102A
:100C40008DF810108DF811108DF8121000200F493A
:100C5000087069460E4800F028FB00200D49086026
:100C60000CE0012000F0FCF80A480068401C09492B
:100C7000086008460068642800D903E0034800784B
:100C80000028EED000BF0020CCE700009400002038
:100C9000006400409000002070B586B004460D4608
:100CA000002600208DF80C008DF80D0008208DF82E
:100CB0000E00072C06DC0F2D04DC46EA042646EA6B
:100CC000051601E006B070BD019655208DF80F00A5
:100CD00055218DF810108DF811108DF812108DF827
:100CE00013108DF814108DF815108DF816100020C3
:100CF0000E49087001A90E4800F0D7FA00200D49EE
:100D000008600CE0012000F0ABF80A480068401CC5
:100D10000849086008460068642800D903E00348D1
:100D200000780028EED000BF00BFCBE79400002081
:100D300000640040900000202DE9F04385B080461B
:100D40000F4614461D460C9E4FF0060900208DF8F4
:100D500008008DF8090008208DF80A00B8F1070F87
:100D600006DC0F2F04DC49EA082949EA071902E0EA
:100D700005B0BDE8F083CDF8009041F288308442A0
:100D800001DD044603E02448844200DA0446002CD6
:100D900004DA01DD204600E0604204B2002D04DAEE
:100DA00001DD284600E0684205B2200A8DF80B00FC
:100DB000E1B28DF80C10290A8DF80D10E9B28DF80A
:100DC0000E10310E8DF80F10310C8DF81010310A05
:100DD0008DF81110F1B28DF8121000200F49087033
:100DE00069460F4800F061FA00200E4908600CE0E7
:100DF000012000F035F80B480068401C09490860E4
:100E000008460068642800D903E0044800780028F8
:100E1000EED000BF00BFABE778ECFFFF94000020EE
:100E2000006400409000002010B504460B48844246
:100E300009D10121480600F031FE00214FF0007079
:100E400000F02CFE08E00121880600F027FE0021BA
:100E50004FF0806000F022FE10BD000000640040F2
:100E600010B50446204602F0D1F910BD10B500219E
:100E7000837A012202FA03F13D4A126842F001022C
:100E80003B4B1A603A4A1C3212688A43384B1C3377
:100E90001A60027BCAB9364A0C3212688A43344B54
:100EA0000C331A604288C38842EA0343304A403216
:100EB000847A42F834300288838842EA03432C4A19
:100EC0004032847A02EBC4025360027B012A19D1BA
:100ED000274A0C3212680A43254B0C331A604288A9
:100EE000038842EA0343224A4032847A42F834308B
:100EF000C288838842EA03431D4A4032847A02EB67
:100F0000C4025360C27A3AB9194A121D12688A4360
:100F1000174B1B1D1A6006E0154A121D12680A4382
:100F2000134B1B1D1A60028932B9114A1432126820
:100F30008A430F4B14331A600289012A06D10C4AE6
:100F4000143212680A430A4B14331A60427B012A96
:100F500006D1074A1C3212680A43054B1C331A603B
:100F6000034A126822F00102014B1A6010BD000012
:100F70000066004070B504460D46002660692840B2
:100F8000002871D0B5F5807F5CD010DC082D35D0FD
:100F900006DC012D20D0022D24D0042D72D127E0B3
:100FA000102D31D0202D35D0402D6BD138E0B5F546
:100FB000004F60D009DCB5F5007F49D0B5F5806FF2
:100FC0004CD0B5F5006F5DD14FE0B5F5803F2DD029
:100FD000B5F5003F56D12FE0A0682D4900F034FA56
:100FE000064651E0E068032100F02EFA06464BE089
:100FF000E068082100F028FA064645E0E068102184
:1010000000F022FA06463FE02069032100F01CFAB6
:10101000064639E02069082100F016FA064633E05A
:101020002069102100F010FA06462DE060680821C2
:1010300000F00AFA064627E06068102100F004FA82
:10104000064621E0A069012100F0FEF906461BE0FA
:10105000A069022100F0F8F9064615E0A069042114
:1010600000F0F2F906460FE00FE0A069702100F0F1
:10107000EBF9064608E06068042100F0E5F9064651
:1010800002E0FFE7002600BF00E00026304670BD0A
:10109000010101001AB143690B43436102E0436956
:1010A0008B434361704730B502460020002314682B
:1010B00024F002041460146844F00104146000E099
:1010C0005B1C546804F001041CB94FF6FF74A34282
:1010D000F6D1546804F001040CB900206CE08C795E
:1010E000012C04D1146844F08004146003E01468F7
:1010F00024F080041460CC79012C04D1146844F0ED
:101100004004146003E0146824F0400414600C7A76
:10111000012C04D1146844F02004146003E0146826
:1011200024F0200414604C7A012C04D1146844F09B
:101130001004146003E0146824F0100414608C7A26
:10114000012C04D1146844F00804146003E014680E
:1011500024F008041460CC7A012C04D1146844F003
:101160000404146003E0146824F0040414608C7810
:10117000A407CD7844EA05640D7944EA05444D7925
:1011800044EA05540D886D1E2C43D461146824F084
:1011900001041460002300E05B1C546804F00104A7
:1011A0001CB14FF6FF74A342F6D1546804F0010459
:1011B0000CB1002000E0012030BD10B500F5D8735F
:1011C00003EB01131B6803F004031372137A53B982
:1011D00000F5D87303EB01131B6840F2FF7404EAB7
:1011E0005353136009E000F5D87303EB01131B6838
:1011F0006FF0604404EAD303536000F5D87303EB47
:1012000001131B6803F00203537200F5D87303EB5C
:1012100001135B6803F00F03937200F5D87303EBBF
:1012200001135B681B0AD37400F5D87303EB011339
:101230009B68D37200F5D87303EB01139B681C0AFB
:10124000147300F5D87303EB01139B681C0C5473E3
:1012500000F5D87303EB01139B681B0E937300F525
:10126000D87303EB0113DB68D37300F5D87303EB7A
:101270000113DB681C0A147400F5D87303EB011327
:10128000DB681C0C547400F5D87303EB0113DB68A6
:101290001B0E937421B9C36843F02003C36003E0BD
:1012A000036943F02003036110BD10B5024600201E
:1012B000936803F08063B3F1806F00D110E093680E
:1012C00003F00063B3F1006F01D1012008E09368DF
:1012D00003F08053B3F1805F01D1022000E00420CD
:1012E000042874D002F5C07303EB00131B6803F0ED
:1012F000010402F5C07303EB00131C600B7A7BB989
:101300004B7A0C8843EA445302F5C07404EB001492
:101310002468234302F5C07404EB0014236010E03A
:101320000B7A4C6843EAC4034C7A234302F5C07439
:1013300004EB00142468234302F5C07404EB00148A
:1013400023608B7A03F00F038B7202F5C07303EBFB
:1013500000135B6823F00F0402F5C07303EB001366
:101360005C6002F5C07303EB00135B688C7A234367
:1013700002F5C07404EB001463608B7B1C064B7B8E
:1013800044EA03440B7B44EA0323CC7A234302F56B
:10139000C07404EB0014A3608B7C1C064B7C44EAF5
:1013A00003440B7C44EA0323CC7B234302F5C07443
:1013B00004EB0014E36002F5C07303EB00131B6839
:1013C00043F0010402F5C07303EB00131C6010BD71
:1013D00010B5052201210020FFF70CFC0522022197
:1013E0000020FFF707FC10BD10B501210020FFF71A
:1013F00053FC02210020FFF74FFCC82004F054FAF0
:10140000FFF7E6FF10BD000038B505460C462BB2CD
:1014100041F28832012100200094FFF78DFC014841
:10142000046038BD6400002038B505460C462BB278
:1014300041F28832022100200094FFF77DFC014830
:10144000046038BD680000200246002002EA010363
:101450000BB1012000E000207047704708B5012162
:10146000102000F02BFBBF20ADF8000048208DF8C5
:1014700003006946014800F09BF808BD00100140D8
:1014800010B5044614B10120474908704648007859
:10149000002860D00121454800F015F9E8B102218B
:1014A000424800F010F9C0B10421404800F00BF9A7
:1014B00098B108213D4800F006F970B110213B4871
:1014C00000F001F948B12021384800F0FCF820B1C3
:1014D0008021364800F0F7F8A0BB0A2001F076FE24
:1014E0000020314908700121304800F0ECF8012853
:1014F00000D110BD02212D4800F0E5F8012801D1EE
:101500000220F6E70421294800F0DDF8012801D186
:101510000320EEE70821254800F0D5F8012801D185
:101520000420E6E71021214800F0CDF8012801D180
:101530000520DEE720211D4800F0C5F8012802D172
:101540000620D6E707E08021184800F0BCF8012803
:1015500027D10720CDE70121144800F0B4F8E8B105
:101560000221124800F0AFF8C0B104210F4800F08A
:10157000AAF898B108210D4800F0A5F870B1102123
:101580000A4800F0A0F848B12021084800F09BF874
:1015900020B18021054800F096F810B901200249D9
:1015A00008700020A5E700003E0000200010014068
:1015B0002DE9F041024600250026002000230024EA
:1015C000002791F803C00CF00F0591F803C00CF050
:1015D000100CBCF1000F03D091F802C04CEA0505D5
:1015E00091F800C0BCF1000F31D0146800202BE04E
:1015F0004FF0010C0CFA00F3B1F800C00CEA03063E
:101600009E4220D183004FF00F0C0CFA03F7BC432D
:1016100005FA03FC4CEA040491F803C0BCF1280F5E
:1016200006D14FF0010C0CFA00FCC2F814C00AE01D
:1016300091F803C0BCF1480F05D14FF0010C0CFA32
:1016400000FCC2F810C0401C0828D1D31460B1F8C7
:1016500000C0BCF1FF0F34DD546800202EE000F123
:10166000080C4FF0010808FA0CF3B1F800C00CEABE
:1016700003069E4221D183004FF00F0C0CFA03F7B2
:10168000BC4305FA03FC4CEA040491F803C0BCF126
:10169000280F05D100F1080C08FA0CF8C2F81480E4
:1016A00091F803C0BCF1480F07D100F1080C4FF0CE
:1016B000010808FA0CF8C2F81080401C0828CED3A4
:1016C0005460BDE8F0810246002093680B400BB1E6
:1016D000012000E0002070474161704701617047C0
:1016E00070B504460B48007878B101200A490860BB
:1016F00000200A49C1F89C01094890FBF4F54FF617
:10170000FF71284600F072F902E006A0FEF7FCFD2A
:1017100070BD0000360000209881214200802142E7
:1017200040420F007365742066616C6C0D0A000006
:1017300070B504460A48007870B100200949086075
:101740000949C1F89C01094890FBF4F54FF6FF7177
:10175000284600F04BF902E005A0FEF7D5FD70BD6C
:1017600036000020988121420080214240420F0033
:101770007365742066616C6C0D0A000070B50446D8
:101780000A48007870B10120094908600949C1F888
:101790009C01094890FBF4F54FF6FF71284600F0D4
:1017A00025F902E005A0FEF7AFFD70BD3600002070
:1017B000988121420080214240420F0073657420CD
:1017C00066616C6C0D0A000010B50548007810B118
:1017D00001F0A8F802E003A0FEF796FD10BD00009E
:1017E000360000207365742066616C6C0D0A000081
:1017F00070B504460B48007878B100200A490860AB
:1018000001200A49C1F89C01094890FBF4F54FF604
:10181000FF71284600F0EAF802E006A0FEF774FD2A
:1018200070BD0000360000209881214200802142D6
:1018300040420F007365742066616C6C0D0A0000F5
:1018400000BFFEE70146CA1701EB92729210A1EBAE
:10185000820292B9642091FBF0F200FB121050B9A1
:101860004FF4C87091FBF0F200FB121008B9012090
:1018700070470020FCE70120FAE70020F8E70000AD
:1018800008B50121442000F019F91820ADF8000036
:1018900048208DF8030069460648FFF789FE0120BD
:1018A000ADF8000028208DF8030069460248FFF7D4
:1018B0007FFE08BD001801400008014008B5012165
:1018C0004FF4A47000F0FAF82020ADF800001020CA
:1018D0008DF8030003208DF8020069461548FFF7D4
:1018E00067FE20211348FFF7F9FE2020ADF8000025
:1018F00069461148FFF75CFE20210F48FFF7EEFE16
:10190000C020ADF8000069460A48FFF751FEC0212B
:101910000848FFF7E3FE4FF42050ADF80000694699
:101920000648FFF745FE4FF420510448FFF7D6FE66
:1019300008BD0000000C01400018014000200140DB
:10194000024600200AE0135C602B05DD135C7B2B54
:1019500002DA135C203B1354431CD8B28842F2DBFA
:10196000704700BFFEE7704770B5002100230F22CB
:10197000C47804B3154C246804F4E064C4F5E0644E
:10198000210AC1F10403CA40447804FA03F18478BF
:101990001440214309010E4C0678A155047804F047
:1019A0001F050124AC4005786D11AD0005F1E0255F
:1019B000C5F8004109E0047804F01F050124AC409B
:1019C000044D0678761145F8264070BD0CED00E018
:1019D00000E400E080E100E002490143024A1160B6
:1019E000704700000000FA050CED00E070B50546F8
:1019F0000C461548007800B30020144908601249CD
:101A00000870204600F02DFC0121880700F061FEDF
:101A100001221146900700F09BFE284600F094FD3D
:101A200001210B4800F058FE0121880700F054FE08
:101A30000121074800F05CFE04E02246294605A08B
:101A4000FEF762FC70BD00003F000020B40124429C
:101A500000340140663D25642C6E756D3D25642083
:101A6000C2F6B3E5B7A2CBCDD6D02CBDFBD6B9B468
:101A7000F2B6CF2E2E2E0D0A0000000029B1064A24
:101A8000D2690243044BDA6104E0034AD26982431B
:101A9000014BDA61704700000010024029B1064A8C
:101AA00012690243044B1A6104E0034A126982433B
:101AB000014B1A61704700000010024029B1064A2C
:101AC00092690243044B9A6104E0034A926982439B
:101AD000014B9A61704700000010024030B50021B0
:101AE0000022002400232D4D6D6805F00C0121B16A
:101AF000042905D0082923D105E0294D056022E0FD
:101B0000274D05601FE0254D6D6805F47012234DCB
:101B10006D6805F48034022505EB92421CB9214D15
:101B2000554305600BE01D4D6D6805F400351DB192
:101B30001C4D5543056002E0194D5543056002E018
:101B4000174D056000BF00BF144D6D6805F0F00132
:101B50000909154D6B5C0568DD4045600F4D6D68EA
:101B600005F4E061090A104D6B5C4568DD40856055
:101B70000A4D6D6805F46051C90A0B4D6B5C4568F0
:101B8000DD40C560054D6D6805F44041890B074D8A
:101B90006B5CC568B5FBF3F5056130BD0010024014
:101BA00000127A0000093D00CE000020DE00002077
:101BB00010B586B0044601212420FFF77FFF0121E4
:101BC0004804FFF75BFF8020ADF8140010208DF86B
:101BD000170003208DF8160005A92748FFF7E8FC39
:101BE0000420ADF8140018208DF8170005A923482B
:101BF000FFF7DEFC0820ADF8140004208DF8170074
:101C000005A91E48FFF7D4FC01214804FFF746FF51
:101C100000214FF40030FFF741FF01940020ADF8A0
:101C20000800ADF80A00ADF80C00ADF810000C206B
:101C3000ADF80E0001A9124801F066F826208DF8D3
:101C4000000003208DF801008DF8020001208DF8BE
:101C500003006846FFF788FE012240F2255108483C
:101C600001F02DF80121064800F0E6FF00200549AB
:101C7000086006B010BD00000014014000080140DB
:101C8000004400409C81224270B505460E4601206A
:101C90000F49086000240CE000BF40210D4800F00F
:101CA000D7FF0028F9D0295D0A4801F09EF8601C92
:101CB000C4B2B442F0DB00BF4021064800F0C8FFC8
:101CC0000028F9D00020044908700149086070BD5F
:101CD0009C812242004400405000002002490988B3
:101CE0008143014A118070470428004070B50026E6
:101CF0000024002500F07AF806463848B6FBF0F4D8
:101D000037480088A0423CD035490C8040F2B2757B
:101D100010E02846FFF796FD40B1B4F5B77F02D337
:101D2000A4F5B77404E0681C85B206E0A4F26D1453
:101D3000681C85B2B4F5B67FEBD800BF2948858012
:101D4000002516E027498888FFF77CFD30B1012D7A
:101D500004D11D2C01D31D3C09E00CE02248405D5C
:101D6000A04203D82048405D241A00E003E0681C2C
:101D700085B21C2CE6D200BF681C1A498871601C11
:101D8000C8711648B6FBF0F100FB11644FF46160B6
:101D9000B4FBF0F0134908704FF46160B4FBF0F14C
:101DA00000FB11403C21B0FBF1F00E4948704FF4AC
:101DB0006160B4FBF0F100FB11403C21B0FBF1F29B
:101DC00001FB1200074988700B46DA7999799888E7
:101DD00000F028F803490872002070BD805101000E
:101DE000400000203C030020507000080021034800
:101DF0000188001F008841EA004070471C2800400D
:101E000001460020064A12880A40D0B2044A121F36
:101E100012880A4012B108B1012000E0002070478A
:101E200004280040F0B503460C461546642093FB99
:101E3000F0F0C6B2642093FBF0F700FB1730C1B29C
:101E4000132E02DD01F16400C1B20846CF1701EB89
:101E5000977701EBA707BAB2072092FBF0F700FBD8
:101E6000172082B25719601EDFF82CC01CF8000042
:101E7000384482B2CF1701EB9777BF10A1EB8707E9
:101E80001FB9032C01DA501E82B2072092FBF0F733
:101E900000FB1720C0B2F0BD447000080EB5012051
:101EA000FFF7AEFF08B1FFF721FF0220FFF7A8FF01
:101EB000A0B10220FFF712FFFFF718FF0A48807851
:101EC00009494978084A1278CDE90021029006486C
:101ED000C3798279818805A0FEF716FA0520FFF7FD
:101EE000FDFE00F013F80EBD3C030020416C617252
:101EF0006D2054696D653A25642D25642D25642077
:101F000025643A25643A25640A00000000BF0348AE
:101F1000008800F020000028F9D070470428004015
:101F200008B501211020FFF7C9FD4FF4F850ADF8B6
:101F3000000010208DF8030003208DF80200694690
:101F40000C48FFF735FB4FF4F8510A48FFF7C6FB82
:101F500001210802FFF7B2FD4FF45040ADF8000038
:101F600069460548FFF724FB4FF450410248FFF74C
:101F7000B5FB08BD001001400020014009B9012255
:101F800000E00022114606282ED006DC062864D286
:101F9000DFE800F063171B1F23270A282FD004DC7B
:101FA000072825D0082858D125E00B283ED07B28CB
:101FB00053D12B4A11602B4AC2F8BC112A4A116036
:101FC0004BE0274A103A116047E0254A0C3A11606D
:101FD00043E0234A083A11603FE0214A121F116092
:101FE0003BE01F4A116038E01F4A121D116034E0C7
:101FF0001D4A116031E01C4A083A11602DE00022B0
:10200000174B103B1A60194BC3F8A421144B083B23
:102010001A601B1D1A601B1D1A60134B1B1D1A60D2
:102020001B1F1A600F4BC3F8B02116E001220C4BA6
:10203000103B1A600D4BC3F8A421094B083B1A60F2
:102040001B1D1A601B1D1A60074B1B1D1A601B1FEE
:102050001A60044BC3F8B02100BF00BF70470000F6
:10206000B001224200002442B80124420000224272
:1020700010B5044694B1012C21D101210846FFF787
:102080007DFF4FF4FA6003F00FFC01210220FFF7FF
:1020900075FF01210320FFF771FF10BD0021022011
:1020A000FFF76CFF00210320FFF768FF4FF4FA6091
:1020B00003F0FAFB00210120FFF760FFEDE700BF0E
:1020C000EBE710B500F002F810BD00000CB50020E1
:1020D000019000903348006840F480303149086036
:1020E00000BF3048006800F4003000900198401CA8
:1020F0000190009818B90198B0F5A06FF1D1294866
:10210000006800F4003010B10120009001E00020D0
:1021100000900098012843D12348006840F0100047
:10212000214908600846006820F00300086008465E
:10213000006840F0020008601A4840681949486089
:102140000846406848600846406840F4806048603F
:102150000846406820F47C1048600846406840F417
:10216000E81048600846006840F08070086000BFD2
:102170000C48006800F000700028F9D00948406859
:1021800020F00300074948600846406840F002001C
:10219000486000BF0348406800F00C000828F9D1EF
:1021A0000CBD0000001002400020024001490880E0
:1021B0007047000034000020042808D14FF0E021CF
:1021C000096941F004014FF0E022116107E04FF08E
:1021D000E021096921F004014FF0E022116170470C
:1021E00010B504F051FA012801D003F0D3FE10BD60
:1021F00010B51348006840F0010011490860084616
:102200004068104908400E494860084600680E4979
:1022100008400B4908600846006820F480200860E8
:102220000846406820F4FE0048604FF41F008860B4
:10223000FFF747FF4FF000600449086010BD000041
:10224000001002400000FFF8FFFFF6FE08ED00E07E
:1022500010B50121880700F06AFA08B100F062FBAE
:1022600010BD1FB5044601210846FFF707FC601E9C
:1022700080B2ADF808000020ADF80400ADF80A0007
:10228000ADF8060001A94FF0804000F0F9FA1021E6
:10229000880600F0D6FA4FF08040008940F0070031
:1022A0004FF08041088100220121880700F050FA98
:1022B0001C208DF8000000208DF801008DF8020030
:1022C00001208DF803006846FFF74EFB1FBD00009C
:1022D00010B501215E4800F02AFAF8B15D48007897
:1022E00000F08000D0B15B48007820F01000594920
:1022F00008700846007800F00F0020B90846007802
:1023000040F0400008705348007800F00F000E289D
:1023100005DA50480078401C4E4908700AE04D48E4
:10232000007820F080004B4908700846007800F0E3
:10233000F00008701021464800F0F9F9002810D08C
:102340004548006870B10221414800F060FA002160
:102350003F4800F093FA3F48007840F010003D49B4
:10236000087070E03A4800F0D2F93C49088000213A
:10237000374800F04CFA3748007800F01000002889
:102380005BD03448007800F08000E8B33348008820
:10239000B0F5967F0DDD31480088B0F5487F08DA4A
:1023A0002F48006840002E49086008460068086011
:1023B00043E02A480088B0F5AF6F0FDD274800885A
:1023C000B0F5E16F0ADA2648006840002449086049
:1023D0000846006840F0010008602EE01F480088B1
:1023E00040F69801884228DD1C48008840F62821E4
:1023F000884222DA1B480078401C1A4908701548A8
:10240000007800F0F00000E002E01249087014E0EB
:102410001248008841F2680188420EDD0F480088AA
:1024200041F25C21884208DA0A48007840F08000D6
:102430000849087000200B4908700648007820F011
:102440001000044908701121014800F042F910BD44
:1024500000080040840000202481214286000020E2
:10246000880000208C00002010B50121084800F0F1
:102470005EF958B10121064800F02BF905480068C3
:1024800008B9012000E000200249086010BD0000EA
:10249000000C0040948121427FB505460C46012185
:1024A0000820FFF7EBFAADF80850ADF80440002023
:1024B000ADF80A00ADF8060001A90E4800F0E0F9F9
:1024C000012211460B4800F043F932208DF800003C
:1024D00004208DF8010003208DF8020001208DF802
:1024E00003006846FFF740FA0121024800F0F4F8C3
:1024F0007FBD0000000C004010B50121084800F02D
:1025000016F9012807D10021054800F0B7F9642128
:10251000034800F0B1F90121014800F0DAF810BDDC
:102520000010004010B50121064800F000F938B154
:102530000121044800F0CDF80021024800F0CCF859
:1025400010BD00000014004010B58CB004460121FD
:102550000420FFF7B3FA8020ADF82C0018208DF886
:102560002F0003208DF82E000BA94748FFF720F815
:1025700001211020FFF7A2FA4020ADF82C0018200E
:102580008DF82F0003208DF82E000BA93F48FFF790
:102590000FF801210420FFF791FA4020ADF82C003C
:1025A00018208DF82F0003208DF82E000BA9364837
:1025B000FEF7FEFF40213448FFF78EF80121480363
:1025C000FFF77CFA601E80B2ADF824004720ADF81A
:1025D00020000020ADF82600ADF822008DF828007C
:1025E00008A92B4800F04CF96020ADF8100001203C
:1025F000ADF812000420ADF814000120C0EB540027
:1026000080B2ADF816000020ADF818000820ADF833
:102610001A000020ADF81C00ADF81E0004A91C48EB
:1026200000F0A0F808211A4800F0E8F84FF4006024
:10263000ADF800004010ADF802008010ADF80400C5
:102640000B20ADF806004FF48050ADF808004000B4
:10265000ADF80A004000ADF80C0069460C4800F0E7
:1026600025F880210A4800F0F5F82021084800F0FC
:10267000FAF80821064800F0D7F80121044800F0D4
:1026800009F80CB010BD0000000801400010014026
:102690000034014021B1028842F08002028004E04F
:1026A00002884FF67F731A40028070470A884B8871
:1026B0001A438B881A43CB881A430B891A434B89D8
:1026C0001A438B891A43A0F844207047CA430282F8
:1026D0007047CA430282704721B1028842F001026A
:1026E000028004E002884FF6FE731A4002807047B1
:1026F00031B1B0F8442042F40042A0F8442005E093
:10270000B0F84420C2F30E02A0F8442070470146FE
:10271000B1F8400070470146888C7047024600209F
:10272000138A0B400BB1012000E00020704730B548
:102730000246002000230024158A05EA010395893A
:1027400005EA010413B10CB1012000E0002030BD06
:102750001AB183890B43838102E083898B43838190
:102760007047000070B5002400220023058C4FF64E
:10277000FE7635400584028C8388048B4FF68F7576
:102780002C40B51E2C400D882C43751E2A400D8907
:102790002A434D882A43144DA8420BD0134DA8421A
:1027A00008D0134DA84205D0124DA84202D0124DB8
:1027B000A84213D14FF6F7752A404D892A434FF6A8
:1027C000FB752A408D882A434FF6FF652B404FF654
:1027D000FF552B408D892B43CD892B438380048368
:1027E000CD888586028470BD002C014000340140F4
:1027F0000040014000440140004801400A460021D9
:10280000018B4FF6F77319401143018370470A4655
:102810000021018C4DF6FF7319404FF6FF7303EA58
:1028200002331943018470470A460021818B4FF21D
:10283000FF7319404FF6FF7303EA022319438183A4
:1028400070470A46002101894FF68F7319401143E2
:102850000181704702894FF67F731A400281028915
:102860000A430281704782884FF68F731A40828034
:1028700082880A43828070478185704781847047CF
:10288000002202881D4B98420ED01D4B98420BD05F
:10289000B0F1804F08D01B4B984205D01A4B98429C
:1028A00002D01A4B984204D14FF68F731A404B88CE
:1028B0001A43174B984207D0164B984204D04FF654
:1028C000FF431A40CB881A4302808B8883850B888C
:1028D00003850A4B98420BD0094B984208D00E4B07
:1028E000984205D00D4B984202D00D4B984201D131
:1028F0000B7A03860123838270470000002C01407D
:10290000003401400004004000080040000C00407A
:10291000001000400014004000400140004401400D
:102920000048014010B501218807FFF7D2FE0021C1
:102930000B48FFF7DDFE00210948FFF7CDFE00211F
:102940004FF08040FFF7C8FE002201218807FFF703
:10295000FFFE0120034908700349086010BD000014
:10296000003401403F000020B40124427FB50546F9
:102970000C4601211020FFF781F8ADF80850ADF8A2
:1029800004400020ADF80A00ADF8060001A90D488A
:10299000FFF776FF012241210A48FFF7D9FE3620D2
:1029A0008DF8000000208DF8010001208DF8020054
:1029B0008DF803006846FEF7D7FF01210148FFF7B5
:1029C0008BFE7FBD0010004010B540F225511D4820
:1029D00000F04BF910B31B4800F002FAC4B21A48D9
:1029E000008800F40040C8B91748008800F480400F
:1029F00060B10A2C03D000201349088020E012485F
:102A0000008840F400401049088019E00D2C06D1E0
:102A10000D48008840F480400B49088010E00A48C7
:102A20000088C0F30D0009490C5407480088401C79
:102A30000549088008460088C72801DD0020088075
:102A400010BD000000380140CC00002086030020AB
:102A500010B540F225516A4800F007F9002872D0FD
:102A6000674800F0BDF9C4B26648007840286ADAC9
:102A70005B2C02D05D2C0ED106E00120624908706B
:102A800000206249087006E00120604908700020BB
:102A90005D49087000BF00BF5B480078F8B15C4832
:102AA0005849097844542C2C14D15A48007838B924
:102AB000544800785849087001205649087009E0C8
:102AC0005648007830B94F480078554908700120C1
:102AD000524908704B480078401C4A4908704B48DE
:102AE00000780028BBD0474801780078401C454A50
:102AF000107047484454002045491278885446488D
:102B00000078022808D108464078464908700846EF
:102B10000078303888701BE03F480078032813D1D4
:102B20003B4840783F4908703948807848700846EB
:102B3000407830380978303901EB810100EB4100F1
:102B40003849887004E05AE004213748FFF79CF8C0
:102B50003348007830490978401A022812D13048A9
:102B60000078401E2A49085C304908700846007801
:102B70003038887026492A480078401C085C2C4967
:102B800008702CE02648007823490978401A032869
:102B900021D123480078801E1D49085C2349087014
:102BA0001F480078401E1A49085C204948700846B2
:102BB000407830380978303901EB810100EB410071
:102BC0001A498870124916480078401C085C303851
:102BD0001749087003E004211348FFF755F8094826
:102BE00001780B48FFF750F8002012490870074998
:102BF000087005490870074908700849087010BD39
:102C000000440040500000205100002052000020ED
:102C100046030020530000205600002054000020EE
:102C200057000020580000205F0000205B000020BB
:102C30005E0000205500002021B1828942F400523C
:102C4000828104E082894DF6FF731A4082817047C9
:102C500002460020B1F5007F00D100BF13880B4071
:102C60000BB1012000E00020704770B5024600243F
:102C700000230025002040F66A16B14200D100BFB3
:102C8000C1F3421501F01F03012606FA03F3012DDB
:102C900002D19689334006E0022D02D1168A3340D4
:102CA00001E0968A33400C12012606FA04F41688D5
:102CB000344013B10CB1012000E0002070BDF0B52C
:102CC0000346002400260025002040F66A17B9427A
:102CD00000D100BF1846C1F3421401F01F060127BE
:102CE00007FA06F5012C01D10C3004E0022C01D1C9
:102CF000103000E014301AB107682F43076002E07B
:102D00000768AF430760F0BD2DE9F04786B0054680
:102D10000E460024A24600BFA1460027B08900B19C
:102D200000BF2F462C8A4CF6FF700440F088044305
:102D30002C82AC894EF6F3100440B08831890843E8
:102D4000718908430443AC81AC8A4FF6FF400440CC
:102D5000B0890443AC8201A8FEF7C0FE1F48874239
:102D600002D1DDF810A001E0DDF80CA0A88900F484
:102D7000004040B10AEBCA0000EB0A10316849007C
:102D8000B0FBF1F807E00AEBCA0000EB0A1031686B
:102D90008900B0FBF1F86420B8FBF0F004012009D1
:102DA000642101FB1089A88900F4004040B1322061
:102DB00000EBC900B0FBF1F000F00700044308E0AD
:102DC000322000EB09106421B0FBF1F000F00F009D
:102DD00004432C8106B0BDE8F087000000380140B4
:102DE00001468888C0F308007047C1F3080282805A
:102DF0007047000010B501210548FEF7BBF830B15F
:102E000001210348FDF7A2FE01200249087010BD10
:102E1000006400409400002000B585B002217F4886
:102E2000FEF7A8F8002839D002217C48FDF78EFE75
:102E30006A4600217948FEF7C0F99DF8080000288D
:102E40002CD19DF808000028FAD19DF80A00082826
:102E5000F6D100981B2822D19DF80C009DF80B108C
:102E600040EA012000B26E4908809DF80E109DF8DE
:102E70000D0041EA002000B26A4908809DF80F0069
:102E800001069DF8100041EA00419DF8110041EA59
:102E900000209DF81210084363490860BCE00098C8
:102EA0002B2822D19DF80C009DF80B1040EA012040
:102EB00000B25B4948809DF80E109DF80D0041EA74
:102EC000002000B2574948809DF80F0001069DF888
:102ED000100041EA00419DF8110041EA00209DF8F0
:102EE000121008435049486096E000983B2822D1D0
:102EF0009DF80C009DF80B1040EA012000B24849F3
:102F000088809DF80E109DF80D0041EA002000B267
:102F1000444988809DF80F0001069DF8100041EAA1
:102F200000419DF8110041EA00209DF8121008436D
:102F30003D49886070E000984B2822D19DF80C0034
:102F40009DF80B1040EA012000B23549C8809DF879
:102F50000E109DF80D0041EA002000B23149C880F2
:102F60009DF80F0001069DF8100041EA00419DF810
:102F7000110041EA00209DF8121008432A49C86058
:102F80004AE000981F2803D101202849087043E037
:102F900000982F2803D10120244948703CE0009874
:102FA0003F2803D101202149887035E000984F283F
:102FB00003D101201D49C8702EE000981C2808D1BB
:102FC0009DF80B001A4908709DF80C00194908700B
:102FD00022E000982C2808D19DF80B001449487075
:102FE0009DF80C001349487016E000983C2808D161
:102FF0009DF80B000E4988709DF80C000D498870F3
:103000000AE000984C2807D19DF80B000849C870C9
:103010009DF80C000749C87005B000BD0064004071
:10302000960000209E000020A8000020B80000208C
:10303000BC000020C000002000BFFEE730380A2896
:1030400001D2012070470020704700BF7047000088
:10305000F0B585B004460D4616460E2700208DF8C3
:1030600008008DF8090008208DF80A00072C06DCFE
:103070000F2D04DC47EA042747EA051701E005B0F5
:10308000F0BD012E03D100208DF80B0003E016B92E
:1030900001208DF80B00009755218DF80C108DF84C
:1030A0000D108DF80E108DF80F108DF810108DF892
:1030B00011108DF8121000200E49087069460E4854
:1030C000FEF7F3F800200D4908600CE00120FDF741
:1030D000C7FE0A480068401C0849086008460068A6
:1030E000642800D903E0034800780028EED000BF30
:1030F00000BFC4E79400002000640040900000205E
:103100007047000070B54FF4FA7002F0CDFB1DE07F
:103110004FF4FA7002F0C8FB0D480078B0B10D48CA
:1031200000682C2190FBF1F40B4800684FF4CA7141
:10313000B0FBF1F5094800682C2190FBF1F623461D
:103140002A46314606A0FDF7DFF870BDE0E7000033
:103150003F0000204C0000204800002044000020D8
:103160002825642C25642C2564290D0A0000000004
:1031700010B50420FFF720F8104800681049B0FB94
:10318000F1F0104908700D4800680D49B0FBF1F4EA
:103190004FF47A70444301200B4908804FF0E0203F
:1031A000006940F002004FF0E021086108464461E8
:1031B000006940F00100086110BD0000140000200B
:1031C00040420F00C4000020C600002070B5044635
:1031D00003F05AFA012810D00B480088844206D325
:1031E00009480088B4FBF0F5284602F05DFB06486C
:1031F0000088B4FBF0F100FB11444FF47A7104FB3A
:1032000001F000F003F870BDC600002070B5034661
:1032100000224FF0E02675690D4E367803FB06F468
:103220004FF0E026B16910E04FF0E026B069884227
:103230000BD0884202D20E1A324402E02E1A0E44FB
:1032400032440146A24200D300E0EDE700BF70BD6A
:10325000C40000200025FEF763FE33E00120FEF7E6
:103260000FF90446072C29D2DFE804F0040A0F14F2
:10327000191E23001DB9012513A0FDF745F81DE017
:10328000002515A0FDF740F818E0002516A0FDF771
:103290003BF813E0002518A0FDF736F80EE00025F6
:1032A00019A0FDF731F809E000251BA0FDF72CF867
:1032B00004E000251CA0FDF727F800BF00BF0A208E
:1032C00002F0F2FACAE700007B226B70223A223940
:1032D000227D0D0A000000007B226B70223A223012
:1032E000227D0D0A000000007B226B70223A223101
:1032F000227D0D0A000000007B226B70223A2232F0
:10330000227D0D0A000000007B226B70223A2233DE
:10331000227D0D0A000000007B226B70223A2234CD
:10332000227D0D0A000000007B226B70223A2235BC
:10333000227D0D0A0000000000BF054A128802F03D
:103340004002002AF9D0C2B2014B1B1D1A807047FF
:10335000003801401CB54FF44070FEF73DFBFFF70D
:1033600007FF4FF4E13001F0AFF9FEF7A7FAFEF7DF
:1033700087FAFEF773F8FDF759FB11480068114909
:10338000B0FBF1F0C4B210484168204688474FF4C2
:10339000E130FEF70DFC41F61F4141F28730FFF7A7
:1033A0007BF80A48012100236422CDE9001008A11E
:1033B0000A4803F039F902F069FC00201CBD000046
:1033C0001400002040420F002C02002000000020CA
:1033D00073746172745F7461736B0000054600085A
:1033E00070B540E0C82002F05FFA1F48008800F482
:1033F0000040002834D01C480088C0F30D04611C34
:10340000002000F0F7F90546184A19A12846FCF7F4
:1034100087FF00202855E1B22846FEF791FA0020E8
:103420001149088013A12846FDF77AF948B9C82147
:103430000E48FDF752F92946002000F0C9F9012095
:1034400070BD0DA12846FDF76BF960B9C82107488A
:10345000FDF743F92946002000F0BAF90220EFE712
:1034600006A0FCF751FFBDE7CC000020860300203A
:1034700025730000444A3100444A3200CEB4BDD323
:10348000CAD5B5BDB5C8BCB6CAFDBEDD0D0A0000C3
:1034900070B504460D461C48006800282FDB1A480A
:1034A0002146026819A0FCF72FFF174800688442E4
:1034B0000ED90020194908601949C1F89C01124829
:1034C0000068211A2846FEF791FA0F48046019E0B7
:1034D0000D48006884420ED201201049086010494E
:1034E000C1F89C0108480068011B2846FEF77EFAD7
:1034F0000548046006E00BA0FCF706FF02E00EA002
:10350000FCF702FF70BD0000440000200D0A4D587A
:103510003D25642C583D25640D0A00009881214208
:10352000008021420D0A73616D6520706F736974AC
:10353000696F6EA3A10D0A000D0A6D6F76655F7845
:10354000BAAFCAFDCEB4D6B4D0D0A3A10D0A000044
:1035500070B505460C4621462846FDF755FF4FF449
:10356000CA7094FBF0F6314601A0FCF7CDFE70BDA9
:103570000D0A593D256C640D0A00000070B5044623
:103580000D461C48006800282FDB21461AA0FCF7D6
:10359000BBFE1848006884420FDA01201949086010
:1035A00000201949C1F89C0112480068011B2846F7
:1035B000FEF71CFA0F4804601AE00E4800688442C7
:1035C0000FDD00200F49086001200F49C1F89C0160
:1035D00008480068211A2846FEF708FA05480460E2
:1035E00006E00AA0FCF790FE02E00DA0FCF78CFEBE
:1035F00070BD00004C0000200D0A5A3D25640D0AE4
:103600000000000098812142008021420D0A736170
:103610006D6520706F736974696F6EA3A10D0A00E8
:103620000D0A6D6F76655F7ABAAFCAFDCEB4D6B4B7
:10363000D0D0A3A10D0A00002DE9F04104460E46AA
:103640001548005D38B91448183801682046884785
:103650000120BDE8F081114850F82400B04219D98A
:103660000F4850F82400B6FBF0F10B48083850F82A
:10367000240030F81120002508E00023064808380F
:1036800050F824004F1920F817306D1C9542F4DBD8
:103690000020DEE70220DCE7380300206C70000821
:1036A0006470000810B504460C4951F824104A0013
:1036B0000B4951F82400002100F0B0F8094951F8F5
:1036C00024200749083951F82400002100F0A6F809
:1036D000012103480830015510BD00005C7000084E
:1036E000300300206C7000082DE9F04704460F46B7
:1036F0000025A9462348005D20B9224818380168F2
:10370000204688471FB94FF0FF30BDE8F0871E48BC
:1037100050F82400B7FBF0F61B4850F82400B7FB24
:10372000F0F100FB117000B1761C184850F824002D
:10373000451E22E01348083850F8240030F81500E0
:1037400010B909F1010901E04FF00009B14513D1A9
:103750004FF0000809E00B48083850F8240005EB4A
:10376000080220F8126008F10108B045F3D30648BA
:1037700050F824006843C8E76D1E002DDADA4FF0D8
:10378000FF30C2E738030020647000085C70000856
:1037900010B501460023002207E00B4850F8210035
:1037A00030F8120000B15B1C521C084850F8210090
:1037B0009042F2D864205843044C54F82140B0FBA6
:1037C000F4F0C0B210BD0000300300205C700008AF
:1037D00070B505460C4604B970BD054850F8250083
:1037E000261A31462846FFF727FF00BFF4E70000FE
:1037F0002803002070B504460E4631462046FFF7E8
:1038000073FF0546681C08B9002070BD024850F8D7
:1038100024002844F9E700002803002030B50346BF
:1038200001E003F8011B141EA2F10102F9D130BD21
:103830002DE9FC4104460D4616461F46DDF8208062
:1038400010480078C8B1104804701048057010483E
:103850000670104807801048A0F8008000880D49C5
:103860000988CDE900100A4803780848027806481C
:1038700001780AA0FCF748FD02E014A0FCF744FD23
:10388000BDE8FC81360000202E0000202F00002023
:10389000310000203A0000203C000020C3E7C5CCE6
:1038A000B2CECAFDA3BA2564D0D02C2564C1D02CD9
:1038B0002564D1A8BCE4BEE02C4431583D25642CDD
:1038C0004432583D25640D0A00000000D7D4B6AF3D
:1038D000B3CCD0F2D5FDD4DAD6B4D0D00D0A0000E6
:1038E00000BF00BF02E00A2001F0DEFFFBE700009E
:1038F0002DE9F04105460E461C4807681C48006843
:10390000001D01F013FE50B91948006890F82C1002
:103910000120884017490968814316480160681CE6
:1039200038B936B112480168091D134801F03CFE50
:103930001AE07C190E4800684460BC4207D20C486B
:103940000168091D0D48006801F014FE0CE00848EC
:103950000168091D0A48006801F00CFE094800686A
:10396000844201D207480460BDE8F081F8000020DD
:10397000E4000020FC00002060070020EC00002094
:10398000E80000201401002010B5044601F018FEE4
:1039900024480068401C234908602348006840B957
:1039A000214804600846006801280DD100F0EEF9B6
:1039B0000AE01E48006838B91B480068C06AE16A1E
:1039C000884201D81848046019480068401C18490A
:1039D000086008460068606494F82C100120884054
:1039E00014490968084313490860E16A01EB810141
:1039F000114A02EB8100211D01F0D6FD01F024FEE9
:103A00000A48006868B108480068C06AE16A8842EC
:103A100007D24FF0805009490860BFF34F8FBFF3C2
:103A20006F8F10BDF4000020E40000200001002092
:103A300010010020FC0000209004002004ED00E0B4
:103A400010B501F0BDFD10480068D0B90F4801F075
:103A500081FD0F4801F07EFD0C480E4908600C48BE
:103A60000D49086000221021052002F0ADFA064938
:103A700008600846006820B108A10348006801F00A
:103A8000D7FE01F0E1FD10BD2801002074070020E1
:103A9000880700202001002024010020546D72516D
:103AA0000000000070B523E002F0C6F9134800687A
:103AB00008B9012000E00020054602F071FFBDB901
:103AC00001F07EFD0D48C068C468201D01F02EFD88
:103AD0000B480068401E0A4908600A480068401EFA
:103AE0000849086001F0B0FD204600F060F800BF12
:103AF000044800680028D7D170BD00004C070020A2
:103B0000F4000020F000002070B504460D46206C43
:103B100070B1216CE0680844E0606168E068884248
:103B200001D32068E0602846226CE168FCF788FD3C
:103B300070BD2DE9F04104460F4615464FF00008D0
:103B4000A66B206C40B9206860BB606802F062FE22
:103B500080460020606025E07DB93946226CA0686F
:103B6000FCF76EFD216CA0680844A060D4E9011048
:103B7000884217D32068A06014E03946226CE068C0
:103B8000FCF75EFD216CE068401AE0602168E068A7
:103B9000884203D2216C6068401AE060022D01D196
:103BA00006B1761E701CA0634046BDE8F08110B5DA
:103BB0000446206B01F080FD204601F07DFD10BD24
:103BC0000146084A126812680AB9012200E0002280
:103BD0000A600A6822B9034A1268D268106800E0D5
:103BE000002070472001002030B54FF4A043174853
:103BF00000F007042CB1C01D20F00700134C041B7B
:103C00001B1B0246124C22600024114D6C60D01820
:103C1000083820F007000F4C206000240D4D2D685F
:103C20006C600C4D2D682C601146441A4C60094C98
:103C300024680C60084D4C682C60084D4C682C6062
:103C40004FF00044064D2C6030BD00009C07002062
:103C5000340100203C0100204401002040010020EC
:103C60004801002000BFFFF71DFF0648006801283B
:103C7000F9D94FF0805004490860BFF34F8FBFF36C
:103C80006F8FF0E79004002004ED00E02DE9F04193
:103C900006460D4617469846069C0DB9246000E07E
:103CA0002760E66325640121204602F0ABFA84F820
:103CB00050800020A064BDE8F08100002DE9F05F95
:103CC00082460F4690469B460A9E0C9C4FEA88010E
:103CD000A522206BFCF7F9FCA8F10100216B01EB98
:103CE000800929F0070909F0070008B9012000E060
:103CF000002028B940F22B321BA120A0FCF704FBC6
:103D0000002507E0795D04F134004155785D00B984
:103D100002E06D1C102DF5D300BF0021432001559A
:103D2000202E00D31F26E662E66400202065201DB9
:103D300001F01DFC04F1180001F019FC2461C6F12A
:103D40002000A06164620020606584F858005A4633
:103D50005146484600F03AFC20600B9808B10B9899
:103D60000460BDE8F09F00002E2E5C46726565522F
:103D7000544F535C7461736B732E63004572726FA2
:103D8000723A25732C25640D0A00000010B500243A
:103D900007E004EB84010F4A02EB810001F0DAFB3B
:103DA000641C202CF5D30C4801F0D4FB0B4801F027
:103DB000D1FB0B4801F0CEFB0A4801F0CBFB0A48CF
:103DC00001F0C8FB04480949086004480849086034
:103DD00010BD0000900400201007002024070020E0
:103DE000380700204C07002060070020E800002072
:103DF000EC00002010B50146164800E0006803689A
:103E00008B42FBD30246436813448B4204D1436880
:103E10004C682344436001460A464B6813440468D7
:103E2000A34211D10C4C03682468A34208D04B680C
:103E30000468646823444B6003681B680B6005E0FA
:103E4000054B1B680B6001E003680B60884200D0E3
:103E5000016010BD340100203C0100202DE9F0413B
:103E600004460D4616461F464FF000086560246163
:103E7000B5420CD8F01BA169884202D34FF001086B
:103E800011E0211D0948006801F074FB0BE0BE42FF
:103E900004D2BD4202D34FF0010804E0211D0448C2
:103EA000006801F067FB4046BDE8F0812401002076
:103EB0002001002070B5054601F082FBA86B08B90F
:103EC000012400E0002401F0BFFB204670BD70B566
:103ED000054601F075FBA86BE96B884201D101240E
:103EE00000E0002401F0B0FB204670BD2DE9F34155
:103EF0000D460098846C00272CB940F6CE121AA10A
:103F00001EA0FCF701FAA06BE16B884201D20120F0
:103F100000E0002028B940F6CF1213A117A0FCF74B
:103F2000F3F9A06BE16B88421BD294F945602A46F5
:103F300069462046FFF7FDFD0746701C60B9606AC0
:103F400008B9012000E0002050B904F1240002F07B
:103F5000CDFC28B1012703E0701C40B284F8450075
:103F600000BF3846BDE8FC812E2E5C467265655266
:103F7000544F535C71756575652E63004572726FA1
:103F8000723A25732C25640D0A000000F8B5054629
:103F90000F4613480068C068C468201D01F0C6FAC7
:103FA000E069012818D1A06941192B463A462046FC
:103FB000FFF754FF80B1002003462A4601460090D7
:103FC000204602F0B7FD06462EB94FF4027205A155
:103FD0000AA0FCF799F900BF2046616A8847F8BD3E
:103FE000200100202E2E5C4672656552544F535CB2
:103FF00074696D6572732E63000000004572726F04
:10400000723A25732C25640D0A000000F0B587B0C4
:1040100070E0039800280CDA04AE2EB940F2E722D3
:104020003AA140A0FCF770F9D6E90020B1689047AA
:1040300000BF039800285DDB059C606908B901207A
:1040400000E0002010B9201D01F070FA02A800F075
:10405000C7F8054603980A284AD2DFE800F00905A8
:10406000072C2E4506082D2F00BF00BF00BF00BF44
:104070000498A269811803462A462046FFF7EEFEFF
:10408000C0B12046616A8847E069012812D100204A
:1040900000900498A169421800231946204602F0B6
:1040A00049FD07462FB940F2213218A11DA0FCF7A7
:1040B0002BF900BF1DE000BF1BE000BF0498A0610A
:1040C000A06908B1012000E0002028B94FF44E7229
:1040D0000EA114A0FCF718F9A06941192B462A4635
:1040E0002046FFF7BBFE04E0204601F0E5FA00E0C1
:1040F00000BF00BF00231A4603A90E48006801F064
:104100009DFF002885D107B0F0BD00002E2E5C4633
:1041100072656552544F535C74696D6572732E639A
:10412000000000004572726F723A25732C25640DF1
:104130000A00000028010020F8B505460C4601F0F1
:104140007BFE684600F04CF80646009820BB44B958
:10415000B54206D802F024FC31462846FFF716FF88
:104160001CE03CB10E480068006808B9012000E07E
:1041700000200446A91B22460A48006801F06EFB95
:1041800002F00EFC50B94FF0805007490860BFF3B1
:104190004F8FBFF36F8F01E002F002FCF8BD00000B
:1041A000240100202801002004ED00E00A490968EC
:1041B000096809B9012100E0002121B14FF0FF3168
:1041C000064A116006E004490968C968C868034ADC
:1041D0004168116070470000E800002014010020D1
:1041E00070B5044602F060FA05460748006885424B
:1041F00004D200F00BF80120206001E000202060D4
:1042000001480560284670BD300100202DE9F843C3
:104210002DE021480068C06805681F480068C06834
:10422000C468201D01F082F92046616A8847E06970
:1042300001281CD1A0694619AE4207D966602461E5
:10424000211D1548006801F095F910E00020034693
:104250002A4601460090204602F06CFC07462FB922
:1042600040F292320DA113A0FCF74EF800BF0A48AD
:104270000068006808B9012000E000200028C8D0CC
:104280000548D0F800800F480068034908600D48D1
:10429000C0F80080BDE8F883200100202E2E5C4687
:1042A00072656552544F535C74696D6572732E6309
:1042B000000000004572726F723A25732C25640D60
:1042C0000A000000240100200B480068401C08B9C7
:1042D000012000E0002020B9F42208A112A0FCF780
:1042E00013F800BF802080F31188BFF34F8FBFF316
:1042F0006F8F00BF00BFFEE74C0100202E2E5C46F2
:1043000072656552544F535C706F727461626C6574
:104310005C525644535C41524D5F434D335C706F69
:1043200072742E63000000004572726F723A25733A
:104330002C25640D0A00000070B5054600262C46A9
:104340002DB940F281620EA112A0FBF7DDFF1549E5
:104350006069884201D1012000E0002070B112495B
:10436000A06A884201D1012000E0002030B9A06A93
:1043700008B9012000E0002000B10126304670BDE0
:104380002E2E5C4672656552544F535C7461736B9C
:10439000732E63004572726F723A25732C25640D7B
:1043A0000A000000600700203807002008B500BFA1
:1043B0006846FFF705FC044620460099FFF7BCFE5F
:1043C000FFF724FEF4E770B5044601F0F9F894F91C
:1043D00045501AE0A06C38B100212046FFF786FD59
:1043E00088B101F021FB0EE0606A08B9012000E00D
:1043F000002038B904F1240002F078FA18B101F075
:1044000013FB00E003E0681E45B2002DE2DC00BFB4
:10441000FF2084F8450001F017F901F0D1F894F974
:10442000445010E0206908B9012000E0002048B99C
:1044300004F1100002F05AFA08B101F0F5FA681E12
:1044400045B200E001E0002DECDC00BFFF2084F865
:10445000440001F0F9F870BD2DE9F04104464FF039
:10446000000801F0E9FC3E48006808B9FFF7BCFB12
:104470003C480068204000285FD1A4B1083404F013
:10448000070080B104F00700C0F10800044404F004
:10449000070008B9012000E0002020B9BF2232A1A6
:1044A0003BA0FBF731FF002C47D03D480068844219
:1044B00043D83C4E3046056801E02E462D686868BA
:1044C000A04202D228680028F7D12548006885421A
:1044D00033D0306800F10808286830606868001B35
:1044E000102813D92F1907F0070008B9012000E0A0
:1044F000002020B9EC221CA125A0FBF705FF68686D
:10450000001B78606C603846FFF774FC24496868CB
:104510000968081A224908600846006822490968A3
:10452000884203D21E4800681F4908600D49686828
:104530000968084368600020286002F031FA08F03A
:10454000070008B9012000E0002028B94FF4967256
:1045500005A10FA0FBF7D8FE4046BDE8F0810000A2
:104560003C010020480100202E2E5C4672656552F9
:10457000544F535C706F727461626C655C4D656D15
:104580004D616E675C686561705F342E630000008A
:104590004572726F723A25732C25640D0A00000073
:1045A000400100203401002044010020064800683A
:1045B00030B10549096801F15000096D491C0160DD
:1045C0000148006870470000E4000020001F4FF021
:1045D00080730360001F21F001030360001F034B81
:1045E000036014380260203870470000C942000898
:1045F00001460868704700000149088070470000C4
:10460000340000201CB5044600F0DAFF19480221EE
:1046100000236422CDE9001017A11A4802F004F823
:104620001948032100236422CDE9001017A11A487C
:1046300001F0FAFF1948062100236422CDE9001099
:1046400017A11A4801F0F0FF194807210023802222
:10465000CDE9001017A11A4801F0E6FF14480068E0
:1046600001F06AFB1748006801F058F900F0ECFF10
:104670001CBD00000400002075736D6172745F74CE
:1046800061736B001955000808000020656B65799F
:104690005F7461736B000000553200080C0000204D
:1046A000706C75735F7461736B000000E138000813
:1046B00028000020797A325F7461736B000000007B
:1046C000E56B00080000002010B586B0044601210B
:1046D00044F20400FDF7F2F94FF40070ADF8140055
:1046E00003208DF8160018208DF8170005A91C4826
:1046F000FCF75EFF4FF48060ADF8140004208DF8E5
:10470000170005A91648FCF753FF25208DF8000077
:1047100003208DF801008DF8020001208DF80300C0
:104720006846FDF721F901940020ADF80800ADF8C6
:104730000A00ADF80C00ADF810000C20ADF80E002A
:1047400001A90848FEF7E0FA012240F22551054888
:10475000FEF7B5FA01210348FEF76EFA06B010BD68
:10476000000801400038014030B595B0054613AB54
:1047700012AA09A9284600F041FA044614B12046BD
:1047800015B030BD0020149026E0224909689DF83C
:10479000502001EBC20113AB11AA486801A900F037
:1047A0002DFA04460CB12046EAE709A901A800F059
:1047B000E1FC60B99DF844009DF84810884201DD95
:1047C0000220DDE79DF85000124988750AE09DF847
:1047D0005000401CC0B214900E48007D9DF850104F
:1047E0008842D2DC00BF0B48007D9DF85010884203
:1047F00001D10420C4E714A9284600F0DFFA0446DA
:104800000CB12046BCE79DF85000024948750020D5
:10481000B6E700002C0200202DE9F0419AB09D4837
:10482000847D007DA04202DC1AB0BDE8F081994988
:10483000096801EBC40106AB07AA486808A900F0A3
:10484000DDF908A994A0FBF75FFD002645E091483B
:10485000008B0121B1400840D8B1222190A0FBF784
:1048600053FD304600F030FB8A4924314718394661
:104870008CA0FBF749FD222189A0FBF745FD3046BE
:1048800000F022FB83492431084410A941F8260096
:1048900019E0304600F018FB7E492431085810A971
:1048A00041F826007B48C07D012806D110A850F8A9
:1048B00026107DA0FBF728FD05E010A850F8261073
:1048C0007AA0FBF721FD9DF81C00401EB04202D0EB
:1048D00078A0FBF719FD701CC6B29DF81C0086423B
:1048E000B5DB75A0FBF710FD00F040FB6948407D8B
:1048F0000B280DD2DFE800F0060D151E27323F4EC3
:104900005F7287006349096851F8340080470546A3
:1049100090E0604A126852F83410109888470546B3
:1049200088E05C4B1B6853F83420DDE910019047A8
:1049300005467FE0574F3F6857F8343010A807C846
:104940009847054676E0DFF84CC1DCF800C05CF81B
:10495000347010A80FC8B84705466BE01498DFF80C
:1049600034C10090DCF800C05CF8347010A80FC8A7
:10497000B84705465EE0DDE91401DFF818C1CDE96E
:104980000001DCF800C05CF8347010A80FC8B8470C
:1049900005464FE0DDE914121698DFF8F8C0CDE9BE
:1049A00000120290DCF800C05CF8347010A80FC848
:1049B000B84705463EE0DDE91423DDE91610DFF8CF
:1049C000D4C0CDE90023CDE90210DCF800C05CF8CA
:1049D000347010A80FC8B84705462BE0DDE9152351
:1049E000DDE91710CDE90123CDE903101498DFF8B4
:1049F000A4C00090DCF800C05CF8347010A80FC8A8
:104A0000B847054616E0DDE91623DDE91810CDE9C3
:104A10000223CDE90410DDE91401DFF878C0CDE907
:104A20000001DCF800C05CF8347010A80FC8B8476B
:104A3000054600BF00BF00F057FA9DF81800012896
:104A40000DD11448C07D012804D129461BA0FBF7D5
:104A50005BFC07E029461BA0FBF756FC02E018A010
:104A6000FBF752FC0B4890F8EC0088B10948D0F8ED
:104A7000F0000A21B0FBF1F201FB12070548D0F863
:104A8000F000B0FBF1F83A46414611A0FBF73CFCC0
:104A900000BFC9E62C0200200D0A25732800000083
:104AA0002563000025730000256C750030582558DB
:104AB000000000002C000000290000003D256C755E
:104AC0003B0D0A003D305825583B0D0A0000000000
:104AD00046756E6374696F6E2052756E2054696DF1
:104AE000653A25642E2531646D730D0A00000000BF
:104AF000F0B50346154600200022002600245BE0A6
:104B00001F782C2F01D104B901221F78292F01D041
:104B10001F780FB904B950E0002E3AD11F78302F1A
:104B200002DB1F78392F17DD1F782D2F14D01F7847
:104B30002B2F11D01F78612F02DB1F78662F0BDD22
:104B40001F78412F02DB1F78462F05DD1F78582F75
:104B500002D01F78782F0CD102B12EE01F78612F80
:104B600003DB1F78203F0F7001E01F780F70491C96
:104B70001FE01F78222F04D102B11EE0012601247C
:104B800017E01F78202F14D01F782C2F11D0FF266C
:104B900013E01F78222F00D1002402B10DE044B1B0
:104BA0001F785C2F02D15B1C471CF8B21F780F7076
:104BB000491C471CF8B25B1CA2E700BF00270F701E
:104BC0002E70F0BD10B50446002010700BE0207868
:104BD0000870641C491C1078401C107010789842B2
:104BE00001DB012010BD2078202802D02078002889
:104BF000EDD10020087000BFF4E700002DE9FF4F61
:104C000085B080468946002700200490039001204B
:104C100002904FF0000B002544461DE0207820282C
:104C200016D005F07F00052812DA0DB945F0800591
:104C300005F07F00042803D120782A2800D00EE058
:104C4000207805F07F010DF80100681CC5B202E074
:104C5000852D00D103E0641C20780028DED100BF40
:104C60008DB1002005F07F010DF8010051A16846CB
:104C700000F080FA18B900210898017002E00121C3
:104C80000898017000254FF0000A444614E0641CA7
:104C90000AF1010000F0FF0A2078202802D02078D5
:104CA0002A2809D1204600F0D7F90646282E03D03D
:104CB0002A2E01D0CDF810A02078282802D0207804
:104CC0000028E4D14446049810B10498401C0444E0
:104CD0004FF0000A002654E0207810B94FF0010A86
:104CE00050E02078282803D116B9781CC7B213E009
:104CF0002078292808D13EB917B1781EC7B201E043
:104D00004FF0010A47B93DE02078222804D10EB9BE
:104D1000012000E00020064647B9207820282FD047
:104D2000207889F8000009F1010929E020782C2871
:104D300004D101200290681CC5B214E0207820281C
:104D400011D0207828280ED04DB9BBF1050F06DA16
:104D500020780DF80B000BF1010000F0FF0B02981A
:104D6000401CC0B20290012F0AD10298022807D13C
:104D70000298401CC0B202900398401CC0B203903D
:104D8000641CA9E700BF0398012809D100200DF891
:104D90000B0008A1684600F0EDF908B90020039067
:104DA000079903980870002089F80000504609B060
:104DB000BDE8F08F766F6964000000002DE9F043D4
:104DC000B5B005460F460024002604E000213D480A
:104DD0008155701CC6B20A2EF8DB06E06D1C2878DF
:104DE00018B9012035B0BDE8F08328782828F5D11E
:104DF0006D1C61E034AA69462846FFF779FE064635
:104E000035449DF8D00020B1012827D0FF284CD18F
:104E100049E09DF8000000B333A9684600F027F987
:104E200006460EB10220DDE7204600F04DF8254988
:104E30000A31339A0A50A1F12400008B0121A140CC
:104E4000884320491A39088304211E480155601CF3
:104E5000C4B20A2C01DD0320C4E726E0684600F056
:104E6000A5F9401C00F0FF08204600F02DF8154978
:104E70000A3100EB01094946684600F08CF91148F7
:104E80001A38018B0120A040014388B20D491A391C
:104E900008830C4800F80480601CC4B20A2C01DDB1
:104EA00003209FE701E002209CE700BF2878292823
:104EB00001D0287800B900E09CE700BF3C700020DA
:104EC00090E700004602002002460020002105E095
:104ED000044B5B5C0344D8B24B1CD9B29142F7DB64
:104EE000704700004602002010B501210D48FDF773
:104EF00015FC012808D10C48D0F8F0004FF6FF71DE
:104F000008440949C1F8F0000648FDF704FC0649C9
:104F1000D1F8F01008440449C1F8F0000846D0F870
:104F2000F00010BD001000402C02002010B5044617
:104F300004EBC40000EB04100122C2EB800081B23C
:104F40004FF47A70FDF712FD01200149C87510BDBC
:104F50002C02002010B50246012000E050430B1E39
:104F6000A1F10104E1B2F9D110BD000010B5012199
:104F70000848FDF7ABFB4FF6FF710648FDF77CFCD8
:104F800000210448FDF77AFC00200349C1F8F00035
:104F900010BD0000001000402C02002070B51D481C
:104FA000008800F40040002833D01A48057800201B
:104FB00019494855194881681748884704461CB95B
:104FC0001649C868804721E0134800F0FBF8054601
:104FD000012D00D02C46CCB1012C06D0022C08D0DB
:104FE000032C0AD0042C10D10BE00DA0FBF78CF998
:104FF0000BE00EA0FBF788F907E00FA0FBF784F9A0
:1050000003E010A0FBF780F900BF00BF00200149BA
:10501000088070BDCC000020860300202C020020F8
:10502000BAAFCAFDB4EDCEF3210D0A00B2CECAFD6F
:10503000B4EDCEF3210D0A00B2CECAFDCCABB6E082
:10504000210D0A00CEB4D5D2B5BDC6A5C5E4B5C400
:10505000BAAFCAFD210D0A000146491C00E0491CF7
:105060000878202801D10029F9D1087870472DE966
:10507000F04F05460F4600264FF00A09B3462C466E
:105080000020386034E02078392802DC207830288D
:1050900011DA28782D2802D028782B2800D156B193
:1050A0002078462802DC2078412804DA2078582825
:1050B00017D1012E15D12078412801DB4FF01009BE
:1050C00028782D2803D14FF0020B6D1C0FE02878B3
:1050D0002B2803D14FF0010B6D1C08E0701CC6B2E9
:1050E00005E0207800B904E00120BDE8F08F641CE1
:1050F000C9E700BF2C46B9F1100F0FD1032E01DA1A
:105100000220F2E72078302806D16078582803D1B1
:10511000A41CB01EC6B204E00320E6E70EB90420CA
:10512000E3E71BE00EB1701EC6B22078392806DC1A
:105130002078302803DB2078A0F1300A02E02078C4
:10514000A0F1370A31464846FFF704FF39680AFBE9
:1051500000103860641C207800B900E0E2E700BF6E
:10516000BBF1020F04D13868C0F10008C7F8008015
:105170000020BAE702460AE010780B78984201D086
:1051800001207047107800B902E0521C491CF3E777
:1051900000BF0020F5E706E002780A70027802B945
:1051A00002E0401C491CF7E700BF704701460020A1
:1051B00005E00A7802B903E0421CD0B2491CF8E7C6
:1051C00000BF704710B58CB004461E230BAA03A97C
:1051D0002046FFF7F7FC0090009810B101200CB0BA
:1051E00010BD9DF82C00044400200B900EE07E487A
:1051F0009DF82C2050F8221003A8FFF7BBFF00B940
:1052000008E09DF82C00401CC0B20B909DF82C00CB
:105210000728ECD300BF9DF82C00072875D2DFE8E3
:1052200000F004050C2E5C88B30000BF6FA0FBF7F4
:105230006BF86FA0FBF768F8D3E06CA0FBF764F89D
:105240006FA0FBF761F800200B900EE07C4800682F
:105250009DF82C2000EBC20041687AA0FBF754F8BF
:105260009DF82C00401CC0B20B907548007D9DF845
:105270002C108842EADC5DA0FBF746F8B1E05BA0A9
:10528000FBF742F871A0FBF73FF800200B901AE003
:105290006B4909689DF82C2001EBC20101AB02AA01
:1052A000486803A9FFF7AAFC654800689DF82C1020
:1052B00050F8312003A975A0FBF726F89DF82C00C3
:1052C000401CC0B20B905E48007D9DF82C108842B7
:1052D000DEDC46A0FBF718F883E044A0FBF714F8E7
:1052E0000BAA03A92046FFF703FC9DF82C00D0B9B8
:1052F000694603A8FFF7BBFE0B909DF82C0028B968
:1053000067A00099FBF700F80FE068E09DF82C001B
:10531000042801D0022062E764A0FAF7F5FF00201C
:105320004749C87501E0022059E730A0FAF7ECFFC1
:1053300057E02EA0FAF7E8FF0BAA03A92046FFF7D3
:10534000D7FB9DF82C00C8B9694603A8FFF78FFE6C
:105350000B909DF82C0020B959A00099FAF7D4FFC2
:105360000EE09DF82C00042801D0022037E757A05A
:10537000FAF7CAFF01203249C87501E002202EE782
:105380001AA0FAF7C1FF2CE018A0FAF7BDFF0BAA8C
:1053900003A92046FFF7ACFB9DF82C00C8B969466D
:1053A00003A8FFF764FE0B909DF82C0078B9244900
:1053B000009881F8EC00084690F8EC0018B148A07D
:1053C000FAF7A2FF07E04DA0FAF79EFF03E00220E4
:1053D00005E7022003E705A0FAF796FF01E00120A8
:1053E000FDE600BF0020FAE6580100200D0A00008B
:1053F000B4AEBFDAB5F7CAD4D7E9BCFE0D0A0000D7
:105400002D2D2D2D2D2D2D2D2D2D2D2D2D2D2D2DCC
:105410002D2D2D2D2D2D2D2D2DBAAFCAFDC7E5B566
:10542000A52D2D2D2D2D2D2D2D2D2D2D2D2D2D2D34
:105430002D2D2D2D2D2D2D2D2D2D2D2D200D0A0019
:105440002C02002025730D0A000000002D2D2D2DAB
:105450002D2D2D2D2D2D2D2D2D2D2D2D2D2D2D2D7C
:105460002D2D2D2D2DBAAFCAFD204944202D2D2DD7
:105470002D2D2D2D2D2D2D2D2D2D2D2D2D2D2D2D5C
:105480002D2D2D2D2D2D2D2D200D0A00257320695C
:10549000642069733A0D0A3058253038580D0A00D7
:1054A0004845583A305825580D0A00003136BDF8A5
:1054B000D6C6B2CECAFDCFD4CABE210D0A000000A6
:1054C0004445433A256C750D0A0000003130BDF8A3
:1054D000D6C6B2CECAFDCFD4CABE210D0A00000086
:1054E00052756E2054696D652043616C63756C6103
:1054F00074696F6E204F4E0D0A00000052756E20C9
:1055000054696D652043616C63756C6174696F6E7D
:10551000204F46460D0A000005E003490869804710
:10552000642000F0C1F9F8E72C02002001460A6966
:10553000D1E901309860D1E9010358605068884290
:1055400001D188685060002008611068401E10601A
:105550001068704700F1080141604FF0FF31816031
:1055600000F10801C1600161002101607047002164
:105570000161704710B502460B685C1C0CB91069DC
:1055800007E002F1080000E04068446824689C429B
:10559000FAD944684C604C68A160886041600A6137
:1055A0001468641C146010BD42684A6093688B6084
:1055B000936859609160086103685B1C03607047E1
:1055C00010B500BF802080F31188BFF34F8FBFF369
:1055D0006F8F00BF0B480068401C0A4908600846EE
:1055E000006801280DD108480068C0B208B9012040
:1055F00000E0002028B94FF4BD7204A10EA0FAF714
:1056000083FE10BD4C01002004ED00E02E2E5C4610
:1056100072656552544F535C706F727461626C6551
:105620005C525644535C41524D5F434D335C706F46
:1056300072742E63000000004572726F723A257317
:105640002C25640D0A00000010B50B48006828B92D
:1056500040F2811209A114A0FAF756FE064800682C
:10566000401E054908600846006820B9002080F304
:10567000118800BF00BF10BD4C0100202E2E5C46DB
:1056800072656552544F535C706F727461626C65E1
:105690005C525644535C41524D5F434D335C706FD6
:1056A00072742E63000000004572726F723A2573A7
:1056B0002C25640D0A00000070B506463546002E04
:1056C00035D0083D2C461A4960680968084008B181
:1056D000012000E0002028B94FF4A07215A11FA0FE
:1056E000FAF712FE206808B9012000E0002028B96E
:1056F00040F241120FA119A0FAF706FE0C496068AA
:105700000968084098B1206888B909496068096843
:105710008843606000F090FB1449606809680844A1
:10572000124908602046FEF765FB01F039F970BDAB
:10573000480100202E2E5C4672656552544F535C22
:10574000706F727461626C655C4D656D4D616E6702
:105750005C686561705F342E630000004572726F93
:10576000723A25732C25640D0A00000040010020C8
:10577000064800684FF47A71B0FBF1F0401E4FF01C
:10578000E0214861072008617047000014000020F4
:1057900070B5FAF793FD0546102D11D305F1E02001
:1057A00090F8F04310480078844201DB012000E0CB
:1057B000002028B94FF42A720CA117A0FAF7A4FD13
:1057C0001948006800F4E06018490968884201D867
:1057D000012000E0002028B94FF42E7203A10EA092
:1057E000FAF792FD70BD0000500100202E2E5C469D
:1057F00072656552544F535C706F727461626C6570
:105800005C525644535C41524D5F434D335C706F64
:1058100072742E63000000004572726F723A257335
:105820002C25640D0A0000000CED00E0540100205E
:10583000024600200BE0084B53F8303033B9064BDA
:1058400043F8301003EBC0035A6002E0401C082804
:10585000F1D300BF70470000500400202DE9F04153
:1058600005460E4617462C46FFF7AAFE94F944005B
:10587000401C10B9002084F8440094F94500401CF5
:1058800010B9002084F84500FFF7DEFEA06B28B9B0
:105890003A46314604F1240000F0F6F82046FEF7BF
:1058A00092FDBDE8F081000070B504460025ACB162
:1058B0000F48006808B9012000E0002028B940F234
:1058C000CF420CA110A0FAF71FFD00F0B5FA00219D
:1058D0002046FEF70DF801F063F805463DB94FF09C
:1058E00080500D490860BFF34F8FBFF36F8F70BDBD
:1058F0001C0100202E2E5C4672656552544F535C8D
:105900007461736B732E63004572726F723A257304
:105910002C25640D0A00000004ED00E070B505467A
:10592000FFF74EFE15B92D48006800E028460446F2
:10593000201DFFF7FBFD78B9E06A00EB80002849E5
:1059400051F8200040B994F82C10012088402549D6
:105950000968814323480160A06A18B104F1180066
:10596000FFF7E4FD20480068401C1F4908601B4801
:105970000068844209D1211D1C48FFF715FE1C4810
:105980000068401C1A49086009E01A480068401E77
:10599000184908602046FEF70AF9FEF707FCFFF7F2
:1059A00053FE15480068C0B10C480068844214D109
:1059B0001248006808B9012000E0002028B940F230
:1059C00065420FA113A0FAF79FFC4FF080501549D4
:1059D0000860BFF34F8FBFF36F8F70BDE4000020EE
:1059E00090040020FC000020100100204C07002043
:1059F000F0000020F4000020000100201C01002025
:105A00002E2E5C4672656552544F535C7461736B05
:105A1000732E63004572726F723A25732C25640DE4
:105A20000A00000004ED00E0012001490860704711
:105A30000801002070B504460D462CB940F6063228
:105A400007A10CA0FAF760FC0E4801681831204647
:105A5000FFF790FD01212846FDF74AFF70BD0000C9
:105A60002E2E5C4672656552544F535C7461736BA5
:105A7000732E63004572726F723A25732C25640D84
:105A80000A000000E400002070B505460E461446EA
:105A90002DB940F6313209A10DA0FAF735FC1048B6
:105AA000016818312846FFF77FFD0CB14FF0FF3633
:105AB00021463046FDF71CFF70BD00002E2E5C46CF
:105AC00072656552544F535C7461736B732E63003F
:105AD0004572726F723A25732C25640D0A0000001E
